:020000040001F9
:10F00000B0C8002015F201001DF201001FF201003E
:10F0100021F2010023F2010025F2010000000000AE
:10F0200000000000000000000000000027F20100C6
:10F0300029F20100000000002BF201002DF2010076
:10F04000D52302002FF20100A12B02005926020055
:10F050002FF201002FF201007D010200592402006D
:10F060002FF201002FF201002FF201002FF2010018
:10F070002FF201002FF201002FF201002FF2010008
:10F080002FF20100252402002FF201002FF20100CF
:10F09000D92702002FF20100E12702002FF2010020
:10F0A0002FF201002FF201002FF201002FF20100D8
:10F0B0002FF201002FF2010000000000000000000C
:10F0C0002FF201002FF201002FF201002FF20100B8
:10F0D0002FF201002FF20100610102000000000088
:10F0E0000000000000000000000000000000000020
:10F0F0000000000000000000000000000000000010
:10F1000000000000000000000000000000000000FF
:10F1100000000000000000000000000000000000EF
:10F1200000000000000000000000000000000000DF
:10F1300000000000000000000000000000000000CF
:10F1400000000000000000000000000000000000BF
:10F1500000000000000000000000000000000000AF
:10F16000000000000000000000000000000000009F
:10F17000000000000000000000000000000000008F
:10F18000000000000000000000000000000000007F
:10F19000000000000000000000000000000000006F
:10F1A000000000000000000000000000000000005F
:10F1B000000000000000000000000000000000004F
:10F1C000000000000000000000000000000000003F
:10F1D000000000000000000000000000000000002F
:10F1E000000000000000000000000000000000001F
:10F1F000000000000000000000000000000000000F
:10F20000DFF80CD000F0C6FA004800471565020090
:10F21000B0C800200648804706480047FEE7FEE7E2
:10F22000FEE7FEE7FEE7FEE7FEE7FEE7FEE7FEE7B6
:10F230000D29020001F20100202A04DB203A00FA25
:10F2400002F1002070479140C2F1200320FA03F33D
:10F25000194390407047202A04DB203A21FA02F03B
:10F260000021704721FA02F3D040C2F12002914000
:10F2700008431946704740EA01039B0703D009E0A1
:10F2800008C9121F08C0042AFAD203E011F8013B92
:10F2900000F8013B521EF9D27047D2B201E000F8EB
:10F2A000012B491EFBD270470022F6E710B513462A
:10F2B0000A4604461946FFF7F0FF204610BD2DE927
:10F2C000FE4F81EA030404F0004421F00041009461
:10F2D0004FF0000B23F0004350EA01045ED052EAE5
:10F2E00003045BD0C3F30A54C1F30A552C44A4F2BF
:10F2F000F3340194A0FB0254C1F3130141F48011D3
:10F30000C3F3130343F4801301FB024400FB034ED9
:10F31000840A970A44EA815447EA8357A4FB0768A2
:10F3200002958D0A05FB07854FEA932C04FB0C54CC
:10F330002705029D4FEA065847EA1637B5EB080540
:10F340006EEB070C870E920E47EA811742EA831292
:10F35000A7FB0201B6EB0B0164EB00042B0D43EAA3
:10F360000C335E1844EB1C50DA465146E7FB0201B1
:10F37000C5F313044FEA0B3343EA14534FEA043244
:10F38000019C43EA0603A4F10C040294009CCDE91D
:10F3900000B400F060F903B0BDE8F08F0020014632
:10F3A000F9E72DE9F04D81EA030404F0004B21F068
:10F3B000004514464FF0000A23F0004150EA0502D0
:10F3C00020D054EA01021DD0C5F30A570246C5F306
:10F3D0001303C1F31300C1F30A5640F4801543F43C
:10F3E0008013A7EB0608101BD64608F2FD3873EB16
:10F3F000050002D308F1010801E092185B41B8F161
:10F40000000F03DA00200146BDE8F08D00204FF424
:10F410008011064684460EE0171B73EB050705D3E3
:10F42000121B63EB050306434CEA010C49084FEA43
:10F43000300092185B4150EA0107EDD152EA030017
:10F4400012D082EA040083EA0501084305D0101BAC
:10F45000AB4106D20122002306E000224FF0004318
:10F4600002E06FF0010253101AEB06004CEB08515A
:10F4700010EB0A0041EB0B01BDE8F04D00F0DCB8E9
:10F480000EB540F2334102910021CDE900110A4648
:10F490000B4600F0E0F803B000BD70B5C1F30A52AE
:10F4A00001F000450024C1F3130140F2FF3341F4A1
:10F4B00080119A4201DA002070BD40F233439A4233
:10F4C000A2F2334203DC5242FFF7C5FE00E0904057
:10F4D0002C43F1D0404270BDC1F30A5210B5C1F3C4
:10F4E000130140F2FF3341F480119A4201DA002007
:10F4F00010BD40F233439A42A2F2334203DC52423F
:10F50000FFF7A9FE10BD904010BD00F0004230F0A2
:10F5100000400AD0C10D01F56071C0F3160042EA47
:10F520000151C2084007114370470020014670474F
:10F5300001F0004330B421F0004150EA010206D04E
:10F540000A0DA2F56072C1F31301002A02DC30BC7F
:10F5500000207047440F44EAC104C100E01830BCE9
:10F5600000EBC25000F031B82DE9F05F05460020F5
:10F5700092469B4688460646814640241BE0284624
:10F58000414647462246FFF766FE53465A46C01A92
:10F59000914110D3114618462246FFF74DFE2D1A11
:10F5A00067EB01084F46224601200021FFF744FE89
:10F5B00017EB00094E41201EA4F10104DFDC484690
:10F5C00031462A464346BDE8F09F0029A8BF704750
:10F5D000401C490008BF20F00100704710B4B0FA89
:10F5E00080FC00FA0CF050EA010404BF10BC704724
:10F5F00049B1CCF1200421FA04F411FA0CF118BF3E
:10F60000012121430843A3EB0C01CB1D4FEA00610C
:10F610004FEA102042BF002010BC704700EBC350DF
:10F6200010440029A4BF10BC7047401C490008BF0B
:10F6300020F0010010BC704710B5141E73F10004D7
:10F6400008DA401C41F1000192185B411A4301D1D4
:10F6500020F0010010BD2DE9F04D92469B4611B1FE
:10F66000B1FA81F202E0B0FA80F220329046FFF760
:10F67000E3FD04460F4640EA0A0041EA0B01534607
:10F680005A46084313D0114653EA010019D0C8F175
:10F6900040025046FFF7DFFD05460E4650465946EC
:10F6A0004246FFF7C9FD084305D0012004E020468B
:10F6B0003946BDE8F08D0020054346EAE0762C434C
:10F6C00037430A986305E40AA0EB08000022FD0A0C
:10F6D00044EA47540A3002D500200146E9E7010513
:10F6E00010196941DDE9084500196941BDE8F04D8F
:10F6F000A2E72DE9F04D00231A461B1A8A4103DBCD
:10F7000000200146BDE8F08DC1F30A52C1F3130198
:10F7100041F480154FF0000BD10702D100186D4164
:10F72000521E0027044640F2FF11384601EB620AE0
:10F730003E468046024600204FF48011FFF78BFDC5
:10F74000C2197141BB1846EB0100B4EB030C75EB19
:10F75000000C04D3E41A65EB000517460E46241985
:10F7600008F101006D4180463428E3DDF91946EBCC
:10F770000600091BA84103D24FF0FF32134601E0F7
:10F78000002213461BEB070046EB0A51BDE8F04D83
:10F79000FFF752BF064C074D06E0E06840F001035A
:10F7A00094E8070098471034AC42F6D3FFF72CFDDD
:10F7B000FCBA02001CBB020070B58D1810F8014B9A
:10F7C00014F0030201D110F8012B231106D110F817
:10F7D000013B03E010F8016B01F8016B521EF9D1F7
:10F7E000ABB110F8012B04F00C048A1A0C2C03D0D6
:10F7F000A2EB84129B1C08E010F8014BA2EB042240
:10F80000F8E712F8014B01F8014B5B1EF9D5A9424C
:10F81000D4D3002070BD00002DE9F0412DED048B04
:10F820000025002400270026A04600BF1FE000247A
:10F8300017E07D4830F814100246601C32F81000C2
:10F8400081420CDD1146601C31F81070084630F81A
:10F850001410601C22F81010104620F81470601C60
:10F86000C4B2C5F10900A042E3D8681CC5B20A2D94
:10F87000DDD3012505E06C4830F815000644681C0E
:10F88000C5B2092DF7D3C6F3CF084046FFF7F8FD00
:10F8900041EC190B9FED650B53EC102BFFF70FFD9F
:10F8A00041EC180BFFF718FE624948800B2008F066
:10F8B000C7FA002816D05F484088B0F5C87F1ADD27
:10F8C0005C480078C0F3820004280CDA594840886C
:10F8D000B0F5CB7F75DB5748007820F01C00103066
:10F8E000544908706DE05348007820F01C00103037
:10F8F0005049087065E04F484088B0F5BE7F1ADD7A
:10F900004C480078C0F3820003280CDA494840884C
:10F91000B0F5C17F55DB4748007820F01C000C3063
:10F92000444908704DE04348007820F01C000C303A
:10F930004049087045E03F484088B0F5B47F1ADD83
:10F940003C480078C0F3820002280CDA394840882D
:10F95000B0F5B77F35DB3748007820F01C00083061
:10F96000344908702DE03348007820F01C0008303E
:10F970003049087025E02F484088B0F5AF7F1ADD88
:10F980002C480078C0F3820001280CDA294840880E
:10F99000B0F5B27F15DB2748007820F01C00001D71
:10F9A000244908700DE02348007820F01C00001D59
:10F9B0002049087005E01F48007820F01C001D4910
:10F9C00008701C484088B0F5AA7F07DA194800780B
:10F9D00020F020002030174908700FE0154800780B
:10F9E000C0F3401050B113484088B0F5AD7F05DB3F
:10F9F0001048007820F020000E49087014210A48B1
:10FA0000FFF752FC00200C49087009F0A1FF0B48D9
:10FA1000007820F00200094908700AF04BFFBDECA5
:10FA2000048BBDE8F0810000C46F0020F853E3A50B
:10FA30009BC4C83FBA270020D2270020D32700202C
:10FA400010B504460748C078042809D00548C07896
:10FA5000052805D00348C078062801D00AF038FCF4
:10FA600010BD0000B06B002010B50446607920493D
:10FA7000497988423AD1A1791D488079814235D1AE
:10FA8000E1791B48C079814230D11A48C0780B28EF
:10FA90002CD01848C0780A2828D01648C0780C28DE
:10FAA00024D01448007800F0010040B902F081F938
:10FAB00001231A461946002002F0B4FE0CE00D4B5B
:10FAC0001B78C3F340020B4B1B7803F00101094B79
:10FAD000D8780A2302F0A6FE0A2301221146082044
:10FAE00002F0B6FE00F088FF01F0C8FA10BD000079
:10FAF000A8270020B06B002010B5204800880028FF
:10FB00003AD01E480088401E80B21C49088098BB2D
:10FB10001B48C07804282FD01948C07805282BD05E
:10FB20001748C078062827D01648008908800AF0B0
:10FB300089FE1348007800F0010008B902F039F995
:10FB40006FF0020010494860898808B201F038FC63
:10FB50000B48007820F00200094908700846007838
:10FB600020F00100401C08700846007820F0FC00DE
:10FB7000283008700420C87010BD0000CA2700207B
:10FB8000B06B0020A82700202081002070B586B02F
:10FB900004460D462078FF2806D10020059001215B
:10FBA00005A800F09DF992E120780128FBD160784A
:10FBB000062873D006DC052831D2DFE800F01031CA
:10FBC0004572B40080286AD004DC072868D0082871
:10FBD00025D10AE181287DD08228F9D15EE100207B
:10FBE0000590A078D8B901208DF8140000208DF878
:10FBF00015008DF81600032105A800F071F94FF4E7
:10FC00007A76314616FB01F007F086F900BF00BF97
:10FC1000012600BF012003F049FD00BF00BF55E1F0
:10FC200000200590A07870B901208DF814008DF89F
:10FC3000150002208DF8160008208DF81700042109
:10FC400005A800F04DF941E1002004900590A0784E
:10FC500018BB02A86DDF01208DF8100002208DF87E
:10FC600011009DF80E008DF812009DF80D008DF822
:10FC700013009DF80C008DF814009DF80B008DF812
:10FC800015009DF80A008DF816009DF809008DF802
:10FC90001700082104A800F023F917E17BE0B8E081
:10FCA0008CE000200590092D2FD1A0788DF8090057
:10FCB000E0788DF80800BDF80800ADF80C00207958
:10FCC000401EC0B28DF80E006079401EC0B28DF8A3
:10FCD0000F0000E0CAE0A0798DF81100E0798DF8FE
:10FCE0001200207A8DF8130003A802F091FD012084
:10FCF0008DF8140003208DF8150000208DF81600F3
:10FD0000032105A800F0ECF80CE001208DF81400A8
:10FD100003208DF8150001208DF81600032105A899
:10FD200000F0DEF8D2E00020039004900590A07867
:10FD300080BB01A800F048FBBDF8040000909DF8CE
:10FD400001008DF80E009DF800008DF80F009DF861
:10FD50000600401CC0B28DF810009DF80700401C42
:10FD6000C0B28DF811009DF809008DF812009DF8C1
:10FD70000A008DF813009DF80B008DF81400012087
:10FD80008DF80C0004208DF80D00092103A800F067
:10FD9000A7F800BF9AE000200590A0784D4988722E
:10FDA00020788DF8140006208DF8150000208DF8BD
:10FDB0001600032105A800F093F887E000200590C5
:10FDC00044480B30D4F802100160E188818020782B
:10FDD0008DF8140007208DF8150000208DF816000E
:10FDE000032105A800F07CF870E0A07880B900201D
:10FDF000059020788DF8140008208DF815003548FE
:10FE0000807A8DF81600032105A800F069F800BF7C
:10FE10005CE0A078012811D10AF014FD2E4800788A
:10FE200000F0010008B901F0C4FF0A2301221146C5
:10FE3000092002F00DFD00F0DFFD16E00AF050FD94
:10FE40000A2301220021084602F0ECFC2248007837
:10FE500000F0010008B901F0ACFF0A2301221146AD
:10FE6000002002F0F5FC00F0C7FD2FE0A078C0EB09
:10FE7000001080001749088118490880002005906B
:10FE800020788DF8140081208DF8150000208DF861
:10FE90001600032105A800F023F817E000200590C4
:10FEA000A0780C494871E1780A4881712179C171C3
:10FEB00020788DF8140082208DF8150000208DF830
:10FEC0001600032105A800F00BF800BF00BF06B024
:10FED00070BD0000A8270020B06B0020CA270020BA
:10FEE0002DE9F04105460E460D480078C0F340006C
:10FEF00098B1324629460B4804F01DFB0446082CF5
:10FF00000AD0112C08D000BF274627B100BF3846C1
:10FF100003F0CCFB00BF00BF00BFBDE8F0810000D4
:10FF2000BA270020506D002010B55A484088B0F51F
:10FF3000CD7F05DA5848007820F001005649087056
:10FF40000B2007F07DFF002845D15348007800F0D2
:10FF5000010000283FD1514908704E4800788008C0
:10FF6000401C4C49097860F384014A4801700078CC
:10FF7000C0F38200042805DD4648007820F01C000C
:10FF80004449087044480078C0F3400018BB424818
:10FF9000007840F002004049087001F06FF84048D6
:10FFA000007800F00100B0B901F003FF3C48007890
:10FFB00020F00200801C3A4908700846007820F0C2
:10FFC0000100401C08700846007820F0FC00283032
:10FFD00008700020C8700B2007F032FF002857D0AF
:10FFE0002D480078C0F34000B8B32B480078C0F328
:10FFF000800090B30020294908702748007820F03D
:020000040002F8
:100000000200254908700846007820F004000870B6
:1000100001F034F82248007800F00100E8B91D48EA
:10002000007820F01C0010301A49087001F0C1FE61
:100030001B48007820F00200801C1949087008460F
:10004000007820F00100401C08700846007820F07D
:10005000FC00283008700020C8700E484088B0F5B9
:10006000C87F05DD0C48007840F001000A4908709F
:100070000AF02EF909480078401CC0B20749087000
:10008000032805DD0448007840F0040002490870A8
:1000900010BD0000BA270020D4270020D52700205B
:1000A000B06B002010B50446A0792A49C97A88426D
:1000B0004ED161792748007B814249D12179254879
:1000C000407B814244D1E1782248807B81423FD10C
:1000D000A1782048C07B81423AD161781D48007CDC
:1000E000814235D11C480078052817DA94F90E10A2
:1000F000194802780078401C174B1870174840F8D0
:10010000321000F06BF914490A780978491C124B37
:100110001970124901EBC201486019E000200DE09E
:100120000E4A411C52F8311042F83010411C02EBCB
:10013000C101496802EBC0025160401C0428EFDB9A
:1001400094F90E000549086200F048F90349486235
:1001500010BD0000A8270020DF6B00200C9C0020B1
:100160000549096801F1400000BFF1EE101A01686D
:1001700021F09F010160704738EF00E02DE9F04F5A
:1001800087B00027BA464FF48070069001250024FE
:1001900012E0069807F094FE40B100BF6148006885
:1001A000284018B1069807F07DFE2F436D00069891
:1001B000001D80B20690641C082CEAD34FF4BE7078
:1001C00007F07EFE48B14FF4BE7007F06BFE47F0BB
:1001D000004700BF544800688246F8B200B30125CA
:1001E00000241BE005EA0700B0B100BF4F4850F8FB
:1001F0002400C0F30420804600BF4C4850F824007F
:10020000C0F301408146204604F060FB064616B16B
:1002100049464046B04700BF6D00641C082CE1D33E
:1002200007F00040002879D04FF0000B0020059027
:10023000401E049000BF4FF0000B002457E03C48E4
:10024000005D0390039820F0C00639480057401C19
:1002500000284BD00120B04004990840002845D028
:1002600003984FEA9019304604F078FB804604F07A
:100270002DFB0290029810B9B9F1030F35D101207E
:1002800000FA06F5B9F1030F02D10598284305904D
:1002900000BF284850F82600C0F3014800BF05EA17
:1002A0000A0010B1B8F1020F05D005EA0A00D8B96A
:1002B000B8F1030F18D1B9F1030F0FD1B8F1020F44
:1002C00001D1032000E0022001903046019907F09F
:1002D0008DFD0BF1010000F0FF0B00BF029818B17B
:1002E00049463046029A904700BF00BF641C042C68
:1002F000A5D3BBF1000F0DD000BF0B49096808461C
:10030000504503D14FF0000B03E007E0824605990A
:10031000049100BFBBF1000F8DD100BF07B0BDE855
:10032000F08F00000463004010050050106500408D
:10033000B09F0020000700507CB50B25032600204D
:1003400000903346024601460190284607F076FCAD
:1003500000BF084A0021084803F0B6F9044600BF70
:10036000254625B100BF284603F0A0F900BF00BF15
:100370007CBD0000B9100200DCAF020010B5002403
:1003800003E0204607F0C6FC641C202CF9DB10BDFE
:1003900070B506460B480078C0F3400080B974DFA2
:1003A00003F06EF8032003F03FFC044600BF25462F
:1003B00025B100BF284603F079F900BF00BF00BF98
:1003C00070BD0000BA27002010B50446024801683D
:1003D000204609F05FFC10BDD827002001480068C6
:1003E00070470000D82700202DE9F0417D480078B3
:1003F000C0F3410048BB7B48007800F0010020BBFF
:100400007948807A012820D178488ADF0546082D6E
:100410000AD000BFA846B8F1000F04D000BF404684
:1004200003F044F900BF00BF6E48007820F00100DF
:10043000401C6C490870084600784008401C097848
:1004400060F342016748017031E066480078C0F30C
:100450004100012816D16348007800F0010030B156
:100460008BDF6048007820F001005E4908705D482D
:1004700000784008401C5B49097860F34201594804
:10048000017014E0574800784008401C554909782D
:1004900060F34201534801700078C0F34100042822
:1004A00005D15048007820F006004E4908704E48AB
:1004B000807A38B94E48007820F001004C49087025
:1004C000BDE8F0810024002600274A48007805286E
:1004D00002DA44F00104F3E7FFF780FF4649496A76
:1004E000401A142802D944F0010435E0002005E048
:1004F000414951F830100E44411CC8B20528F7DBC1
:10050000052196FBF1F0002801DB014600E04142A5
:10051000462902DD44F002041EE000200DE0364AC8
:1005200052F83010002901DB0A4600E04A425A2AFC
:1005300001DD791CCFB2411CC8B20528EFDB032FC7
:1005400002DB44F0040407E02948007820F00100B1
:10055000401C27490870B3E7002026490870E4B31F
:100560002348007800F00100B8B32148007820F05B
:1005700001001F4908702148C078092830D01F4861
:10058000C0780B282CD01D48C0780A2828D01B48DA
:10059000C078082824D01948007800F0010040B93C
:1005A00001F007FC01231A461946002002F03AF92F
:1005B0000CE0124B1B78C3F34002104B1B7803F086
:1005C00001010E4BD8780A2302F02CF90A230122EC
:1005D00011460C2002F03CF900E001E000F00CFABA
:1005E00000BF6DE7DE6B0020A827002076BA02006E
:1005F000BA270020DF6B00200C9C0020B06B00208D
:1006000030B587B005460020069005900024012DE6
:1006100008D15648002101608180002054490860BB
:10062000544908805448007800F00100002876D032
:1006300000205249087005A803A906AA04ABCDE919
:10064000002102904E4A4FF4FA714E4806F052F8DB
:100650009DF8180028B104985F2802DD4A490498E3
:1006600008609DF8140028B30398782832DA4748C8
:1006700000880F30039988422CDD0398282829DD53
:100680004148406828B1404840680A300399884290
:1006900020DD3E49039808803548006806280ADABC
:1006A0003348039902680068401C314B18602F489A
:1006B00040F822100EE0002407E02C49601C51F89D
:1006C000200041F82400601C44B2052CF5DB2749CA
:1006D0000398486126480068062844D1062123482B
:1006E00006F0FEFA002023490880012409E01F4893
:1006F00030F824001F49098808441E490880601CFE
:1007000044B2052CF3DB2048406848B919490888F1
:10071000C11700EB917189101B4A51600AE00DE08E
:1007200019484068134909880844052190FBF1F0F5
:100730001549486078201549088014E00F48007872
:10074000401CC0B20D49087003280CDD00200E4982
:10075000486008600548002101608180002004494C
:1007600008600449088007B030BD00008C98002064
:10077000D46B0020D86B0020D06B0020D16B002000
:10078000507900208071002020810020DA6B002049
:1007900070B5002400BF0DE01E49601C51F8200018
:1007A00041F824001C49601C51F8200041F8240045
:1007B000601C84B2B4F5F97FEEDD1849184800F0EA
:1007C0006EFB00250026002008E0134951F8201098
:1007D0000D44104951F820100E44401CB0F5FA7F2A
:1007E000F3DB4FF4FA70B5FBF0F5B6FBF0F60D480D
:1007F000864201D3854206D20B48007820F00100E2
:100800000949087005E00848007840F001000649F1
:10081000087070BD80710020507900201C8100207C
:100820004C790020A0860100D06B002010B50F206D
:1008300007F0F6FA0E2007F0C0FA0E2007F0F0FAE3
:10084000012006F0B5FB0F2007F016FB012006F093
:10085000AFFB0F2007F0E4FA10BD10B50F2007F032
:10086000ACFA0E2007F0A9FA00F07CF8002010BDC9
:1008700010B50F2007F0D4FA0E2007F09EFA0E20D4
:1008800007F0FAFA012006F093FB0F2007F0F4FAC4
:10089000012006F08DFB0F2007F0C2FA10BD70B5E5
:1008A0000025002403210E2007F06EFA00BF15E09A
:1008B0000F2007F0B5FA012006F07AFB0F2007F0B1
:1008C000DBFA6006040E0E2007F0C4FA08B1601CC3
:1008D000C4B2012006F06CFB681CC5B2082DE7DB32
:1008E000204670BD70B504460E2007F066FA0F2052
:1008F00007F096FA00251BE0E00918B10E2007F07A
:10090000BBFA02E00E2007F08BFA6006040E01200D
:1009100006F04EFB0F2007F0AFFA012006F048FB6F
:100920000F2007F07DFA012006F042FB681CC5B2DB
:10093000082DE1DB70BD10B50E2007F03EFA0E2049
:1009400007F09AFA0F2007F097FA012006F030FB23
:100950000E2007F065FA012006F02AFB0F2007F0B1
:100960005FFA10BD10B50E2007F027FA0F2007F030
:1009700057FA0E2007F054FA012006F019FB0F2059
:1009800007F07AFA0E2007F077FA012006F010FB44
:1009900010BD10B500240E2007F00FFA0E2007F04E
:1009A0006BFA012006F004FB0F2007F065FA012026
:1009B00006F0FEFA03210E2007F0E6F907E0641CBA
:1009C000B4F57A6F03D9FFF7CDFF012010BD0E20DB
:1009D00007F040FA0028F2D10F2007F021FA00209A
:1009E000F4E710B50F2007F0C3F90E2007F0C0F9A7
:1009F000FFF7B8FF002010BD1CB52F48C0780D28A8
:100A000057D2DFE800F0071A1F242931394146493F
:100A10004C5053006846FFF7D7FC28480078C0F3D5
:100A2000820326480078C0F340022448007800F092
:100A30000101684600F030FF3BE02149086801F001
:100A40007FF836E01E49888800F074FC31E01C49CC
:100A5000C88800F011FC2CE01A49898808B200F01F
:100A6000AFFC09F0EFFE24E01649098808B200F057
:100A700051FD09F0E7FE1CE01249098908B200F0B7
:100A800061FE09F0DFFE14E009F02AFF00F0ECFF40
:100A90000FE000F0EDFE0CE000F0E2FD09E00120C7
:100AA00000F066FB05E000F095FB02E000F0C2FB01
:100AB00000BF00BF1CBD0000B06B0020BA270020A3
:100AC0009849002020810020F8B504466D466E1C30
:100AD0002946282000F053F808B90020F8BD314617
:100AE000292000F04CF808B90020F7E7BDF9000014
:100AF000208029462A2000F042F808B90020EDE7BE
:100B000031462B2000F03BF808B90020E6E7BDF99C
:100B10000000608029462C2000F031F808B9002040
:100B2000DCE731462D2000F02AF808B90020D5E78F
:100B3000BDF90000A0800120D0E710B50446214691
:100B40000F2000F01CF808B9002010BD0120FCE7C0
:100B500008B56846FFF7F1FF00B908BD042000F0B2
:100B6000BDF850B1012000F04FF830B1002000F086
:100B70002DF810B1072000F00BF800BFEDE770B5BD
:100B800004460D462946204601F098FD012070BD1F
:100B900038B5044669462020FFF7F1FF08B9002068
:100BA00038BD9DF8000000F0F800009004F0070048
:100BB0009DF80010084300909DF80010202000F0E0
:100BC000ABF808B90020EBE70120E9E738B50446A7
:100BD00069462320FFF7D3FF08B9002038BD9DF8F0
:100BE000000000F0CF0000909DF8000040EA0410E3
:100BF000C0B200909DF80010232000F08DF808B9D5
:100C00000020EBE70120E9E71CB5044601A92020FC
:100C1000FFF7B5FF08B900201CBD69462320FFF788
:100C2000AEFF08B90020F7E79DF8040000F0F000DF
:100C300038B92948007800F0F0009DF80410084306
:100C4000019024B1012C1FD0022C30D109E09DF875
:100C50000400214908709DF8040000F00F00019085
:100C600027E09DF8040000F0F70001909DF80400D3
:100C700001909DF8000000F0F70000909DF8000042
:100C800040F00800009014E09DF8040000F0F70028
:100C900001909DF8040040F0080001909DF80000CC
:100CA00000F0F70000909DF80000009001E00020A7
:100CB000B2E700BF9DF80410202000F02DF808B91D
:100CC0000020A9E79DF80010232000F025F808B9BE
:100CD0000020A1E701209FE7BA6B002038B5044649
:100CE00069462020FFF74BFF08B9002038BD9DF86A
:100CF000000000F00F0000909DF8000040EA041092
:100D0000C0B200909DF80010202000F005F808B94E
:100D10000020EBE70120E9E770B504460D462946BF
:100D2000204601F01FFD012070BD000070B5314864
:100D30000078C0F34010A0B12F480078002857D1A8
:100D400001202D49087074DF2C48006802F04AFD2C
:100D50002B48006802F046FD2A48006802F042FD78
:100D600046E025480078012842D100202249087039
:100D700000224FF4A4712148006802F009FD0446E6
:100D800000BF254625B100BF284602F08FFC00BFFA
:100D900000BF002240F2D7311948006802F0F8FC89
:100DA000044600BF254625B100BF284602F07EFC60
:100DB00000BF00BF00224FF420311248006802F04B
:100DC000E7FC044600BF254625B100BF284602F0D7
:100DD0006DFC00BF00BF032002F026FF044600BFE9
:100DE000254625B100BF284602F060FC00BF00BFC9
:100DF00070BD0000BA270020CD270020ECAF020014
:100E0000F0AF0200F4AF020070B504460025FFF712
:100E100092FDAE20FFF766FDFFF7BBFD00B118E0C5
:100E20002046FFF75FFDFFF7B4FD00B111E0FFF7CB
:100E300082FDAF20FFF756FDFFF7ABFD00B108E0E4
:100E4000FFF72DFD0546FFF713FDFFF78BFD284645
:100E500070BDFFF787FD0020FAE770B505460C4628
:100E6000FFF769FDAE20FFF73DFDFFF792FD00B1F2
:100E700011E02846FFF736FDFFF78BFD00B10AE0D1
:100E80002046FFF72FFDFFF784FD00B103E0FFF7D9
:100E900069FD002070BDFFF765FD0120FAE72DE92F
:100EA000FC4105460E460027B84600200090019000
:100EB0000024FFF740FDAE20FFF714FDFFF769FDAA
:100EC00000B141E00720FFF70DFDFFF762FD00B123
:100ED0003AE0FFF730FDAF20FFF704FDFFF759FDC3
:100EE00000B131E000240CE0FFF7D9FC0DF804005C
:100EF000052C02D2FFF79AFC01E0FFF7B9FC601C59
:100F0000C4B2062CF0D3FFF72DFD9DF800000004BD
:100F10009DF8011000EB01209DF802100844C0F379
:100F200015089DF8030000049DF8041000EB012053
:100F30009DF805100844C0F315071DB116B12F60C8
:100F4000C6F80080BDE8FC81FFF70CFD00BFF9E7A3
:100F50002DE9F04104460D4600210846FFF77DFFCC
:100F600002210320FFF779FF01212120FFF775FF00
:100F70001F20FFF749FF06462020FFF745FF0746E1
:100F800014B10DB126702F700848007800F00100F0
:100F900030B106EB860007EB40000549886002E0AF
:100FA000002003498860BDE8F0810000D06B00207C
:100FB0002081002010B5C0210220FFF74EFF10B1A4
:100FC0004FF0FF3010BD02210320FFF746FF10B1A4
:100FD0004FF0FF30F6E700210420FFF73EFF10B18D
:100FE0004FF0FF30EEE700210520FFF736FF10B18C
:100FF0004FF0FF30E6E700210620FFF72EFF10B18B
:101000004FF0FF30DEE70F210820FFF726FF10B179
:101010004FF0FF30D6E703210920FFF71EFF10B184
:101020004FF0FF30CEE727210A20FFF716FF10B15F
:101030004FF0FF30C6E724210C20FFF70EFF10B160
:101040004FF0FF30BEE724210D20FFF706FF10B15F
:101050004FF0FF30B6E77F211020FFF7FEFE10B102
:101060004FF0FF30AEE701212120FFF7F6FE10B16F
:101070004FF0FF30A6E70020A4E700001CB51924BC
:10108000002000900323012211460190204606F023
:10109000D5FD00BF192001218140054A116000BF24
:1010A000002242F266610348006802F071FB1CBD39
:1010B00008050050DCAF020010B5044619200121DC
:1010C0008140034A116000BF06F024FE10BD0000FD
:1010D0000C05005000F01F0201219140024A430913
:1010E00042F823107047000080E200E000F01F0289
:1010F00001219140024A430942F823107047000041
:1011000080E100E000F01F020121914042099200BD
:1011100002F1E022C2F80011704700F01F02012125
:1011200091404209920002F1E022C2F8001170479A
:1011300000F01F0201219140024A430942F82310A6
:101140007047000000E200E010B5002807DA4A0707
:10115000140E054A00F00F031B1FD45403E04A0786
:10116000130E024A135410BD18ED00E000E400E035
:101170003EB50446CCB91548407800F0010068B18E
:10118000124B5B78C3F34002104B5B7803F0010114
:101190000E4B98780A2301F05BFB16E00A2301222C
:1011A0001146002001F054FB0FE000F0DBFD0120B0
:1011B0008021074A2823CDE900210290302208210E
:1011C000102000F006FE00F0DFFE3EBDB06B0020F8
:1011D000E8B702000EB500F0C5FD01208021124ADB
:1011E0002823CDE90021029030220821102000F0B0
:1011F000F0FD00F0C9FE0D488078092807D10A23C8
:1012000001221146002001F00DFB09F069FB08489E
:10121000007828B9012006490870FFF72FFF02E087
:101220000020034908700EBD68B80200B06B0020B2
:10123000B86B00200EB500F095FD012080210C4A0E
:101240002823CDE90021029030220821102000F04F
:10125000C0FD00F099FE0748007828B90120054933
:101260000870FFF70BFF02E00020024908700EBD76
:10127000E8B80200B96B002070B586B0044600F0F3
:1012800071FD01208C21264A1F23CDE90021029007
:101290003F2201460E2000F09CFD0A20B4FBF0F135
:1012A00000FB1145B4FBF0F62B4632461DA103A806
:1012B00001F0F0FCB4F57A7F08D90120102303AACD
:1012C00020210090002001F025F81DE0642C08D9B1
:1012D0000120102303AA20210090082001F01AF811
:1012E00012E00A2C08D90120102303AA2021009023
:1012F000184601F00FF807E00120102303AA20216F
:101300000090184601F006F801200C2307A22421C2
:101310000090282000F0FEFF00F036FE06B070BD01
:101320000CB2020025642E25640000004B63616C42
:101330000000000070B586B0044600F013FD0120E7
:1013400068211B4A1F23CDE9002102903F2201465C
:10135000122000F03EFD0A20B4FBF0F100FB114525
:10136000B4FBF0F62B46324612A103A801F092FC22
:10137000642C08D90120102303AA1E2100901846CE
:1013800000F0C8FF07E00120102303AA1E210090EF
:10139000142000F0BFFF01200C2308A2242100909C
:1013A000302000F0B7FF00F0EFFD06B070BD000088
:1013B000A4B1020025642E25640000006B6D0000BE
:1013C0003EB5044600F0CEFC002C27DA01204E2169
:1013D0004A4A1923CDE9002102903F22042112201C
:1013E00000F0F7FC251E4FF00C00009001DB2846B2
:1013F00000E06842024601231E211D2000F040FF4C
:10140000201E01DB014600E04142022973DC00207E
:101410003B4908700120FFF7F3F86CE02CBB00207B
:10142000FFF7EEF83648007878B901204E21334AAC
:101430001923CDE9002102903F220421122000F05F
:10144000C8FC01202E49087055E0012024212D4AB6
:101450001823CDE9002102903F220A21162000F036
:10146000B8FC00202649087045E001204E21234A9F
:101470001923CDE9002102903F220421122000F01F
:10148000A8FC642C08DB1020032322461E210090B8
:10149000152000F0F5FE12E00A2C08DB10200223D4
:1014A00022461E210090192000F0EAFE07E01020DD
:1014B000012322461E2100901D2000F0E1FE12486B
:1014C000007820F00200801C0F49087001200C23D6
:1014D0000EA2242100902E2000F01CFF0C48446036
:1014E00007480078FF2804D0FFF7C8FDFF20044913
:1014F000087009F0F5F900F047FD3EBD98B2020012
:10150000B46B0020E6B20200B06B0020626D700088
:101510007471002030B587B0044600F023FC002C25
:1015200027DA01207821474A1F23CDE900210290C4
:101530003F220146122000F04CFC251E4FF00C000B
:10154000009001DB284600E0684202460123212189
:101550001D2000F095FE201E01DB014600E0414207
:1015600002296ADC0020384908700120FFF748F89A
:1015700063E02CBB0020FFF743F83348007878B9CC
:10158000012078212F4A1F23CDE9002102903F221C
:101590000146122000F01DFC01202B4908704CE090
:1015A00001207821294A1F23CDE9002102903F2202
:1015B0000146122000F00DFC0020234908703CE099
:1015C000012078211F4A1F23CDE9002102903F22EC
:1015D0000146122000F0FDFB0020049005900690CB
:1015E00022461BA104A801F055FB642C08DB012056
:1015F000102304AA20210090142000F08BFE07E0A5
:101600000120102304AA20210090182000F082FE5F
:101610001148007820F00200801C0F4908700F4824
:10162000046009480078FF2804D0FFF727FDFF2059
:101630000549087009F054F900BF00F0A5FC07B097
:1016400030BD00000AB30200B56B002082B3020077
:101650002564202525000000B06B00207471002057
:1016600000B585B000F07EFB3148007801280BD131
:101670008021304A2823CDE9002102903F22082111
:10168000102000F0A6FB20E02948007802280CD1A9
:1016900001208021284A2823CDE9002102903F2201
:1016A0000821102000F095FB0FE021480078032866
:1016B0000BD101208021214A2823CDE9002102906D
:1016C0003F220821102000F084FB19480078401CBC
:1016D000C0B217490870042801DB012008700020FF
:1016E000FEF78EFF00210846FFF732FC0020039032
:1016F000049041201249486001208DF80C008020A0
:101700008DF80D00084600788DF80E000846007927
:101710008DF80F000846007AC838C0B28DF8100066
:10172000052103A8FEF7DCFB00F02EFC05B000BD90
:10173000B76B002068B60200E8B6020068B7020086
:101740002081002070B586B0044600F00BFB002C11
:101750001DDA012078213F4A1F23CDE900210290A4
:101760003F220146122000F034FB251E4FF00C00F2
:10177000009001DB284600E0684202460123212157
:101780001D2000F07DFD0020334908705DE0002140
:101790000846FFF7DDFB012078212E4A1F23CDE903
:1017A000002102903F220146122000F012FB00208F
:1017B0000390049005900A2094FBF0F100FB114582
:1017C00094FBF0F62B46324624A103A801F062FAFE
:1017D000642C08DB0120102303AA202100900E2096
:1017E00000F098FD07E00120102303AA20210090BB
:1017F000172000F08FFD012020211A4A3023CDE967
:10180000002102903F222E2000F0E3FA12480078D7
:10181000401CC0B2104908701E2815DB002008705B
:101820001148007820F00200801C0F4908700F4812
:10183000846009480078FF2804D0FFF71FFCFF20D0
:101840000549087009F04CF800BF00F09DFB06B098
:1018500070BD0000FAB30200B66B002025642E258F
:101860006400000072B40200B06B002074710020AC
:101870000EB500F077FA0120C821064A2B23CDE9E6
:10188000002102903F2205210C2000F0A2FA00F076
:101890007BFB0EBD92B40200F0B587B004460D4646
:1018A00016461F46002004900590069000F05AFA54
:1018B000052F45D2DFE807F003101D2A370001206D
:1018C0002821594A0A23CDE90021029040220146ED
:1018D0002C2000F07EFA33E001202821534A0A230D
:1018E000CDE900210290402201462C2000F071FA3F
:1018F00026E0012028214E4A0A23CDE9002102904A
:10190000402201462C2000F064FA19E00120282131
:10191000484A0A23CDE900210290402201462C20AA
:1019200000F057FA0CE001202821434A0A23CDE9B0
:1019300000210290402201462C2000F04AFA00BF0C
:1019400000BF0020049005900690E07900EBD07174
:101950004910A0EB410119BBA379627937A104A812
:1019600001F098F9012E0CD101201421364A0B23E5
:10197000CDE9002102902A220146202000F029FA18
:1019800031E0012D2FD101201421304A0B23CDE964
:10199000002102902A220146202000F01AFA22E0BB
:1019A000A37962792AA104A801F074F9012D0CD160
:1019B00001201421254A0B23CDE9002102902A227F
:1019C0000146202000F005FA0DE0012E0BD1012088
:1019D00014211D4A0B23CDE9002102902A22014641
:1019E000202000F0F6F90120202304AA1021009005
:1019F000062000F08FFC0020049005900690E0780F
:101A0000431CA078421C15A104A801F043F9012051
:101A10000C2304AA02210090002000F07BFC00F0BF
:101A2000B3FA07B0F0BD0000B4B002008CB0020001
:101A300064B002003CB0020014B0020025303264F1
:101A40003A25303264000000DCB00200F0B0020041
:101A500025303264202530326400000025303264A5
:101A60002D2530326400000000B58BB0142106A88B
:101A7000FDF71AFC00F076F904A86DDF142106A822
:101A8000FDF712FC9DF8140000909DF815309DF8AC
:101A9000162024A106A801F0FDF89DF81100009081
:101AA0009DF812309DF813201EA10DF1210001F0C8
:101AB000F1F8012014211F4A1223CDE900210290E0
:101AC0003F220221184600F084F9012012211A4A0F
:101AD0000B46CDE9002102903F2202211E2000F09A
:101AE00078F901200E21154A1223CDE90021029038
:101AF0003F220221292000F06CF901200C2306AAC4
:101B0000122100900A2000F005FC01200C230DF1A9
:101B100021021C2100900A2000F0FCFB00F034FAA6
:101B20000BB000BD253032583A253032583A2530B6
:101B300032580000B4B50200C8B50200DAB50200A0
:101B40003EB5044600F00EF90120A021214A1B23D6
:101B5000CDE900210290402201460D2000F039F924
:101B600042F21070844208D31020052322461E2121
:101B700000900E2000F084FB29E0B4F57A7F08D3B2
:101B80001020042322461E210090122000F078FB32
:101B90001DE0642C08D31020032322461E21009050
:101BA000162000F06DFB12E00A2C08D3102002234F
:101BB00022461E2100901A2000F062FB07E0102050
:101BC000012322461E210090084600F059FB00F038
:101BD000DBF93EBD04B1020070B504465D480078F3
:101BE00000F00100002869D05A48C0780D2864D25E
:101BF000DFE800F007171C21263544635356595D72
:101C0000600055480078C0F3820353480078C0F361
:101C100040025148007800F001012046FFF73CFEE9
:101C20004BE04E490868FFF78BFF46E04B49888838
:101C3000FFF780FB41E04949C888FFF71DFB3CE006
:101C400047484068002804DA45484068401C444939
:101C500048604349898808B2FFF7B2FB2DE040484D
:101C60000068002804DA3E480068401C3C490860CF
:101C70003B49098808B2FFF74DFC1EE038488068F0
:101C8000002804DA36488068401C354988603449A9
:101C9000098908B2FFF756FD0FE0FFF7EFF90CE0F6
:101CA000FFF7DEFC09E00020FFF762FA05E0FFF72E
:101CB00091FA02E0FFF7BEFA00BF07E02548C078BE
:101CC000092802D1FFF7CCFC00BF00BF21480078F3
:101CD000C0F3400040B31F4800780121C1EB9000E1
:101CE0001C49097860F387011A4801700078800860
:101CF000D0B91848C0780C2807D01648C0780B28EF
:101D000003D01448C07808280FD1124D6D78AB0865
:101D1000104D6D78C5F340020E4D6D7805F0010150
:101D20000C4DA87800F094FD12E000F025F8094869
:101D3000007820F00200074908700846007820F07B
:101D4000010008700846C078092801D00020C8703A
:101D500070BD0000B06B0020BA2700209849002019
:101D60002081002010B54FF4C0710248FDF79CFAA5
:101D700010BD0000D86F002010B500218D2000F0AC
:101D8000FBFA0021102000F0F7FA0021AE2000F04D
:101D9000F3FA172005F0CAFF162005F0C7FF1A2036
:101DA00005F0C4FF182005F0C1FF1E2005F0BEFF9E
:101DB00010BD10B500F04DF800218D2000F0DCFAC8
:101DC0000021142000F0D8FA0021AF2000F0D4FA4E
:101DD00010BD2DE9F84F06460C461F46DDF828B029
:101DE000DDF83080009400252EE01BF805904FF0C0
:101DF000000A23E009F0800028B14246214630461F
:101E000000F004FA0AE0B8F1000F01D1012000E06F
:101E1000002002462146304600F0F8F94FEA4960BA
:101E20004FEA1069601CC4B2BC4203D1009C701C14
:101E3000C6B206E00AF1010000F0FF0ABAF1080F8D
:101E4000D8DB00BF681CC5B20B988542CDDBBDE86E
:101E5000F88F10B5172005F0A4FF162005F0A1FF9C
:101E60001A2005F09EFF182005F09BFF1E2005F0AC
:101E700098FF1A2005F0F8FF642004F0F7FF1A20FD
:101E800005F0C6FF642004F0F1FF1A2005F0ECFF16
:101E90000021AE2000F070FA0021084600F06CFA34
:101EA0000021122000F068FA0021402000F064FABE
:101EB0000021812000F060FA0021CF2000F05CFAC0
:101EC0000021A12000F058FA0021C82000F054FAA7
:101ED0000021A62000F050FA0021A82000F04CFAC2
:101EE00000213F2000F048FA0021D32000F044FAFE
:101EF0000021084600F040FA0021D52000F03CFA0D
:101F00000021802000F038FA0021D92000F034FAB6
:101F10000021F12000F030FA0021DA2000F02CFA44
:101F20000021122000F028FA0021DB2000F024FA22
:101F30000021402000F020FA0021202000F01CFAAF
:101F40000021022000F018FA00218D2000F014FA80
:101F50000021142000F010FA0021A42000F00CFA57
:101F60000021A62000F008FA0021AF2000F004FABA
:101F70000021AF2000F000FAFFF7F4FE0021084630
:101F800000F0C0F810BD000070B500F027F8002484
:101F90001EE004F1B201C8B2002100F0EDF9002109
:101FA000084600F0E9F90021122000F0E5F90025CB
:101FB0000AE005EB4501084A02EB4101085D0121F9
:101FC00000F0DAF9681CC5B2402DF2DB601CC4B227
:101FD000062CDEDB70BD0000D86F002010B5E2B02B
:101FE0000020002100BF09E000EB400202AB03EB40
:101FF0004202002313609380421CD0B24028F3DBDE
:10200000002064E000215EE0C1F13F0202EB4202E9
:102010003B4B03EB4203C0F105029A5C01EB410329
:1020200002AC04EB43031A5401EB410202AB03EB95
:102030004202125C01929DF80420D3099DF8002011
:1020400063F3000200929DF8042093099DF800209C
:1020500063F3410200929DF8042053099DF800208B
:1020600063F3820200929DF8042013099DF800207A
:1020700063F3C30200929DF80420D3089DF800206A
:1020800063F3041200929DF8042093089DF8002049
:1020900063F3451200929DF8042053089DF8002038
:1020A00063F3861200929DF804209DF8003062F3DD
:1020B000C71300939DF8002001EB410304EB430399
:1020C0001A544A1CD1B240299EDB421CD0B20628C9
:1020D00098DB00200FE000EB4002094B03EB4202CB
:1020E00000EB400302AC04EB43031C6814609B88C4
:1020F0009380421CD0B24028EDDB62B010BD0000DE
:10210000D86F002070B504460D4605F1B201C8B283
:10211000002100F031F904F12001C1F3031141F075
:102120001000002100F028F904F00F0141F0010037
:10213000002100F021F970BD2DE9F05F80460F46C7
:1021400014461D46BB46A4F12000C4B2002650E050
:102150000C2D07D104EB4400284901EB800010F856
:10216000069016E0182D07D104EB4400244901EB3A
:10217000C00010F806900CE0202D05D1214800EB9E
:10218000441010F8069004E01F4800EB041010F80B
:1021900006904FF0000A26E009F0800028B1394689
:1021A00040460A9A00F032F809E00A9808B901207E
:1021B00000E0002002463946404600F027F84FEA8A
:1021C00049604FEA1069781CC7B2A7EB0B00A84220
:1021D00005D15F4608F1010000F0FF0806E00AF1B2
:1021E000010000F0FF0ABAF1080FD5DB00BF701C38
:1021F000C6B2AE42ACDBBDE8F09F0000DC27002099
:1022000040320020283B0020502C0020F0B514461E
:1022100000253F2801DC2F2900DDF0BD0B46CF173C
:1022200001EB5777C7F3C702CF1701EB5777FF10C2
:10223000A1EBC707FEB20123B340DDB274B100EBDE
:1022400040030E4F07EB43039B5C2B4300EB40071F
:10225000DFF828C00CEB4707BB540DE000EB400350
:10226000064F07EB43039B5CAB4300EB4007DFF8F3
:102270000CC00CEB4707BB5400BFCEE7D86F002063
:102280002DE9FF4F81B0074691461E460E9D4FF047
:10229000000A002439E0301B401EC1B20A2005F0BC
:1022A00098FFB9FBF0F00A21B0FBF1F201FB120834
:1022B000BAF1000F16D1701EA04213DDB8F1000F65
:1022C0000ED10120AB4605EBDB71491001FB047117
:1022D0000090C8B22B4620220299FFF72DFF12E092
:1022E0004FF0010A0120AB4605EBDB71491001FB01
:1022F00004710090C8B208F13001CAB22B460299AD
:10230000FFF71AFF00BF601CC4B2B442C3DB05B0C4
:10231000BDE8F08F2DE9F84304460E4615461F46EA
:10232000DDF8208023E0402C03DD002406F11000BE
:10233000C6B2302E04DD002004460646FFF712FD2B
:10234000CDF800802A783B4631462046FFF7F4FE60
:102350000C2F02D1A01DC4B208E0202F03D104F13C
:102360000A00C4B202E004F10800C4B26D1C28786F
:102370000028D8D1BDE8F88370B504460E461EB1DA
:10238000182005F071FD02E0182005F041FD1E2027
:1023900005F03EFD002513E0172005F039FD04F09F
:1023A000800018B1162005F05FFD02E0162005F050
:1023B0002FFD172005F058FD6006040E681CC5B2FD
:1023C000082DE9DB1E2005F04FFD1E2005F020FD45
:1023D00070BD000010B54FF4807004F02EFD60B1A8
:1023E0004FF4807004F032FD012004F039FD01202B
:1023F0000B494870002002F025FB4FF4827004F076
:102400001CFD58B14FF4827004F020FD022004F04E
:1024100027FD01200249887002F014FB10BD000066
:102420004C9F002010B50020094908600021094890
:10243000C0F84411C0F84811C0F84C1100200549FB
:10244000C1F8000102493C39086008F031F910BDBB
:102450004011014000100140FEB54FF4827005F0BC
:10246000D1FD002835D04FF4827005F0D5FD7948B4
:1024700090F82B0018B1774890F82C0048B3002052
:102480008DF8000073484068019072480189ADF8EA
:102490000810C06820B900206E4981F829000FE0BB
:1024A0006C48C0686B4948600846808A08810020F3
:1024B000C860084690F82B0010B9002005F0CEFD4A
:1024C00064480168684688470020624981F82C000A
:1024D00000BF604890F82B0000286CD04FF480704B
:1024E00005F090FD002866D04FF4807005F094FD53
:1024F0005848C08AB0B957480089564991F82A10FF
:10250000401A5449C8820A4612890B46DB8AD21AFD
:102510000B465B6803EB42000A4692F82A1005F06E
:1025200025FD41E04B48C08A4A4991F82A1088426B
:1025300016DD4848C08A474991F82A10401A454993
:10254000C8820A4612890B46DB8AD21A0B465B68A0
:1025500003EB42000A4692F82A1005F007FD23E03B
:102560003C48C08A3B4991F82A1088420FD139482B
:10257000C06860B10120374981F82C000020C88272
:102580000A4692F82A10D06805F0F0FC0CE03148B9
:10259000C08A304991F82A10884205D101202D497E
:1025A00081F82C000020C8824FF4827005F034FDC1
:1025B000042005F053FD4FF4887005F023FD78B139
:1025C0004FF4887005F028FD0020224981F8290089
:1025D00002208DF80000084601686846884700BF61
:1025E0004FF48A7005F00EFD40B14FF48A7005F08B
:1025F00013FD0020174981F829002AE015480569D4
:1026000024E0B5FA85F64FF00040F0408543B00075
:1026100000F58C74204605F0F5FCB8B1204605F0B5
:10262000FBFC01208DF80000A4F58C70C0F3C700FE
:102630008DF80400A4F58C70012121EA90018DF839
:102640000510044801686846884700BF002DD8D1AE
:1026500000BFFEBDF89F002010B5034C2146034883
:1026600003F02AFE10BD0000D89F0020003000407B
:102670001FB50F4B0FCB8DE80F001D208DF8030009
:102680001C208DF8020004208DF8010003208DF835
:10269000000000BF074A6946074805F0AFF9044645
:1026A00024B100BF204601F001F800BF00BF1FBDEC
:1026B00070B90200BDA1020068B90200F8B5044675
:1026C0000D4618480021016041600020164908703D
:1026D00044F08000154908705620487002201449C3
:1026E00008701449087000BF084600780D4B009030
:1026F0000F4802780D49104805F01EFA064626B12B
:1027000000BF304600F0D2FF00BF00BF00E020BF96
:10271000054800780028FAD002484078287001481F
:102720004078F8BDC46B0020BB6B0020BC6B002060
:10273000CD6B0020CC6B002068B9020010B50848B2
:1027400005F010FA1D2005F0FDFA1C2005F0FAFA3C
:10275000042005F0F7FA032005F0F4FA10BD00009C
:1027600068B90200F8B504460D461548002101601D
:10277000416000201349087013480470457002201E
:102780001249087000201249087000BF08460078FE
:102790000B4B00900D4802780B490E4805F0CCF920
:1027A000064626B100BF304600F080FF00BF00BFE4
:1027B00000E020BF034800780028FAD00120F8BDCF
:1027C000C46B0020BB6B0020BC6B0020CD6B0020D5
:1027D000CC6B002068B9020010B507F00BFE10BDED
:1027E00070B50A48006868B1084800688047044628
:1027F00000BF254625B100BF284600F057FF00BFA7
:1028000000BF01E003F0FCFC70BD0000906C0020F4
:1028100010B50446204600F0D5F90149086010BD06
:10282000D827002030B5094CA070647861F300040B
:10283000064D6C702C46647862F341046C702C4633
:10284000647863F387046C7030BD0000B06B0020C7
:1028500030B5094CE070247861F30004064D2C700B
:102860002C46247862F341042C702C46247863F3C0
:1028700087042C7030BD0000B06B00203EB50446CC
:10288000607958B9A07948B9E07938B90020194978
:102890000860194908601749C88088801548006891
:1028A00015490968884224D0124800680290002027
:1028B0000090019001208DF8000005208DF80100A6
:1028C0009DF80B008DF802009DF80A008DF80300BA
:1028D0009DF809008DF804009DF808008DF80500AA
:1028E00006216846FDF7FCFA0248006802490860C4
:1028F00000BF3EBD98490020F04900200148024930
:10290000086070470090D003A86C002010B502F05A
:10291000FDFD28B18D480088C0F304208C49086073
:1029200002F048FE10B18B488B49486702F06AFEFE
:1029300030B18648E0380068C0F34230874908600B
:1029400002F08AFE28B18648006820F08070844931
:10295000086002F099FE48B10020824908604FF0FB
:102960008041C1F810017D49091F086002F0B6FEE0
:1029700018B1032079496431086002F0C7FE68B1DC
:1029800005207949086001207749783108600020E6
:102990007549083108603F20091F086002F0CEFE2B
:1029A000002855D06948E0300068704908606748E1
:1029B000E4300068091D08606448E8300068091DBB
:1029C00008606248EC300068091D08605F48F0301C
:1029D0000068091D08605D48F4300068091D086042
:1029E0005A48F83000686149203108605748FC3087
:1029F0000068091D08605E480068091D08605C48A1
:102A0000001D0068091D0860594808300068091D4C
:102A1000086057480C300068091D086054481030A1
:102A20000068524940310860514814300068091D5F
:102A300008604F4818300068091D08604C481C3079
:102A40000068091D08604A4820300068091D0860B8
:102A500002F032FD30B13D48CC38006800F04F0044
:102A60004449086002F07CFD40B14348006800F032
:102A7000010018B16FF001003F49086002F0B2FD9B
:102A800028B13E48006840F480603C490860344802
:102A90007438006840F4700031497439086000BF30
:102AA00000BF00BFBFF34F8F00BF00BF00BF00BF1C
:102AB00000BF00BFBFF36F8F00BF00BF00BF304833
:102AC000006800F00100E0B301202E49086000BF5B
:102AD0002D4800680028FBD02948006820F001003C
:102AE0004FF01021C1F80C0200BF274800680028F1
:102AF000FBD000202349086000BF2348006800285D
:102B0000FBD000BF00BF00BF00BF00BFBFF34F8FAF
:102B100000BF00BF00BF1248F038006800F4E0605A
:102B20001A490843001D0E49F039086000BF00BF74
:102B300000BFBFF34F8F00BF00BF00BF00BF00BF8B
:102B4000FDE7FFE7FFF7DAFE10BD000024030010E9
:102B5000403501400DF0ADBA00C007403C050040D3
:102B6000FCED00E00C0100401056004020C5004084
:102B700024040010E40E0040000400403C17004014
:102B80000C12001004E5014000E401400000FA05C9
:102B900002480068401C014908607047D82700209F
:102BA00010B50648007F20B10449054808F020F818
:102BB00003E00249024807F07AFF10BDB89F0020E9
:102BC000002000402DE9F0470446A0796179C1EB6F
:102BD000011100EB8100C0EB0010E17901EB8008EE
:102BE000E778A0784FFA80F920E020884FF4C87188
:102BF00090FBF1F201FB120070B12088642190FB80
:102C0000F1F201FB120048B12688F01706EB907034
:102C10008010A6EB800008B9012000E00020824669
:102C200009F0FF0104F097F8384487B2A9F10100D8
:102C300040B2B0F10009D8DA25881BE04FF4C87122
:102C400095FBF1F201FB125169B1642195FBF1F2A0
:102C500001FB125151B12846E91705EB917189101A
:102C6000A5EB810111B94FF4B77101E040F26D118C
:102C700039448FB2681E80B2054640F2B271884274
:102C8000DCDA40F2A320784308EBC0184046BDE8E8
:102C9000F08700000FB4084B10B504A902AA0398EE
:102CA00000F080F8044602A9002000F0ACFA2046AB
:102CB00010BC5DF814FB00000732020000B52DEDDA
:102CC000048BB0EE409AF0EE609A83B051EC190B91
:102CD000FCF70FFD41EC180B18EE100A18EE901AD5
:102CE0008DED008B002818BF0120084320F0004024
:102CF000C0F17F6000F1E040C00F14D019EE101A4F
:102D000019EE900A8DED009B002918BF01210843A0
:102D100020F00040C0F17F6000F1E040C00F04BF30
:102D2000012000F039F8B0EE480A03B0F0EE680A6E
:102D3000BDEC048B00BD02E008C8121F08C1002AC8
:102D4000FAD170477047002001E001C1121F002A2C
:102D5000FBD170470146202908DA012088400A4A41
:102D6000104008B1012070470020FCE7402909DA33
:102D7000A1F12000012202FA00F008B10120F2E7DF
:102D80000020F0E70120EEE7FC06FFBC00BFEFF3F8
:102D90001081084672B6704701490860704700000C
:102DA000AC6C00202DE9FF4F8DB00F460546002684
:102DB00006E025280BD0DDE90F1290476D1C761C2C
:102DC00028780028F5D111B03046BDE8F08F0024F6
:102DD000A246A1460122EC4900E0044315F8013F58
:102DE000203B02FA03F00842F7D128782A2810D0B5
:102DF0006FF02F022878A0F13001092914D80AEBCE
:102E00008A0102EB410144F0020400EB010A6D1C4F
:102E1000F0E701CF5FEA000A03D544F40054CAF199
:102E2000000A44F002046D1C28782E2817D115F8EA
:102E3000010F44F004042A280ED06FF02F022878E6
:102E4000A0F1300109290AD809EB890102EB4101FF
:102E500000EB01096D1CF2E757F8049B6D1C287804
:102E60006C280FD006DC4C2817D068280DD06A28B3
:102E700014D104E0742810D07A280FD10DE044F466
:102E800000140AE044F4801401E044F4401469782A
:102E9000814202D104F580146D1C6D1C2A786E2AC3
:102EA0001FD00CDC632A31D004DC002A8BD0582AD6
:102EB00011D1A3E0642A68D0692A0CD165E0732A95
:102EC0002ED004DC6F2A73D0702A04D19BE0752ABF
:102ED0006FD0782A6ED01046DDE90F129047761C2D
:102EE00050E1C4F30250022806D0032809D0042878
:102EF00001CF09D0066045E101CFF117C0E90061BB
:102F000040E101CF06803DE106703BE117F8040B7C
:102F10008DF8000000208DF80100EB46012003E051
:102F200057F804BB4FF0FF3061074FF0000102D4A7
:102F30000DE008F10101884649450FDA8045F8DBCC
:102F40001BF808100029F4D108E008F101018846B7
:102F50008142FADB1BF808100029F6D1DDE90F23C6
:102F6000AAEB08008146214600F036F9304400EB18
:102F7000080604E0DDE90F121BF8010B9047B8F1D9
:102F80000108F7D221464846F7E00A21C4F302536C
:102F90004FF0000B0891022B04D001CFC117032B77
:102FA00009D00AE0FF1D27F00707F7E8020108E053
:102FB00032E01FE020E000B2C117042B01D140B283
:102FC000C117031E71F1000307DA4FF0000CD0EBBC
:102FD0000C006CEB01012D2302E0230504D52B230B
:102FE0008DF82430012303E0E30701D02023F7E725
:102FF000984658E00A2110E010210EE010204FF012
:10300000000B08900CE010214FF0000B44F004047A
:103010004FF00809089103E008214FF0000B0891D8
:10302000C4F30253022B04D001CF0021032B06D09E
:1030300006E0FF1D27F00707F7E8020103E080B272
:10304000042B00D1C0B24FF0000823072BD5702A03
:1030500007D0DDF820C08CF0100C5CEA0B0C05D01A
:103060000EE040238DF82430012308E050EA0103EC
:1030700006D030238DF824308DF825200223984681
:10308000DDF820C08CF0080C5CEA0B0C0BD150EA88
:10309000010301D1630706D530238DF824304FF0AA
:1030A0000108A9F10109582A04D038A20B9208AAF4
:1030B0000A920BE03AA2F9E75B46089AFCF754FA49
:1030C0000B9B9B5C0A9A521E0A92137050EA0102F3
:1030D000F2D10A98ADEB000000F1200B600702D599
:1030E00024F4803401E04FF00109D94502DDA9EB59
:1030F0000B0000E0002000EB0B0141440890AAEB1C
:10310000010AE00306D4DDE90F232146504600F012
:1031100063F806444FF0000908E009A911F8090016
:10312000DDE90F12904709F10109761CC145F4DB76
:10313000E0030CD5DDE90F232146504600F04CF8A2
:10314000064404E0DDE90F1230209047761C089910
:10315000481E08900029F5DC08E00A980A990078D2
:10316000491C0A91DDE90F129047761CBBF1000162
:10317000ABF1010BF1DC21465046DDE90F2300F0F5
:1031800019F806446D1C1BE6092801003031323362
:103190003435363738396162636465660000000093
:1031A000303132333435363738394142434445467D
:1031B000000000002DE9F041044600251E46174698
:1031C000880404D405E039462020B0476D1C641EF5
:1031D000F9D52846BDE8F0812DE9F04104460025E7
:1031E0001E469046C80301D5302700E020278804FA
:1031F00004D505E041463846B0476D1C641EF9D53C
:103200002846BDE8F0810A68531C0B6010707047B7
:103210000246002104E0505C08B101207047491CBF
:103220000629F8D30020F9E710B504466CB1084828
:103230000068A04209D806484068A04205D320464D
:1032400003F09FF808B1012010BD0020FCE700004A
:10325000D06C00202DE9FC41044688461646002526
:1032600037880020308094F82D0058B13A46314616
:10327000404600F013FF054600BF15B12846BDE8E3
:10328000FC8100BFA07850B13A463146404600F07C
:10329000EBFA054600BF0DB12846F0E700BFE07825
:1032A00060B1E17848B23B463246414602F026FB27
:1032B000054600BF0DB12846E1E700BF606868B170
:1032C000616891F900003B463246414607F0D4FB65
:1032D000054600BF0DB12846D1E700BF2089002870
:1032E0000EDD43460622022104F10800CDE9006705
:1032F00007F07CFD054600BF0DB12846BFE700BFC3
:10330000208A00280EDD43460722032104F1100025
:10331000CDE9006707F06AFD054600BF0DB12846FC
:10332000ADE700BF208B00280EDD43461522142197
:1033300004F11800CDE9006707F058FD054600BF0D
:103340000DB128469BE700BF206A58B13B46324684
:103350004146206A01F003FC054600BF0DB1284636
:103360008DE700BF207858B13B46324641462046A3
:1033700003F002FD054600BF0DB128467FE700BF00
:10338000606A58B13B4632464146606A03F02CF908
:10339000054600BF0DB1284671E700BF94F82C0028
:1033A00000280BDD3B4632464146204606F058FDDC
:1033B000054600BF0DB1284661E700BF28465EE71D
:1033C00070B504461448FFF723FF0546012C06D0CC
:1033D000022C0BD0032C10D0042C1AD113E00F4870
:1033E000407810B10DB1012070BD00BF0B4880784E
:1033F00010B10DB10220F7E700BF0848C07808B14E
:103400000320F1E700BF0548007908B10420EBE78D
:1034100000BF0020E8E70000E56B0020349C00209E
:103420000146481C052290FBF2F302FB1300C0B2D8
:10343000704738B5684602F011FB044600BF2546C8
:1034400025B100BF284600F031F900BF00BF009849
:1034500060B9032000F0E8FB044600BF254625B113
:1034600000BF284600F022F900BF00BF38BD01466A
:10347000C87800F0040008B9072070470020FCE776
:1034800030B5AFB00020089009900A903C48006821
:1034900001909DF807008DF823009DF806008DF837
:1034A00024009DF805008DF825009DF804008DF896
:1034B000260001208DF82000324800788DF8210088
:1034C000304800798DF8220041F61E50ADF8140006
:1034D00008A907910B20ADF81800382121A8FBF7A7
:1034E000E3FE02208DF8840000208DF8860006207F
:1034F0008DF8870005A82A90234802F065FD41F663
:103500001E50ADF80800204904910620ADF80C00CB
:10351000382113A8FBF7C8FE02208DF84C000020CC
:103520008DF84E0002A81C90382113A8FBF7BCFEB2
:103530000120ADF85C001549189120210BA8FBF77C
:10354000B3FE01208DF82F004FF448700F904FF418
:10355000F050109000200E4B0BAA13A9009021A848
:1035600000F068FA044600BF254625B100BF284692
:1035700000F09CF800BF00BF002077DF2FB030BD07
:103580009849002074710020C4270020C027002023
:10359000E981020010B5002407E00749096811F825
:1035A0003400012103F050FF641C04480078844279
:1035B000F3D3002010BD0000386C00203C6C0020CC
:1035C0002DE9F84306460C461746052F02D2072080
:1035D000BDE8F88304F03CF838B904F00BF8054670
:1035E00000BF0DB12846F3E700BF16480660164835
:1035F00004701648076000201549086015490860E6
:1036000015E006EBC40814480068009098F8020022
:103610008DF8010098F80000104A694603F070FF29
:10362000054600BF0DB12846D2E700BF00BF201EEF
:10363000A4F10101CCB2E4D1094A0021094800F00B
:1036400043F8C5E7386C00203C6C0020406C00203B
:10365000446C0020486C0020E4BA02005160020073
:10366000B9500200E0BA020000BF00BF00BF00BFB7
:1036700000BFBFF34F8F00BF00BF00BF0948006805
:1036800000F4E06008490843001D0649086000BFD7
:1036900000BF00BFBFF34F8F00BF00BF00BF00BF20
:1036A00000BFFDE70CED00E00000FA053EB5044662
:1036B000002000900190029002946A46002144F29A
:1036C0000100FFF7D1FF3EBD10B503460C4600BF19
:1036D0000B48406808B9082010BD00BF0AB9072090
:1036E000FAE70BB90720F7E71868007C08B1082053
:1036F000F2E71968002008744C744A6100BFEBE7D8
:103700004C6C00202DE9F04107460D4614461E463C
:10371000204600F0030109B9012100E0002111B9A0
:103720000720BDE8F0810CB90720FAE705F044FF57
:1037300011480660002011490870487008468570DD
:10374000446000200E4908600E4908700E49087058
:103750001420FDF7BFFC06211420FDF7F5FC142012
:10376000FDF7D0FC384605F0FDFE05F0F5FE0749F3
:1037700008600020D5E70000686C00204C6C002039
:10378000546C0020646C0020656C0020586C002094
:103790002DE9F04104460E461746254600BF104865
:1037A000406810B90820BDE8F08100BF0CB90820BE
:1037B000F9E7052E01D20720F5E7686908B9082066
:1037C000F1E7687C012801D1304600E00020804606
:1037D0003B4642463146284606F0A6FEE3E7000097
:1037E0004C6C002070B50446254600BF0848406870
:1037F00008B9082070BD00BF0CB1686908B908207D
:10380000F8E7002028740221284606F0BCFEF1E704
:103810004C6C002010B50446204606F05BF910BD44
:1038200070B5044625460E488068B0B1ADB9FFF7C3
:10383000ADFA06460A4800680A4908600848406828
:103840004FF0E021C1F804010020054988601EB94D
:1038500000BF62B600BF00BF00BF00BF70BD000068
:1038600000A3002000E100E0F8B505460C4617462D
:103870002088001DB84201D90C20F8BD684679DFC8
:10388000064600BF0EB13046F7E700BF032021888F
:1038900068542088401C2080192021886854208882
:1038A000401C208020884119BDF8000007F02CFA48
:1038B0002188084420800020DFE700000246DFED79
:1038C000320AB0EE600A002008E002EB8003D3ED7C
:1038D000000A70EE800AB0EE600A401C8842F4DBF9
:1038E0002A48D0ED000AF8EEE00A80EE201AB0EE89
:1038F000410AF2EE000AB4EEE00AF1EE10FA04DB3F
:10390000DFED230AB0EE600A3CE0F1EE0C0AB4EE03
:10391000E00AF1EE10FA0BDBF2EE000AB4EEE00A78
:10392000F1EE10FA04D2DFED1B0AB0EE600A29E0D6
:10393000F1EE000AB4EEE00AF1EE10FA0BDBF1EE64
:103940000C0AB4EEE00AF1EE10FA04D2DFED120A2E
:10395000B0EE600A16E0F0EE080AB4EEE00AF1EE0E
:1039600010FA0BDBF1EE000AB4EEE00AF1EE10FA09
:1039700004D2F0EE000AB0EE600A03E0DFED070AC1
:10398000B0EE600A7047000000000000A44900206B
:103990009A99894033335340333313406666A63FC8
:1039A0002DE9F04192B080460D461F2011901090F5
:1039B000B8F1000F17D04046FFF759FD044600BF8D
:1039C0001CB1204612B0BDE8F08100BF11AA08A9C1
:1039D0004046FFF73FFC044600BF0CB12046F1E72C
:1039E00000BF08AE02E0002600201190ADB12846CD
:1039F00006F067FC044600BF0CB12046E2E700BFBA
:103A000010AA69462846FFF725FC044600BF0CB102
:103A10002046D7E700BF6F4602E000270020109045
:103A2000BDF84000C3B2BDF84400C1B23A463046CA
:103A300072DFC7E72DE9F04704460F4615461E46DC
:103A4000DDF8208004B115B90E20BDE8F087012013
:103A500048490870002048490870202229464748F4
:103A6000FBF709FC464806604648C0F800804FF660
:103A7000FF704549088045480021016081808171BF
:103A800038214348FBF710FC207841490870A078A2
:103A90008870E078C87060784870D4E90402C1E9A1
:103AA00004020846D4E90212C0E90212D4E906125F
:103AB000C0E90612606AD8B13648354948623649CD
:103AC0008160606A00883249496A0880606A80883B
:103AD0002F49496A8880002005E0616A8968095C8D
:103AE0002D4A1154401C2A49496A89888142F4D8D8
:103AF000A06A20B329492A4881602549886227495C
:103B00002348806A8160A06A80882149896A888008
:103B1000A06A00881E49896A0880002005E0A16A21
:103B20008968095C1D4A1154401C1949896A8988B1
:103B30008142F4D894F82C00154981F82C00206AB1
:103B400058B1184812490862206A4088096A4880BA
:103B5000206A00880E49096A0880606810B10C4923
:103B60006068486039460A48FFF71AFF81464846B0
:103B70006BE70000E06B0020E36B0020349C00202A
:103B8000F46B0020F86B0020F06B0020E46B002049
:103B9000549C00208C9C0020989C0020C49C0020F9
:103BA000B89C0020EC6B002010B50446208810283B
:103BB00004D0112806D01B280CD107E0204604F0C1
:103BC00095FD08E0204604F09BFE04E0204604F04A
:103BD000D9FF00E000BF00BF10BD000070B5054672
:103BE000022D02D0032D15D100E000BF0B48007854
:103BF00078B10020094908700948007800F014F8ED
:103C0000044634B10748006818B1204605490968E0
:103C1000884700E000BF00BF70BD0000E16B0020DE
:103C2000E36B0020F86B00207FB505464D48007817
:103C300010B9082004B070BD4B48057001F079FE42
:103C400020B10120494908700020F3E748480021CD
:103C50000160818081714748407818B142480078FE
:103C600001280DD04348807818B13F4800780128DA
:103C700006D04048807888B13B48007802280DD1B2
:103C80003D48006838B101203C49087008203A4995
:103C90000968884702E00020384908702846FFF785
:103CA0008FFB3149087034480068C0B1084600787D
:103CB000032803D008460078042810D12D48007846
:103CC00068B12F48007850B900202E4908700120B3
:103CD0002D490870072028490968884702E000201C
:103CE00029490870002000900190029003908DF8FF
:103CF00000008DF808001C48007805281CD2DFE879
:103D000000F01703080D1200684606F031F904466A
:103D100013E0684606F03CF904460EE0684606F0FB
:103D20004DF9044609E0684606F078F9044604E0D7
:103D300000201649087000E000BF00BF0A48007864
:103D400028B1684673DF04460CB1204672E70A4882
:103D5000006820B10D4800780749096888470020AD
:103D600068E70000E06B0020E36B0020E16B0020BF
:103D7000E46B0020349C0020F46B0020EB6B0020EF
:103D8000FC6B0020FE6B0020FD6B0020E26B00202E
:103D900070B505461C2229461248FBF76CFA002034
:103DA00011490870286850B1104829680A680260F3
:103DB000496841607ADF04463CB1204670BD0B483B
:103DC0007BDF04460CB12046F8E74FF6FF70084948
:103DD0000880002007490870074A00210748FFF7BC
:103DE00073FCEBE7E49C0020146C0020006C0020C6
:103DF0000A6C0020086C002015AD020080BA020099
:103E000010B504462088102806D0112808D01228A2
:103E10000ED0502810D107E0204604F045FC0CE0FD
:103E2000204604F01BFD08E0204604F0C7FE04E035
:103E3000204604F02DFC00E000BF00BF10BD0000D4
:103E400010B50449897D034A527D01EA020005F05C
:103E500003FF10BD209D002070B504462088102867
:103E600004D011281DD01A2840D11EE005F0B0FA68
:103E7000A08805F041F920B900BF0420FFF716FC27
:103E80000EE0E07B022801D1012000E00020054681
:103E9000A2882B461649A1F1120005F0EDFE00BFE5
:103EA00024E0A08805F0B6FA20E0207A0121B1EBE9
:103EB000101F01DA012000E000200346A2880C490F
:103EC000491CA1F1130005F0D7FE207A0221B1EBC5
:103ED000101F01DA012000E000200346A2880449F7
:103EE000891CA1F1140005F0C7FE00BF00BF70BD22
:103EF000369D002070B5044600250B48017D224602
:103F0000001D05F071FE60B10748817D2246001D4D
:103F100005F06AFE06460EB1022000E001200546CB
:103F200000BF284670BD0000209D002010B504464B
:103F300000BF0CB90E2010BD00BF00BF06480078BE
:103F4000012801D00820F6E700BF04480168204698
:103F500005F0B4FAEFE70000246C0020186C002094
:103F60000146002200BF09B90E20704700BF0020A3
:103F7000054B18600120054B18700020044B186099
:103F8000044801601046F0E7206C0020246C0020FB
:103F90001C6C0020186C002070B505460C4600BF54
:103FA00005B970BD00BF00BF04B9FAE700BF00BF8C
:103FB00013480078012800D0F3E700BF20881128BB
:103FC00015D0302804D0322807D0332814D109E086
:103FD000211D284604F028FD0FE0211D284604F08D
:103FE000ADFA0AE0211D284604F0C8FB05E0211DBA
:103FF000284604F0A3FC00E000BF00BF00BFD0E7EC
:10400000246C00202DE9F04104460D4600BF14B990
:104010000E20BDE8F08100BF00BF1C4800780128D9
:1040200001D00820F5E700BF1948006808B908204A
:10403000EFE794F8A70108B11120EAE7A4F8AA5124
:1040400000201449086084F8A80184F8A60194F8B7
:10405000A601C0EBC00000EB800004EB400794F821
:10406000A6010D4901EB8000006838603A46012145
:10407000284694DF064600BF0EB13046C9E700BFB0
:10408000012084F8A7010020C3E70000246C002071
:10409000206C00201C6C0020549D00202DE9FC4168
:1040A00005460C46174620880930B84202D90C2034
:1040B000BDE8FC8168466DDF064600BF0EB13046A4
:1040C000F6E700BF0820218868542088401C208023
:1040D0001B20218868542088401C20802088284488
:1040E000DDF801100160BDF8051081802088801D79
:1040F00020809DF80000400818B9002021886854ED
:1041000002E00120218868542088401C2080002083
:10411000CEE70A782AB1012A02D0022A02D102E0AF
:1041200001E000E000BF00BF7047000070B586B03E
:1041300004460E46234B0FCB01AD0FC500BF14B98B
:104140000E2006B070BD00BF00BF0EB90E20F8E70C
:1041500000BF1D4804604FF6FF70A08030682061EA
:1041600000202075A073214601A863DF054600BF2B
:104170000DB12846E5E700BF20788DF81600012034
:10418000ADF81400A21C05A9A0DF054600BF0DB1C3
:104190002846D6E700BF3146204605F0F3FA05462B
:1041A00000BF0DB12846CCE700BF012002F0F2FFAE
:1041B000054600BF0DB12846C3E700BF03F06CF809
:1041C0000020BEE794BA0200286C002070B50546B6
:1041D0000C4600BF05B970BD00BF00BF04B9FAE7C7
:1041E00000BF2088102806D0112809D0502811D0EF
:1041F000512814D109E02146284604F074FA0FE052
:104200002146284604F04EFB0AE02146284604F0E9
:104210004BFC05E02146284604F019FD00E000BFF4
:1042200000BF00BFD7E7000070B504462046FFF787
:1042300013FEA5882846FFF75DFE0646012E11D124
:10424000204604F08DF82046FFF7AEFC2046FFF72D
:10425000D7FD21461348FFF7B9FF2146124800F069
:1042600049F91EE0022E02D020881D2819D120888D
:10427000112802D0204603F0CFFF022D07DA6B2170
:1042800069430A4A02EB81002146FFF785FE214679
:10429000074800F053F82088112802D1204603F087
:1042A000BBFF70BD6C6D0020506D0020B4980020E5
:1042B000A498002010B5034600BF0BB90E2010BD16
:1042C00000BF59802AB15488DC8010889880948877
:1042D0001C810020F3E7000070B586B004460D464F
:1042E000154B0FCB01AE0FC600BF14B90E2006B0A0
:1042F00070BD00BF00BF0DB90E20F8E700BF21461A
:1043000001A863DF064600BF0EB13046EFE700BFED
:1043100020788DF816000120ADF814004FF6FF70DC
:1043200060802868E0600020A0800021218105A82D
:10433000FFF7FCFDDBE70000A4BA02007FB50446EE
:104340000D4604B105B97FBD60884FF6FF71884204
:1043500004D06088A988884200D0F4E72888112812
:1043600006D0392816D12946204604F0F0FA11E08B
:10437000A888618888420CD1E06850B103208DF88C
:1043800000004FF6FF70608069462046E268904763
:1043900000BF00BF00BF00BFD5E72DE9FF410646C3
:1043A0000C460020009001900290039004F10E074B
:1043B000207800283BD1A088012838D1A079317815
:1043C000884234D1002522E005EB450037F8200073
:1043D000022802D0032817D107E005EB450007EBC0
:1043E00080000189ADF80E100FE005EB450007EBEA
:1043F00080000089ADF80A0005EB450007EB80005E
:104400004189ADF80C1000E000BF00BF6D1C207AA0
:10441000A842D9D8F06848B16088ADF80200012000
:104420008DF8000069463046F268904700BFBDE84D
:10443000FF8110B5044600BF0CB90E2010BD00BFAF
:1044400060884FF6FF71884201D0E08808B90820E3
:10445000F4E7E1886088012200F010FAEEE700003E
:1044600070B586B004460E46214B0FCB01AD0FC58B
:1044700000BF14B90E2006B070BD00BF00BF0EB95A
:104480000E20F8E700BF4FF6FF70A0823068A061F1
:104490000020A075214601A863DF054600BF0DB1CD
:1044A0002846E8E700BF20788DF816000120ADF817
:1044B0001400A21C05A9A0DF054600BF0DB12846C7
:1044C000D9E700BF3146204605F0C1F8054600BFD8
:1044D0000DB12846CFE700BF3146204606F045FA29
:1044E000054600BF0DB12846C5E700BF0020C2E762
:1044F00084BA020070B505460C4605B104B970BD1A
:104500002088102804D0112807D050280FD109E0A6
:104510002146284604F0E4F80AE02146284604F043
:10452000BDF905E02146284604F06EFB00E000BF1F
:1045300000BF00BFE3E737B584B004460D4600BFB7
:1045400014B90E2007B030BD00BFA08A4FF6FF712E
:10455000884201D0A07D08B90820F3E7BDF8180013
:10456000142801DD0720EDE7002000900190029063
:104570000390A089ADF80000039506A802900120E1
:104580008DF80200A08A6946A6DFDBE770B5044615
:10459000204606F0B3FB054605F0010070BD0000A3
:1045A00070B588B029480068079000BF00235022EA
:1045B000274907A805F0A2FD054600BF2E4626B1F3
:1045C00000BF3046FFF772F800BF00BF00BF6A4669
:1045D0000121084605F072FD044600BF254625B1BD
:1045E00000BF2846FFF762F800BF00BF0220ADF809
:1045F00000001720ADF81000684605F04BFD04469A
:1046000000BF254625B100BF2846FFF74FF800BF81
:1046100000BF104805F032FD044600BF254625B115
:1046200000BF2846FFF742F800BF00BF0A4805F068
:10463000B9FD044600BF254625B100BF2846FFF757
:1046400035F800BF00BF08B070BD0000E0AF020049
:10465000006D0020294202009FA3020070B50446AD
:104660000D460C2C7AD1002D79D17948007800F0D4
:104670000100002874D07648C0780D2816D2DFE8F3
:1046800000F007162534475A707F8EC0C0A0B000D6
:104690000A23012200210846FEF7C4F80A2301225A
:1046A00011461046FEF7D4F8FCF7A6F9A9E00A2354
:1046B000012200210846FEF7B5F80A23012211461F
:1046C0000220FEF7C5F8FCF797F99AE00A230122C9
:1046D00000210846FEF7A6F80A230122114603200E
:1046E000FEF7B6F8FCF788F98BE06FF00200594945
:1046F00048600A23012200210846FEF793F80A23A6
:10470000002201210420FEF7A3F8FCF775F978E0F8
:104710006FF002004F4908600A2301220021084679
:10472000FEF780F80A23002201210520FEF790F809
:10473000FCF762F965E06FF00200464988600A23E1
:10474000012200210846FEF76DF80A23002201210C
:104750000620FEF77DF8FCF74FF952E076E074E0B2
:1047600050E00A23012200210846FEF75BF80A23E5
:10477000012211460720FEF76BF8FCF73DF940E0F7
:104780000A23012200210846FEF74CF80A230122E1
:1047900011460020FEF75CF8FCF72EF931E02C4EB4
:1047A0007678B3082A4E7678C6F34002284E76789B
:1047B00006F00101264EB078FEF74AF8FCF71CF926
:1047C0001FE0234B5B78C3F34002214B5B7803F07F
:1047D00001011F4B98780A23FEF73AF8FCF70CF911
:1047E0000FE01B4B5B78C3F34002194B5B7803F07F
:1047F0000101174B98780A23FEF72AF8FCF7FCF81A
:1048000000BF21E014480078C0F34010E0B9FDF784
:10481000D0FA0F48C07809280ED00A2301220021BF
:104820000846FDF7FFFF0A23012211460020FEF78C
:104830000FF8FCF7E1F807E00A23012211460920EE
:10484000FEF706F8FCF7D8F800BF00BF70BD000007
:10485000B06B002020810020BA27002010B5002472
:104860004FF4A47201210448FEF7AAFE044614B9CD
:10487000FEF790FE044610BD0CB002007FB5064660
:104880000C4615468DF80C5000208DF80D00064A98
:1048900007CA8DE80700ADF8024003A802906946F8
:1048A00030469CDF04B070BDB4BA02004FF0FF3157
:1048B000054A42F82010082804DBFF23A0F1080174
:1048C0005032535470470000609F00200146024858
:1048D00050F8210070470000609F00202DE9F04F44
:1048E00003460C464FF0FF390AB1002000E00820D3
:1048F00084460AB1082000E00C208046614624E08E
:10490000154850F82100401CF0B91D4608462746BE
:1049100016464FFA80FBDFF840A00AF1300A0AF889
:1049200005B0DFF834A04AF820704EB94FFA85FB85
:10493000A0F1080ADFF820E00EF1500E0EF80AB0E0
:1049400000BF4FFA81F902E0491C4145D8D300BFAE
:104950004846BDE8F08F0000609F002001460148F6
:1049600040567047909F0020F8B504460E4694F8D4
:10497000A601C0EBC00000EB800004EB400594F8FA
:10498000A501B8B194F8A521521ED1B294F8A62180
:10499000C2EBC20202EB820204EB420501EB4103CF
:1049A00005F10A0202EB83000289521C92B2ADF8B3
:1049B000002002E0E888ADF800002889ADF8020088
:1049C0006946304696DFF8BD014639B10448884251
:1049D00004D80448884201D9012070470020FCE730
:1049E000B06C0020E06C00200A49496A81B1094995
:1049F000096A084A02EBC1010160114691F82010D2
:104A0000491C01F0030111621146496A491E5162B5
:104A100070470000D4A400200178022902D0017858
:104A200003290BD106490A6A817D1144044A1162A7
:104A300011464A6A817D511A014A5162704700004D
:104A4000D4A4002070B505460DB9094C01E0084C0E
:104A5000083409E0204601F09CFC064606B904E053
:104A600028467168884700BFF4E700BF70BD0000AA
:104A7000549F00202DE9F04782461F480068002817
:104A800036D01D480068056804F066FD07461B48DF
:104A900004682146384605F08BFCC61C184800788F
:104AA00008B904F06BFDAE4201D2284600E0304662
:104AB000044424F07F44204604F048FD04F04CFDFB
:104AC00080463946404605F073FC00F1030939463B
