:020000040007F3
:10300000905D002049340700513407005334070015
:1030100055340700573407005934070000000000FA
:103020000000000000000000000000005B3407000A
:103030005D340700000000005F34070061340700C2
:103040006334070063340700633407006334070008
:1030500063340700633407006334070063340700F8
:1030600063340700633407006334070063340700E8
:1030700063340700633407006334070063340700D8
:1030800063340700C1480700633407006334070056
:10309000914907006334070095490700633407002E
:1030A00063340700633407006334070063340700A8
:1030B00063340700633407000000000000000000D4
:1030C0006334070063340700633407006334070088
:1030D0006334070063340700633407000000000016
:1030E00000000000000000000000000000000000E0
:1030F00000000000000000000000000000000000D0
:1031000000000000000000000000000000000000BF
:1031100000000000000000000000000000000000AF
:10340000DFF80CD000F0B4F80048004799690700D5
:10341000905D0020056885F308884068FF2464B249
:10342000EFF30585002D01D1A64600472546064647
:1034300021273FBAF0B40024002500260027F0B46D
:10344000F92040B200470000064880470648004780
:10345000FEE7FEE7FEE7FEE7FEE7FEE7FEE7FEE744
:10346000FEE7FEE7B949070001340700202A04DB24
:10347000203A00FA02F1002070479140C2F1200387
:1034800020FA03F319439040704740EA01039B0779
:1034900003D009E008C9121F08C0042AFAD203E0C9
:1034A00011F8013B00F8013B521EF9D27047D2B22D
:1034B00001E000F8012B491EFBD270470022F6E71D
:1034C00010B513460A4604461946FFF7F0FF20469A
:1034D00010BD421C10F8011B0029FBD1801A704757
:1034E00030B504460020034600E05B1C934203D243
:1034F000E05CCD5C401BF8D030BD034611F8012BD9
:1035000000F8012B002AF9D1184670472DE9F05F29
:103510000546002092469B46884606468146402442
:103520001BE0284641464746224600F033F8534602
:103530005A46C01A914110D3114618462246FFF749
:1035400095FF2D1A67EB01084F4622460120002106
:10355000FFF78CFF17EB00094E41201EA4F1010478
:10356000DFDC484631462A464346BDE8F09F00006E
:10357000064C074D06E0E06840F0010394E80700C0
:1035800098471034AC42F6D3FFF73EFF94AF0700E4
:10359000B4AF0700202A04DB203A21FA02F0002110
:1035A000704721FA02F3D040C2F120029140084353
:1035B000194670472DE9F0438BB08046129D15F9EE
:1035C000046B009614461F4689462B4602A81146F6
:1035D000424600F0B6FC02A80146129A00F0A1FC97
:1035E0004046414602AA129B00F08BFC2046214631
:1035F00002AA129B00F085FC2B46384639464A4603
:10360000009600F09EFC02A83946129A00F089FC50
:1036100002A8014642462B46009600F092FC02A802
:10362000014622462B46009600F08BFC20462146A0
:1036300042462B46009600F084FC48464946224606
:10364000129B00F05EFC2046414602AA2B460096E3
:1036500000F077FC384639462246129B00F051FCB8
:10366000384639464A462B46009600F06AFC20460A
:1036700002A9324600F02FFE0BB0BDE8F083F0B592
:1036800089B01C4607460E461546684611461A463E
:1036900000F047FC384639466A46234600F031FCC4
:1036A000684669462A46234600F02BFC30463146E0
:1036B0006A46234600F025FC09B0F0BD1AB1013A74
:1036C0008B5C8354FAE770472DE9F0478846B3F9DD
:1036D00002101F460825CB1D202493FBF5F51F3152
:1036E000954291FBF4F44FFA84F928BF154606463B
:1036F000494600F071FA2A4630464146FFF7DEFFA0
:10370000B7F90230ED009D4220D9ED1A06EB840195
:1037100000228E420AD251F8040D20FA05F3134319
:103720000B60C5F1200300FA03F2F2E724373846B4
:1037300031464A4600F05CFA012807D0304631464F
:103740003A464B46BDE8F04700F01ABFBDE8F087A7
:103750002DE9F04793F9006092B00446894610467F
:1037600031461546984600F06DFA002840F09780E3
:1037700002A84946424600F0D4FB43460AA8214627
:1037800002AA00F0BEFB02A80146424600F0C9FBB7
:103790004346484649462A4600F0B3FB08F1040771
:1037A00028462946424600F0BCFB204621462A46D0
:1037B0003B46009600F0F4FA284629462A463B4646
:1037C000009600F0EDFA284621462A463B46009630
:1037D00000F0B7FB204621462A46434600F091FB05
:1037E0002846214622463B46009600F0D9FA20465C
:1037F0003B46009621462A4600F0D2FA2368DB07B2
:10380000204613D5334621463A4600F0B9F93146F1
:103810008246204600F052FD06F18043013B54F8F9
:10382000230040EACA7044F8230002E0314600F069
:1038300045FD28462146424600F073FB28462946AE
:103840000AAA3B46009600F07CFB284629460AAAB5
:103850003B46009600F075FB0AA801462A463B4607
:10386000009600F06EFB204621460AAA434600F06F
:1038700048FB02A802463B462146009600F061FB49
:1038800020462946324600F026FD28464946324663
:1038900000F021FD484602A9324600F01CFD12B09E
:1038A000BDE8F08700487047E4AE07002DE9F04F0F
:1038B000EFB01E46789C059023780493B4F902304B
:1038C00092461F33202293FBF2F3DBB206939DF95D
:1038D000187094F9012007F1FF3926AB002543F851
:1038E00029506EAB03EB89034EA88B46314643F853
:1038F000805C43F8605CFFF7E1FE94F9012056A874
:10390000B118FFF7DBFE9DF910604EA8314600F0BC
:1039100099F98046002840F02F8156A8314600F0E2
:1039200091F90546002840F0258104F1240840461D
:103930004EA93A4600F05CF9012840F01D8140464E
:1039400056A93A4600F054F90128089040F0148135
:103950003B461EA856A9424600F03BFA0DF1380C32
:1039600060465946524623464CF82950CDF80CC0C3
:10397000FFF7AAFEDDF80CC00097604661461EAA5C
:103980004346CDF824C00DF5BC7900F0A8FA4346B3
:10399000009716A84EA91EAA00F0A1FA4846324682
:1039A000059900F098FCB300039309EB030B039A0D
:1039B000059B58469918324600F08DFC04F14403EB
:1039C0001946324636A8079300F085FC04EB8601C1
:1039D00032463EA8443104F1040A00F07CFC49461A
:1039E00000961EA836AA534600F0ABFA4A465B463C
:1039F00036A83EA90094FFF7DDFD1EA80146334618
:103A0000524600F0E6F91EAA484659462346FFF7FB
:103A100036FEDDF824C0079B0B936046059B0C9394
:103A20003946CDF814C00A95CDF8349000F024FC46
:103A30003946054616A800F01FFCA842B8BF284624
:103A400085B2DDF814C06F1E3FB26046394600F003
:103A5000C7FD394610F1000916A818BF4FF001093B
:103A600000F0BEFD002814BF0223002343EA090929
:103A70000DF1280B32465BF8297026A8394600F074
:103A80002AFC039B3246F9182EA800F024FC31468C
:103A90001EA800F0A1F8023D089B1E93AEB237B2FB
:103AA000002F44DB23461EAAD4F8A45026A82EA932
:103AB000A84739460EA800F093FD3946051C16A804
:103AC00018BF012500F08CFD002814BF022300233D
:103AD0001D430AAB53F8257037B39DF9105036A833
:103AE00039462A4600F0F7FB039B3EA8F9182A4600
:103AF00000F0F1FB36A83EA91EAA2346FFF7BFFD42
:103B000046A826A936AA5346009500F01AFA36A808
:103B10003EA926AA2EAB0094FFF74CFD1EA8014635
:103B200046AA234600F0EDF9013EB6B2B7E79DF98B
:103B300010501EA8014652462B4600F04AF9234673
:103B400026A82EA91EAAFFF79AFD9DF91840404607
:103B500026A9224600F04CF8012805D026A80146E7
:103B60004246234600F00CFD26A84EA92A4600F046
:103B700054F802E0404600E028466FB0BDE8F08F00
:103B8000C3F10803DB0070B501330446002003A530
:103B90005B1920C940CAAD1920C4184720C940CAC2
:103BA000754120C420C940CA754120C420C940CAFB
:103BB000754120C420C940CA754120C420C940CAEB
:103BC000754120C420C940CA754120C420C940CADB
:103BD000754120C4404170BD10B5002253B28B42E4
:103BE00005DA1BB2002440F823400132F6E710BD8D
:103BF00010B5013AD2B253B2002B09DB1BB250F818
:103C0000234051F823309C4204D8F2D2FF2002E036
:103C1000002000E0012040B210BD013A30B5D2B220
:103C2000002453B2002B09DB1BB2013A51F8235098
:103C300050F823306B401C43D2B2F2E7B4FA84F060
:103C4000400930BD10B500231A465CB28C4204DA3C
:103C500050F8244001332243F7E7B2FA82F04009DA
:103C600010BD00002DE9F043A3B09846019112ABBE
:103C70004146074610469146009300F0FDFAC0EB1E
:103C8000881086B2454C33B21C40002CBEBF04F1F4
:103C9000FF3464F01F040134202593FBF5F5EDB2E9
:103CA0006DB2A4B202A8294624B2FFF795FF28B24C
:103CB00002AB002C03EB800010DD002213464345CD
:103CC00010D259F8235005FA04F10A4340F8232092
:103CD000C4F1200225FA02F20133F0E749464246D8
:103CE00000F0F9FA0FFA88F502AB4FEA4509012412
:103CF00003EB8505330444D40022114653B24B45EF
:103D000022DA0DF1880E0EEB840E0DF1880C18B23C
:103D10005EF888EC0CEB83035EF820E053F8803CFF
:103D2000C3EB0E035B1A734502D08CBF0121002147
:103D3000C4F1010E0DF1880C0CEB8E0E01325EF811
:103D400088EC4EF82030D9E7621A544202A8414666
:103D5000544100F0B3FA22AA08F1FF3302EB8303C7
:103D600002EB8802284652F8801C53F8802C013E52
:103D700042EAC172414643F8802CB6B200F09EFA86
:103D8000B8E722AB03EB8404384654F8881C42465B
:103D900000F0A1FA23B0BDE8F08300BF1F0000804F
:103DA00070B59DF910401D4623460646FFF7E8FE14
:103DB00030B9284631462246FFF71AFF012807D0BE
:103DC000304631462A462346BDE8704000F0D8BB55
:103DD00070BDF0B50646A1B00F4608461946154617
:103DE0001C46FFF72FFF20B130462146FFF7F4FEB7
:103DF00073E068463946224600F06DFA08A8294665
:103E0000224600F068FA10A82146FFF7E5FE0123DC
:103E100018A821461093FFF7DFFE684608A922463E
:103E2000FFF7E6FE002853D0009BDA0704D468466B
:103E3000214600F043FA26E0089BDB0704D408A8DB
:103E4000214600F03BFA3DE000281EDD08AA23468B
:103E50006946684600F094FB6846214600F02EFA59
:103E600010A818A92246FFF7C3FE002805DA10A8FB
:103E700001462A462346FFF783FE10A8014618AAEA
:103E8000234600F07DFB10A81DE008A86A462346E3
:103E9000014600F075FB08A8214600F00FFA18A8AB
:103EA00010A92246FFF7A4FE002805DA18A801464B
:103EB0002A462346FFF764FE18A8014610AA2346A7
:103EC00000F05EFB18A82946224600F06BFCA4E730
:103ED000304610A9224600F0FEF921B0F0BD70B5C1
:103EE00090B006469DF950401D466846234600F0B6
:103EF0003AF8304669462A462346FFF7B3FE10B02B
:103F000070BD30B51C4691B0054693F90030684647
:103F100000F029F8D4F8AC3028466946984711B02B
:103F200030BD30B5144691B0054692F90020684680
:103F300000F0DEF9D4F8AC3028466946984711B055
:103F400030BD70B59DF910401D462346064600F071
:103F500017FB38B1304631462A462346BDE870404B
:103F6000FFF70EBE70BD2DE9F04F08B4F8CA04B4D7
:103F700051F8042BA3FB028940F8048B4FF0000A90
:103F8000E4FB629A4FF0000BE5FB62AB4FF0000CD4
:103F9000E6FB62BC4FF0000EE7FB62CE51F8042B4B
:103FA0004FF00008E3FB628940F8048BE4FB629A5F
:103FB000E5FB62ABE6FB62BCE7FB62CE51F8042B8B
:103FC0004FF00008E3FB628940F8048BE4FB629A3F
:103FD000E5FB62ABE6FB62BCE7FB62CE51F8042B6B
:103FE0004FF00008E3FB628940F8048BE4FB629A1F
:103FF000E5FB62ABE6FB62BCE7FB62CE51F8042B4B
:104000004FF00008E3FB628940F8048BE4FB629AFE
:10401000E5FB62ABE6FB62BCE7FB62CE40F8049BCB
:1040200040F804AB40F804BB40F804CB40F804EB84
:104030000CBC052B00F01E810C68A0F11400A1F14E
:104040001401A2F1140252F804EB4FF0000550F8ED
:10405000046BE4FB6E5652F804EB50F8047BE4FB6F
:104060006E6752F804EB50F8048BE4FB6E7852F85C
:1040700004EB50F8049BE4FB6E8952F804EB50F813
:1040800004ABE4FB6E9AA0F1140052F8044B51F813
:1040900004EB4FF0000CE4FB6EC540F804CB51F884
:1040A00004EBE4FB6E5640F8045B51F804EBE4FBD0
:1040B0006E6740F8046B51F804EBE4FB6E7840F84F
:1040C000047B51F804EBE4FB6E8940F8048B51F853
:1040D00004EBE4FB6E9AA0E80006062B00F0CA8011
:1040E0000C68A0F11800A1F11801A2F1180252F811
:1040F00004EB4FF0000550F8046BE4FB6E5652F8E9
:1041000004EB50F8047BE4FB6E6752F804EB50F8C4
:10411000048BE4FB6E7852F804EB50F8049BE4FB4C
:104120006E8952F804EB50F804ABE4FB6E9A52F837
:1041300004EB50F804BBE4FB6EABA0F1180052F89E
:10414000044B51F804EB4FF0000CE4FB6EC540F853
:1041500004CB51F804EBE4FB6E5640F8045B51F8D5
:1041600004EBE4FB6E6740F8046B51F804EBE4FBEE
:104170006E7840F8047B51F804EBE4FB6E8940F85C
:10418000048B51F804EBE4FB6E9A40F8049B51F861
:1041900004EBE4FB6EABA0E8000C072B6AD008B47C
:1041A0000C68A0F11C00A1F11C01A2F11C0252F844
:1041B00004EB4FF0000550F8046BE4FB6E5652F828
:1041C00004EB50F8047BE4FB6E6752F804EB50F804
:1041D000048BE4FB6E7852F804EB50F8049BE4FB8C
:1041E0006E8952F804EB50F804ABE4FB6E9A52F877
:1041F00004EB50F804BBE4FB6EAB52F804EB50F850
:1042000004CBE4FB6EBCA0F11C0052F8044B51F847
:1042100004EB4FF00003E4FB6E3540F8043B51F82B
:1042200004EBE4FB6E5640F8045B51F804EBE4FB4E
:104230006E6740F8046B51F804EBE4FB6E7840F8CD
:10424000047B51F804EBE4FB6E8940F8048B51F8D1
:1042500004EBE4FB6E9A40F8049B51F804EBE4FB9A
:104260006EAB40F804AB51F804EBE4FB6EBCA0E885
:10427000001808BCBDE8F08F0139C9B24BB2002B61
:104280000BDA013111F0FF0315D059B201F180436F
:10429000013B50F82320002304E050F82330002B8A
:1042A000EAD0EEE712B152080133FBE7481E03EBF8
:1042B000401080B200E0184600B2704700EB810168
:1042C0000023884206D251F8042D43EA52030B60C2
:1042D000D307F6E7704730B5002463B2934206DA9D
:1042E0001BB2013451F8235040F82350F5E730BD9C
:1042F0002DE9F04FB1E8005E06B4AAFB09124FF0B9
:104300000003EBFB69234FF00004ECFB69344FF032
:104310000005EEFB69454FF00006EBFB6A63ECFB22
:104320006A344918524176415B41A9FB09784FF044
:10433000000949F1000918EB0108A0E88001AAFB77
:104340000A78574158EB0608A0E88001EEFB6A4561
:104350004FF0000A4AF1000A4FF00001ECFB6B1429
:10436000EEFB6B454FF00002EEFB6C255FEA59094E
:104370004941644152416D4149F10009EBFB6B3AFF
:104380001AEB010AA0E80804ACFB0C6A66415AEB80
:10439000020AA0E84004AEFB0E6A6E415AEB090A1D
:1043A000A0E8400406BC052A00F0E680A0F1140055
:1043B000A1F11401B1E8E043A5FB0E344FF0000574
:1043C000E6FB6E454FF00006E7FB6E564FF0000728
:1043D000E8FB6E674FF00008E9FB6E784FF00009CC
:1043E000DB1864416D4176417F4158EB080859F173
:1043F000000950F804CB13EB0C0350F804CB54EB3A
:104400000C0450F804CB55EB0C0550F804CB56EBDC
:104410000C0650F804CB57EB0C0758F1000859F183
:104420000009A0F11400EEFB0E89A0E8F803062AAB
:1044300000F0A280A0F11800A1F11801B1E8E04756
:10444000A5FB0E344FF00005E6FB6E454FF000066D
:10445000E7FB6E564FF00007E8FB6E674FF0000871
:10446000E9FB6E784FF00009EAFB6E894FF0000A15
:10447000DB1864416D4176417F4158EB080859EBE8
:1044800009095AF1000A50F804CB13EB0C0350F859
:1044900004CB54EB0C0450F804CB55EB0C0550F84E
:1044A00004CB56EB0C0650F804CB57EB0C0750F836
:1044B00004CB58EB0C0859F100095AF1000AA0F19D
:1044C0001800EEFB0E9AA0E8F807072A54D0A0F1D6
:1044D0001C00A1F11C01B1E8E04FA5FB0E344FF028
:1044E0000005E6FB6E454FF00006E7FB6E564FF009
:1044F0000007E8FB6E674FF00008E9FB6E784FF0AD
:104500000009EAFB6E894FF0000AEBFB6E9A4FF050
:10451000000BDB1864416D4176417F4158EB080880
:1045200059EB09095AEB0A0A5BF1000B50F804CB6E
:1045300013EB0C0350F804CB54EB0C0450F804CBF1
:1045400055EB0C0550F804CB56EB0C0650F804CB99
:1045500057EB0C0750F804CB58EB0C0850F804CB81
:1045600059EB0C095AF1000A5BF1000BA0F11C0099
:10457000EEFB0EABA0E8F80FBDE8F08F00000000E6
:10458000C3F10803DB0070B50133002403A500BFAD
:104590005B1920C940CAAD1B20C0184720C940CABA
:1045A000B54120C020C940CAB54120C020C940CA79
:1045B000B54120C020C940CAB54120C020C940CA69
:1045C000B54120C020C940CAB54120C020C940CA59
:1045D000B54120C06441B4FA84F0400970BD00BF09
:1045E0004A11012301F01F0150F822008B401840AE
:1045F00070470000F0B50C4689B008220646FFF768
:104600006AFEE36A0393236B0493636B0593A36BC6
:104610000693E36B0793002769466A4608236846BA
:10462000029701970097FFF7ABFA314605466A46B5
:1046300008233046FFF7A4FA236B0393636B0493BC
:10464000A36B0593E36B0693054469466A4608230A
:1046500068460797FFF794FA314605446A460823EF
:104660003046FFF78DFA236A0093636A0193A36AC9
:104670000293A36B0693E36B0793054431466A46A6
:1046800008233046059704970397FFF779FA636A82
:104690000093A36A0193E36AA26B0293636B039393
:1046A00004920693E26B236A059205440793314610
:1046B0006A4608233046FFF763FAE36A0093236BE8
:1046C0000193636B0293236A0693A36A07930544DD
:1046D00031466A4608233046059704970397FFF74B
:1046E0004FFF236B0093636B0193A36B0293E36B08
:1046F0000393636A0693E36A07932D1A31466A4669
:104700000823304605970497FFF73AFF636B009341
:10471000A36B0193E36B0293236A0393636A04938D
:10472000A36A0593236B07932D1A31466A46082323
:1047300030460697FFF724FFA36B0093E36B0193CA
:10474000636A0393A36A0493E36A0593636B079315
:104750002D1A314630466A46082302970697FFF71E
:104760000FFF2D1A16D5304631460D4A0823FFF7A4
:1047700007FA4519F7D410E0094831460822FFF737
:1047800037FA012809D030463146054A0823FFF799
:10479000F7FE2D1A002DEFD0F5E709B0F0BD00BFF0
:1047A000E8AE0700F8B5036813F0010506460F46AA
:1047B000144605D001463A462346FFF7E1F905467F
:1047C00030462146FFF77AFD45B104F18042013AB7
:1047D00056F8223043F0004346F82230F8BD2DE968
:1047E000F04115468AB00446884602A800212022DE
:1047F000FEF766FE2E780323204641462A462F1DEB
:1048000076B20293FFF78DFB2046214602AA3B4673
:104810000096FFF796FB2046214642462B46FFF7BF
:1048200070FB00962046214605F184023B46FFF7C7
:10483000B7FA0AB0BDE8F08100F01F0201219140F3
:104840004009800000F1E020C0F88012704700F0BD
:104850001F02012191404009800000F1E020C0F8D2
:104860000011704700F01F020121914040098000B3
:1048700000F1E020C0F8001270474907090E002837
:1048800006DA00F00F0000F1E02080F8141D7047F8
:1048900000F1E02080F8001470470000BFF34F8F54
:1048A00005480168054A01F4E06111430160BFF366
:1048B0004F8F00BFFDE700000CED00E00400FA059B
:1048C00007480021C0F84011C0F84411C0F8481151
:1048D000C0F84C11C0F80011C0F8041105F03CBF3D
:1048E000001001402DE9F047114F0446DDF82090FB
:1048F00038781D461646884608B900F0ABF9386985
:10490000A04211D90A4904EB440001EBC00134B1C3
:10491000C1F81880C1E9076500208862486200205C
:10492000C1F82C90BDE8F0874FF0FF30FAE70000A7
:10493000183D002070B50E46144900EB400001EB15
:10494000C0051446E86A183520B101280FD00228A6
:1049500005D113E0284600F0B1F9A04201D20024AD
:1049600011E022463146284600F0E0F90BE02846E7
:1049700000F0A4F9A042F4D20446F2E731462846FA
:1049800000F0A7F90446204670BD0000183D002045
:1049900005F05ABE074810B5406830B1804700287E
:1049A00007D0BDE8104000F079BDBDE8104001F02F
:1049B000D9BE10BD842C0020F0B598480023021DFC
:1049C00001780125101D4FF08056062907D1147873
:1049D000240704D10478C4F30314032C02D006295D
:1049E00004D00FE08F4F8E4C7C670EE014782407C4
:1049F00008D10478C4F30314032C06D0042C04D08B
:104A0000052C02D0062907D00EE0D6F84442864F86
:104A1000C4F342343C6002E01478240704D10478E3
:104A2000C4F30314032C02D0062906D011E07F4CF6
:104A3000276827F0807727600EE01478240708D1D4
:104A40000478C4F30314032C06D0042C04D0052CE2
:104A500002D006290AD011E04FF08044C4F80C318E
:104A6000C4F81031704C241F236002E0147824072E
:104A700004D10478C4F30314032C02D0062905D012
:104A80000CE0694F032464373C600AE01478240783
:104A900004D10478C4F30314032C02D006290DD0EA
:104AA00014E0634F05243C60614C78342560604C11
:104AB000083423603F243F1D3C6002E01478240743
:104AC00004D10478C4F30314052C02D0062957D06E
:104AD00068E058490968584A11605649091D096833
:104AE000121D1160534908310968121D11605149A6
:104AF0000C310968121D11604E4910310968121DF0
:104B000011604C4914310968121D1160494918316E
:104B10000968494A2032116046491C310968121D52
:104B20001160444920310968121D11604149243146
:104B30000968121D11603F4928310968121D116072
:104B40003C492C310968121D11603A49303109681D
:104B5000394A40321160374934310968121D1160F9
:104B6000344938310968121D116032493C310968F5
:104B7000121D11602F4940310968121D116002E0B9
:104B8000117809070ED10078C0F30310032803D071
:104B9000042801D0052805D1D6F85802274900F08D
:104BA0004F00086021487438016841F470010160C9
:104BB000BFF34F8FBFF36F8F4FF01021D1F800027A
:104BC000002803DBD1F80402002822DA1C4A156011
:104BD0001C480468002CFCD01524C1F8004205686C
:104BE000002DFCD0C1F8044201680029FCD01360FC
:104BF00001680029FCD0BFF34F8F0C48F0380168E2
:104C0000114A01F4E06111430160BFF34F8F00BF0F
:104C1000FDE70F490D480860F0BD0000E00F00F00F
:104C20000DF0ADBA00C007403C050040FCED00E0CF
:104C3000105600400404001020C50040E40E00405F
:104C400004E5014000E401400400FA050090D003AF
:104C5000982C002010B5124C02202061606111A038
:104C6000A061A4F58260E0614FF4806020620020C2
:104C7000A06260620BA1A164E062A4F11001E16492
:104C800010212165A0656065E06509A1E01DFEF7C2
:104C900034FC08A12046FEF730FC2020A07110BD96
:104CA000183D00205465726D696E616C0000000053
:104CB0005254540053454747455200000269C168A9
:104CC0008A4203D88068401A104400E0501A401EFF
:104CD00070472DE9F047C4681746894606464FF0ED
:104CE00000083069A04201D9051B02E0B168201A12
:104CF0000D1AB0686D1E001BA84200D80546BD42C3
:104D000000D33D4670682A4620444946FEF7BDFB65
:104D1000B0687F1B2C44A844A944A04200D10024C1
:104D2000F460002FDDD14046BDE8F0872DE9F04169
:104D3000C6680446174688468068851B6068BD4281
:104D400006D93044FEF7A1FBF019E060BDE8F08120
:104D50002A463044FEF799FB7E1B08EB05013246DC
:104D60006068FEF792FBE660F0E700000FB4084BC6
:104D700010B504A902AA039800F02EF8044602A96F
:104D8000002000F05AFA204610BC5DF814FB000029
:104D90003B52070002E008C8121F08C1002AFAD1DE
:104DA00070477047002001E001C1121F002AFBD1AB
:104DB000704700000121202803DA814005480140A6
:104DC00003E0402802DA2038814009B10120704711
:104DD00000207047FC06FFBC2DE9FF4F8DB00F4649
:104DE0000546002606E025280BD0DDE90F12904786
:104DF0006D1C761C28780028F5D111B03046BDE82E
:104E0000F08F0024A246A1460122EC4900E00443B1
:104E100015F8013F203B02FA03F00842F7D1287849
:104E20002A2810D06FF02F022878A0F1300109292C
:104E300014D80AEB8A0102EB410144F0020400EBB2
:104E4000010A6D1CF0E701CF5FEA000A03D544F4C4
:104E50000054CAF1000A44F002046D1C28782E2880
:104E600017D115F8010F44F004042A280ED06FF072
:104E70002F022878A0F1300109290AD809EB89010D
:104E800002EB410100EB01096D1CF2E757F8049BAE
:104E90006D1C28786C280FD006DC4C2817D06828A9
:104EA0000DD06A2814D104E0742810D07A280FD1CC
:104EB0000DE044F400140AE044F4801401E044F4EA
:104EC00040146978814202D104F580146D1C6D1C78
:104ED0002A786E2A1FD00CDC632A31D004DC002A29
:104EE0008BD0582A11D1A3E0642A68D0692A0CD14A
:104EF00065E0732A2ED004DC6F2A73D0702A04D1A7
:104F00009BE0752A6FD0782A6ED01046DDE90F122B
:104F10009047761C50E1C4F30250022806D00328C3
:104F200009D0042801CF09D0066045E101CFF1176F
:104F3000C0E9006140E101CF06803DE106703BE140
:104F400017F8040B8DF8000000208DF80100EB46E7
:104F5000012003E057F804BB4FF0FF3061074FF02A
:104F6000000102D40DE008F10101884649450FDA3D
:104F70008045F8DB1BF808100029F4D108E008F19F
:104F8000010188468142FADB1BF808100029F6D19E
:104F9000DDE90F23AAEB08008146214600F036F92F
:104FA000304400EB080604E0DDE90F121BF8010BAA
:104FB0009047B8F10108F7D221464846F7E00A21A8
:104FC000C4F302534FF0000B0891022B04D001CF21
:104FD000C117032B09D00AE0FF1D27F00707F7E8E8
:104FE000020108E032E01FE020E000B2C117042B0C
:104FF00001D140B2C117031E71F1000307DA4FF06F
:10500000000CD0EB0C006CEB01012D2302E023051A
:1050100004D52B238DF82430012303E0E30701D0CE
:105020002023F7E7984658E00A2110E010210EE00F
:1050300010204FF0000B08900CE010214FF0000BF7
:1050400044F004044FF00809089103E008214FF0F0
:10505000000B0891C4F30253022B04D001CF0021AE
:10506000032B06D006E0FF1D27F00707F7E8020133
:1050700003E080B2042B00D1C0B24FF00008230738
:105080002BD5702A07D0DDF820C08CF0100C5CEA1C
:105090000B0C05D00EE040238DF82430012308E0EE
:1050A00050EA010306D030238DF824308DF82520F6
:1050B00002239846DDF820C08CF0080C5CEA0B0C4B
:1050C0000BD150EA010301D1630706D530238DF8D7
:1050D00024304FF00108A9F10109582A04D038A260
:1050E0000B9208AA0A920BE03AA2F9E75B46089AEB
:1050F000FEF70CFA0B9B9B5C0A9A521E0A921370E5
:1051000050EA0102F2D10A98ADEB000000F1200B49
:10511000600702D524F4803401E04FF00109D9453D
:1051200002DDA9EB0B0000E0002000EB0B01414485
:105130000890AAEB010AE00306D4DDE90F2321461B
:10514000504600F063F806444FF0000908E009A952
:1051500011F80900DDE90F12904709F10109761CE9
:10516000C145F4DBE0030CD5DDE90F2321465046B1
:1051700000F04CF8064404E0DDE90F1230209047BF
:10518000761C0899481E08900029F5DC08E00A986A
:105190000A990078491C0A91DDE90F129047761CA4
:1051A000BBF10001ABF1010BF1DC21465046DDE91A
:1051B0000F2300F019F806446D1C1BE609280100B6
:1051C000303132333435363738396162636465667D
:1051D000000000003031323334353637383941423F
:1051E00043444546000000002DE9F04104460025F7
:1051F0001E461746880404D405E039462020B047EF
:105200006D1C641EF9D52846BDE8F0812DE9F041FA
:10521000044600251E469046C80301D5302700E00D
:105220002027880404D505E041463846B0476D1C68
:10523000641EF9D52846BDE8F0810A68531C0B604E
:10524000107070472DE9FC47002517880646158029
:1052500090F82D001446894630B13A46214648461A
:1052600000F05AFB050009D1B0784FF00C0A18B3D2
:105270002088C846001DB84202D95046BDE8FC87C8
:10528000684679DF0028F9D12088032108F800104A
:1052900020881921401C80B2208008F80010208846
:1052A000401C80B2208000EB0801BDF8000005F032
:1052B000ADFA218808442080F0780222C8B1218804
:1052C00096F9033001F1030C4846BC45D5D8425449
:1052D00021884FF0010C491C89B2218000F801C0DF
:1052E0002188491C89B2218009F801302088401C9E
:1052F00020807068B8B1218890F9003001F1030C6A
:105300004846BC45B9D8425421880A22491C89B272
:10531000218042542188491C89B2218009F801303A
:105320002088401C2080308950B1CDE900474B4691
:105330000622022106F1080005F0BEFA05009DD103
:10534000308A50B1CDE900474B460722032106F1D0
:10535000100005F0B1FA050090D1308B50B1CDE9C5
:1053600000474B461522142106F1180005F0A4FA57
:10537000050083D1306A30B13B462246494600F0F1
:105380009FFC0500DBD1307838B13B4622464946C8
:10539000304601F083FB0500D1D1706A30B13B4645
:1053A0002246494601F048FB0500C8D196F82C007A
:1053B00038B13B4622464946304604F0CFFE050050
:1053C000BDD128465AE70000F0B5214D93B0287AA8
:1053D000800702D5002013B0F0BD002401268DF80F
:1053E0004A604FF65960ADF848000E940F9410943F
:1053F0000627119438216846FEF760F802208DF8E0
:10540000000012A88DF8024003908DF80370ADF8EB
:1054100008600021684600F0D7F90028DBD18DF83C
:1054200040402820ADF842008DF838400F94ADF888
:1054300044400EA873DF0028CDD1064970040860EF
:10544000122003F039FCA86840F00200A860C1E710
:10545000382C00200C0500500B46024602A101200A
:1054600003F087FDFFF71AFA4552524F523A726520
:105470006365697665642061206661756C742120BE
:1054800069643A203078253038782C2070633A20CF
:105490003078263038780D0A00000000024603A15B
:1054A000012003F05FFDFFF7F9F900004552524F6C
:1054B000523A726563656976656420616E20657233
:1054C000726F723A20307825303878210D0A00004A
:1054D0002DE9F84F254C8146924660880E46814260
:1054E00041D800274FF6FF788DF80070684600F02D
:1054F0002DF922786078A188884201DA401C00E00A
:105500000020C0B2904204D19DF8000000F042F9A2
:1055100027E065786078884201DA401C00E00020CE
:1055200060709DF8000000F035F9454519D0A0687D
:10553000B9F1000F40F835A00DD066B16188E06880
:10554000324605FB01004946FDF79FFFA06800EBCE
:10555000C500868002E000EBC50087800020BDE822
:10556000F88F0420FBE70920F9E70000502C002009
:1055700010B50E4C03E0401C00E0002020702078A5
:105580006178814210D022786188E068A36802FBCC
:10559000010003EBC20153F832208988904720783C
:1055A000A1888842E9DAE6E710BD0000502C00200F
:1055B00030B5CB0008339DB293074FF0000401D003
:1055C000072030BD044B9A602A44DA605C701C707E
:1055D00058809980002030BD502C0020084B5B681B
:1055E00023B12AB120B10068037C1BB108207047A9
:1055F00007207047002303744174426118467047C6
:10560000702C002010B50446082902D00020FFF7B6
:1056100045FFD4E90010BDE8104008471CB5044A16
:10562000CDE9000108216846FFF752FF1CBD0000CC
:10563000055607002DE9F047074698461446894667
:1056400090074FF0000526D12CB304F0DDFC134E7B
:1056500006F11000C6F80C800570457080F80290C5
:1056600044607560357075701420FFF7E5F8062109
:105670001420FFF702F91420FFF7E9F80848076043
:1056800006211120FFF7F9F80548001F0068B060F7
:105690000020BDE8F0870720FBE70000602C002019
:1056A000081501402DE9FC47DFF87890D9F804305F
:1056B00073B368B3052902D20720BDE8FC874369AC
:1056C00033B3437C012B25D00027044600258846B0
:1056D00016468DF80050684600F038F801A805F02D
:1056E000D3F8C8B1012101700F4944600968C0E9CD
:1056F0000218C0E904769DF8040089F801009DF8BD
:10570000000000F047F81420FFF7ACF82846D4E773
:105710000820D2E70F46D8E704259DF8000000F0E6
:1057200039F8F3E7702C0020041501400649496858
:1057300039B130B1416921B100210174022104F075
:10574000E7BF082070470000702C002030B5EFF351
:10575000108172B60D4A9468012324B103700029A8
:1057600000D162B630BD93604FF0E023D3F8805192
:10577000074C25401560C3F88041D3F8844154603C
:105780005A17C3F8842100220270E8E77837002016
:10579000FC06FFBC0B498A68002A11D000280FD1F3
:1057A000EFF3108072B60B684FF0E022C2F80031C0
:1057B0004B68C2F8043100228A60002800D162B62A
:1057C0007047000078370020F0B50C4693B01F21D9
:1057D0000726ADF80010ADF80410002750B1C178CD
:1057E00049070DD56A4602A9FFF72CFD002808D10C
:1057F00002AD02E00025ADF800706CB1E07810B1A8
:10580000304613B0F0BD01AA0AA92046FFF71AFDE1
:105810000028F6D10AAA02E00022ADF80470BDF813
:105820000400C3B2BDF80000C1B2284672DFE8E749
:1058300070B5054601461C220F48FDF726FE0F4CA9
:1058400000262670286830B1016861604068A06059
:10585000201D7ADF02E00948001D7BDF00280AD105
:105860004FF6FF7060806670BDE87040044A00210A
:105870000448FFF7B3BE70BD68320020242C00201E
:1058800029A8070008AB070070B51E4C0688002346
:105890001B49E289102E15D01B4D112E1CD0122E43
:1058A00029D0502E17D130F8061F914213D14189CB
:1058B000022910D10C3000F040F988B1BDE87040E9
:1058C00000F044BA84884C800469CC604069086167
:1058D0004B70002AF2D070BD4FF6FF7048804B70BD
:1058E0002868FFF723FF0028F5D0A1690029F2D02E
:1058F000BDE8704008478268CA60C0680861DDE79B
:10590000242C00206832002008AB07000148006802
:10591000FFF70CBF08AB07007CB5054608880C46AE
:105920000930904201D90C207CBD68466DDF00280B
:10593000FAD121880820685420881B21401C80B29D
:10594000208029542088401C80B220802844DDF823
:1059500001100160BDF8051081802088801D80B293
:1059600020809DF80010490800D00121295420888A
:10597000401C208000207CBD30B585B004002AD0BA
:10598000164D4FF6FF702246288001208DF8120038
:105990004FF65960ADF8100004A90120A0DF0028DF
:1059A00017D10F4B0FCB8DE80F00A11C684663DFAA
:1059B00000280ED1204600F027FD002809D12046FE
:1059C00000F0CCFA002804D1A86840F00100A860DB
:1059D000002005B030BD0E20FBE70000382C002071
:1059E00010AB070070B5184C0025A068410701D521
:1059F000002070BD40F00400A06014A1032003F05B
:105A0000ADFA204801F0DEF91FA1032003F0A6FA49
:105A10002088A0F57F41FF3904D0132176DF0500EF
:105A2000E7D10CE0207A800709D574DF0028E0D1A7
:105A3000112003F041F9A06840F00200A060FFF7D8
:105A400065FF284670BD0000382C0020576169743E
:105A5000696E6720666F7220627566666572732074
:105A6000746F20626520636C656172656420626595
:105A7000666F726520646973636F6E6E6563740D23
:105A80000A000000C0D40100446973636F6E6E6544
:105A90006374696E670D0A0000B587B0112003F0CA
:105AA00004F9122003F001F9112003F005F9122086
:105AB00003F002F9012000F045F800282BD1174827
:105AC00004F002FD002826D100F016FE002822D1A5
:105AD0001348FFF751FF00281DD11C216846FDF730
:105AE000EDFC40F6CD4001904FF480400290032041
:105AF0008DF80C000020ADF80E008DF8100009485C
:105B000006906846FFF794FE002804D107B05DF8C0
:105B100004EBFFF759BC07B000BD0000295B07008C
:105B2000D4320020495D070010B50446FFF7ACFEF3
:105B30002046BDE8104003F089BA007800F001006B
:105B40007047000000B5154989B00968079118B180
:105B500002F022FC00281ED1114A12A1032003F0FA
:105B600001FA0F4813DF002815D1144B50221449B5
:105B700007A804F045FD08B1FFF790FC01216A4633
:105B8000084604F017FD002805D11720ADF81000D5
:105B9000684604F0A3FC09B000BD00000CAB070090
:105BA00000300700766563746F72207461626C6503
:105BB0003A203078253038780D0A0000EDA507002E
:105BC00084320020002901DA002070470268114465
:105BD00001600120704710B543689C18446021B9EA
:105BE00005E013F8010B01F8010B521EF9D2012058
:105BF00010BD000038B10549814204D804498142F2
:105C000001D9012070470020704700009C2C002023
:105C1000AC2C00202DE9F05F26484168F1B3DFF895
:105C200098B00E688146DBF8004087688078E11BF9
:105C300021F07F45ED1CB0B9DFF880804FF4803053
:105C4000C8F84403C8F804031120FEF7F5FD11203D
:105C5000FEF7FDFD4FF0010AC8F800A02F2001F06B
:105C6000F7F889F802A0B54200D23546124BE81980
:105C70003C3320F07F401860DBF800105A46091BC7
:105C800021F07F41001B20F07F40C91C81420FD9C9
:105C9000106818602F2001F0DBF800E004E0BDE898
:105CA000F05F1120FEF7DEBDBDE8F05F04F0ACB997
:105CB000BDE8F09F602C0020041501400010014059
:105CC0002DE9F04117880646B81D14460D46984246
:105CD00002D90C20BDE8F0813188072206290AD3B9
:105CE0004FF4486C4FF6FF73614501D9994202D1D8
:105CF0007088062801D21046ECE7604501D9984229
:105D0000F9D1994203D0984201D08142F3D80520BD
:105D1000E85520881221401C80B220802954208818
:105D2000401C80B220804119308804F06FFD21882A
:105D3000084480B220804119708804F067FD2188F2
:105D4000084420800020C5E7FFF7A8BBF8B513483A
:105D500000F046FD114D0026114C0C3D30B161693B
:105D6000B9B101208DF80000684611E0287820B113
:105D7000616971B18DF80060F6E7687858B1A16883
:105D8000084800220068FFF78DFC10B1A16901B13D
:105D900088472E70F8BD6168F2E70000302C0020C3
:105DA0006832002008AB0700F0B54FF0FF3622B193
:105DB0001268D24300230A4D0DE03246FAE7C45C74
:105DC00062400824D70700D037462F4087EA5202A6
:105DD000641EF7D15B1C8B42F1D3D043F0BD0000B1
:105DE0002083B8EDF0B5146906468DB020681546DD
:105DF000271DE0B1022920D00A2000906B4609AA95
:105E0000304604F003F800280FD009A901A8009A31
:105E100003F0DAFE01AE96E80F0005AE86E80F004B
:105E2000236869683A4605A898470DB0F0BD0DB0E3
:105E30003046BDE8F04003F03BBF6946304603F012
:105E4000CDFE0028F1D0236869683A466846984735
:105E50000028EAD002980028F5D10198706001204E
:105E6000E3E753685B7813F0C00303D0402B03D003
:105E70000020704700F002B8FFF7B4BF2DE9FF41E2
:105E80000B465168064614464878334D00F00F0221
:105E900010F0300055F8225006D0102806D02028E7
:105EA00008D0302856D13EE022694DE061690120DA
:105EB000087047E0022B28D1042A26D84FF00108A9
:105EC00069463046676903F089FE00281AD009E068
:105ED0000B79226913FB00226846A84770B1387815
:105EE000401C3870029820B1616838784A79904235
:105EF000EED301987060029860BB02E04FF000089A
:105F0000F7E7404604B0BDE8F081D4E904300F79EA
:105F1000027817FB023349798A421BD2521C027065
:105F20001A46616810E008786169072A087009D18B
:105F3000606801792069FDF7C1FA606821698068AD
:105F400003F067FE2269616804B03046AC46BDE8E4
:105F5000F04160470020D5E770AC070010B58EB067
:105F600004461C216846FDF7A9FA142108A8FDF78C
:105F7000A5FA9DF80010002041F0180107908DF857
:105F80000010A1788DF836100121ADF834109DF87D
:105F90001C1004F10C0321F0FF018DF81C109DF87A
:105FA0001D1008AA21F00F01491C21F0F001103149
:105FB0008DF81D109DF81E1021F00601891C41F07E
:105FC00011018DF81E100DA9089107A9099117213B
:105FD000ADF82C100C9020886946A2DF0EB010BDE1
:105FE00002488168491E816070470000002C002033
:105FF0001FB5114800F15C01826B684603F0E4FDB7
:106000000E489DE80E0080E80E000C490C480E4A30
:10601000C8600C490020086048600C49074803F03C
:106020005DFB10B1012004B010BD09A1032002F0F6
:1060300095FF0020F7E700001C36002038320020D2
:10604000119A07001C2C0020AC2C00209CAA0700F1
:1060500048616E646C65723A20496E76616C696461
:106060002070726F746F636F6C2062756666657204
:106070002073747265616D0D0A0000002DE9F04710
:1060800098465FEA0209054600F104044FF0000655
:1060900028D0B8F1000F25D094F85F007D4F18B1DB
:1060A00094F86000002843D1207AD8B1E068342801
:1060B00018D100204FF44052217C11E004EB800302
:1060C000B2F80CC05B69634509D194F8250060B152
:1060D000012813D002280DD003281DD10AE0401C4E
:1060E0008142EBDC0A20BDE8F08720780028F9D057
:1060F000BE6803E020780028F4D0FE6866A133462D
:106100000320626802F035FF94F8250048B10228A8
:106110000BD003280CD108E067A1032002F01EFF7A
:10612000E0E76068B042DDD302E06068B042D9D9F0
:1061300095F870000028D5D1674866490160202194
:10614000416066A1032002F009FF388F514A83B2F3
:106150005C3258A1032002F0E7FE56A1032002F0B2
:10616000FDFE62A1032002F0F9FE1FFA88F34A4601
:1061700050A1032002F0D8FE4EA1032002F0EEFE53
:10618000554B42464946052000F098FD0028A9D10C
:10619000504805F1720195F871200E462030FDF748
:1061A00074F957A1032002F0D9FE15F8713F324669
:1061B00040A1032002F0B8FE3EA1032002F0CEFE73
:1061C000454844490838203101602A7842604FA18F
:1061D000032002F0C7FE404B3F4A083B50490420D1
:1061E00000F092FD08B105207DE74EA1032002F0EA
:1061F000B5FE394D00201C3D286194F8251041B3AF
:10620000012933D04C480229C0F5FC2027D00329AE
:1062100082D194F82C10002982D094F826100029FD
:10622000FAD0A26A216B53182B6132B329B3814291
:106230000DD8202204F13F012648FDF726F92869F0
:10624000D8B1254A0021103A01F018FDB8B1042058
:1062500049E794F834000028DED0A06B0BE094F8F6
:106260002C100029D8D0216B2961E0E794F8260092
:106270000028D1D0A06A2861DBE7032033E72FA1F3
:106280000320EA6802F06EFE34A1032002F066FEED
:10629000012028E71C360020526571207665727354
:1062A000696F6E3A2025642C2050726573656E7498
:1062B0003A2025640D0A0000556E6B6E6F776E20D4
:1062C00046572075706461746520747970650D0A95
:1062D00000000000D83100201C2C0020496E697499
:1062E00020636F6D6D616E643A0D0A00705F496ED8
:1062F000697420636F6D6D616E643A0D0A00000071
:106300005369676E61747572650D0A007369676E13
:106310006174757265206C656E3A2025640D0A0003
:1063200000AB0700496D6167652076657269666933
:1063300065640D0A000000000030070057726974A0
:106340006520616464726573732073657420746F73
:10635000203078253038780D0A000000444655205A
:1063600070726576616C696461746520535543434E
:1063700045535346554C210D0A00000010B5827854
:10638000012A01D0052010BD0C4A0CCAFFF776FE89
:106390000446012805D00AA1032002F0DFFD2046B3
:1063A00010BD0DA1032002F0D9FD10A1032002F0C1
:1063B000D5FD002002F012FBF1E700001C2C0020AC
:1063C00050726576616C6964617465204641494C20
:1063D0004544210D0A00000050726576616C6964C5
:1063E000617465204F4B2E0D0A00000053617669E1
:1063F0006E6720696E697420636F6D6D616E642EC7
:106400002E2E0D0A0000000010B58EB004461C218F
:106410006846FDF753F8142108A8FDF74FF89DF8DA
:106420000010002041F0040107908DF80010A178C1
:106430008DF836100221ADF834109DF81C1008AA12
:1064400021F0FF018DF81C109DF81D1021F00F01A7
:10645000491C21F0F00110318DF81D109DF81E101F
:1064600021F00601891C41F001018DF81E100DA9D3
:10647000089107A909911421ADF82C100C902088DF
:10648000231D6946A2DF0EB010BD0000044A09B901
:10649000002313705268002A00D010477047000094
:1064A000482C0020F8B51C4617460D46060018D0AB
:1064B000BDB1B4B100F0A2F9A8B1284600F09EF930
:1064C00088B1204600F09AF968B1FDF7EBF9009029
:1064D00023463A4629463046FDF7E8F928B1002020
:1064E000F8BD0E20F8BD1020F8BD0B20F8BD00004F
:1064F0000E4910B50A784C780023A24212D0521CE3
:10650000D2B20A70022A00D10B70084A0B781832F6
:1065100052F8232002608868104420F07F40886091
:10652000012010BD0360002010BD0000602C002081
:10653000F8B506461A481F46154600780C46C007AF
:1065400008D03046FFF756FB30B13CB1200507D0EC
:106550000620F8BD0120F8BD0220F8BD0320F8BDDB
:106560003068A04204D8716804EB0530884201D934
:106570000520F8BD7DB1684603F0DEFB68B10098E8
:106580000221C0E900670172210B8181058203F0BD
:1065900027FC0020F8BD0420F8BD0720F8BD00004E
:1065A000802C002070B50E4C06460D00206820F0AF
:1065B000010020600FD00BA1032002F0CFFC206867
:1065C00040F0020020607268002A07D02946304659
:1065D000BDE87040104720F00200F3E770BD0000F6
:1065E000442C002047656E65726174696E67206691
:1065F00061696C7572650D0A00000000034801783E
:1066000041F001010170002070470000802C002043
:106610002DE9F84307461D48DDF820801E46007826
:1066200015460C46C0070CD03846FFF7E3FA50B1C8
:106630005DB154B145EA0400800708D00620BDE8EA
:10664000F8830120FBE70220F9E70320F7E7386829
:10665000A04204D8786804EB8601884201D2052064
:10666000EDE77EB1684603F067FB68B10098012151
:10667000C0E900780172C0E90354868203F0B0FBE0
:106680000020DCE70420DAE70720D8E7802C002090
:1066900070B5174A17490446106E0B7800EB40009E
:1066A00002EBC0009D0715D5022C02D0032C1BD194
:1066B00002E002F06FFE17E04A78521CD2B24A7034
:1066C000032A11D900224A70082103F0F5FC03F0D7
:1066D0001DFB09E0580707D523F004000870526E2F
:1066E00012B140F002000870BDE8704003F040BBFA
:1066F00084370020802C002010B586B000249DF83F
:106700000000019420F00F00401C20F0F000103039
:106710008DF80000029403A86DDF00281CD19DF8BD
:106720000D00401C8DF80D0003A86CDF002813D16C
:1067300007220AA168467CDF00280DD10C20ADF8A5
:1067400004001820ADF80600ADF808404FF4C870FA
:10675000ADF80A0001A87ADF06B010BD4466755492
:1067600061726700F8B51D4C2078002834D020698C
:1067700028B10026E06820B1002526B113E00126EB
:10678000F8E70125F9E76078002825D1684648DF59
:10679000052803D020B1FEF781FE04E0012602E0C7
:1067A0002169009888479DB96078002814D16088D5
:1067B000ADF800006946A06861DF052803D020B16C
:1067C000FEF76CFE04E0012502E0D4E902018847EF
:1067D000002ED8D0002DD0D0F8BD0000842C002091
:1067E000054940880A88904204D34988884201D8E4
:1067F0000120704700207047282C0020800701D01E
:10680000002070470120704770B5054608680C46A7
:106810004A6886682846314603F01CF9606828619A
:1068200004F10C00686170780221B1EB901F01D176
:10683000241D2C6170BD00002DE9F043264CA4F10D
:1068400010092278D9F8048099F80350404694F84A
:1068500001C0D9F8086031E002EB42036168521CC4
:1068600001EBC301A378D2B2934200D100220B788E
:10687000022B02D0032B21D11DE003464F6819469D
:1068800003E0B94203D00B46C969B9B1F9E7A9B130
:106890008B4205D1C06918B9104E0125B56000269C
:1068A0000F68C969D96149B10B683B440B6005E0C9
:1068B0000174C06900E000210028F9D19445CBD1D2
:1068C000C9E9010689F80350404502D00120BDE81E
:1068D000F0830020FBE70000702C00200010014036
:1068E0002DE9F0412A4F0446002607F11005D7F89C
:1068F00004803EE002D02046E4691DE02878696803
:1069000000EB4002401CC0B201EBC2012870AA7823
:10691000904200D12E700A784868012A2BD1027C5F
:106920004ABB8A684260CA6882600A69C260496973
:106930008161F97801B146604368BA68DFF854C0F4
:10694000991A21F07F41614502D28268114406E024
:10695000D11A826821F07F418A4202D9511A01601E
:1069600000E006604660012186600174C66103F0A4
:10697000B1FE002CBED1287869788842BED17968F2
:10698000414502D00120BDE8F0810020FBE7000076
:10699000602C0020FFFF7F007CB51D4801680025AA
:1069A000B12900D10560002002F008FB19A10320E5
:1069B00002F0D4FA11241426012220460095032364
:1069C0001146019502F060F9641CB442F4D91549EE
:1069D0004FF4F0100860091D4FF4002008600323F5
:1069E000CDE9005300221020114602F04DF900F0CD
:1069F00039F908B1FEF752FD4FF44050806800F0BD
:106A00009BF809A1032002F0A9FA00207CBD000038
:106A10001C050040496E73696465206D61696E0DE7
:106A20000A000000080500504166746572206D611F
:106A3000696E0D0A0000000070B5144682880E468B
:106A400005462088111D0144921C994201D8FE2A56
:106A500001D90C2070BD521C32542088FF21401CEB
:106A600080B2208031542088401C80B2208081195F
:106A7000288803F0CBFE2188084480B22080AA88B1
:106A800042B1A96841B13044FCF7FFFC2088A988D5
:106A900008442080002070BD072070BDF8B50E4668
:106AA000017814460546012901D1687830B1208863
:106AB000821C9A422DD8012902D006E00720F8BD99
:106AC00069780144891C994223D8181A801E87B21C
:106AD000ADF800702188B01C084469467DDF0028AD
:106AE000EDD12878022805D1BDF80010B94201D8AF
:106AF00009210AE00821012805D16878B84202D8A6
:106B0000ADF8000001E0ADF80070BDF80000FE280F
:106B100001D90C20F8BD2288401CB0542088401CAC
:106B200080B2208031542088401C2080BDF80010A5
:106B3000084420800020F8BD10B50446024613A189
:106B4000032002F00FFA01F027FC08B11DA112E0AA
:106B500026A1032002F002FA4FF0E0214FF0FF30AF
:106B6000C1F88001224627A1032002F0FBF920464C
:106B700013DF28B12DA1BDE81040032002F0EEB9CB
:106B80002046BDE81040FCF745BC000052756E6E13
:106B9000696E67206E72665F626F6F746C6F61649E
:106BA00065725F6170705F7374617274207769746D
:106BB0006820616464726573733A203078253038D8
:106BC000780D0A004661696C65642072756E6E69A5
:106BD0006E67206E72665F6466755F6D62725F6974
:106BE0006E69745F73640D0A00000000446973618C
:106BF000626C696E6720696E746572727570747309
:106C00000D0A000053657474696E67205344207642
:106C10006563746F72207461626C65206261736574
:106C20003A203078253038780D0A00004661696CCA
:106C300065642072756E6E696E672073645F736F32
:106C400066746465766963655F766563746F725FA9
:106C50007461626C655F626173655F7365740D0A70
:106C60000000000010B507A1032002F077F901F041
:106C70008BFA040004D10AA1032002F06FF9204628
:106C800010BD0000496E206E72665F626F6F746C9B
:106C90006F616465725F696E69740D0A00000000BF
:106CA0004166746572206E72665F626F6F746C6F9E
:106CB000616465725F696E69740D0A0070B59CB09D
:106CC0001C4615460E46052802D006201CB070BD95
:106CD0006068202801D00920F8E7684603F00AFB25
:106CE0000028F3D12A463146684603F0C3FB00284A
:106CF000ECD101226846216803F074FA0028E5D13E
:106D0000202060600020E1E730B4042802D0062093
:106D100030BC70474868402802D15868402801D0EC
:106D20000920F5E71B68D2E9004508682A46214694
:106D300030BCFFF7B7BB000000283ED01F49204AF7
:106D4000096800BF00BF00BF00BF00BF00BF00BF99
:106D500000BF91422FD000BF00BF00BF00BF00BFE7
:106D600000BF00BF00BF00BF00BF00BF00BF00BF2B
:106D700000BF00BF00BF00BF00BF00BF00BF00BF1B
:106D800000BF00BF00BF00BF00BF00BF00BF00BF0B
:106D900000BF00BF00BF00BF00BF00BF00BF00BFFB
:106DA00000BF00BF00BF00BF00BF00BF00BF00BFEB
:106DB00000BF00BF00BF401EC3D17047982C002009
:106DC0000024F40000283ED01F49204A096800BF73
:106DD00000BF00BF00BF00BF00BF00BF00BF9142A7
:106DE0002FD000BF00BF00BF00BF00BF00BF00BF6B
:106DF00000BF00BF00BF00BF00BF00BF00BF00BF9B
:106E000000BF00BF00BF00BF00BF00BF00BF00BF8A
:106E100000BF00BF00BF00BF00BF00BF00BF00BF7A
:106E200000BF00BF00BF00BF00BF00BF00BF00BF6A
:106E300000BF00BF00BF00BF00BF00BF00BF00BF5A
:106E400000BF401EC3D17047982C00200024F400DE
:106E500000283ED01F49204A096800BF00BF00BF7C
:106E600000BF00BF00BF00BF00BF91422FD000BFD6
:106E700000BF00BF00BF00BF00BF00BF00BF00BF1A
:106E800000BF00BF00BF00BF00BF00BF00BF00BF0A
:106E900000BF00BF00BF00BF00BF00BF00BF00BFFA
:106EA00000BF00BF00BF00BF00BF00BF00BF00BFEA
:106EB00000BF00BF00BF00BF00BF00BF00BF00BFDA
:106EC00000BF00BF00BF00BF00BF00BF00BF401E2B
:106ED000C3D17047982C00200024F4002DE9F14F15
:106EE000DFF8E4804FF4405A4FF48054D8F8300073
:106EF000DAF80810D8F8245001EB000B2F1A33A150
:106F0000032002F02BF8A1464C46A74200D83C468D
:106F100000220121584600F0D9FF002852D1002359
:106F200022465846009901F0B3F800284AD122467B
:106F30005846009901F004FA060006D05A462BA1E3
:106F40000320009B02F015F83BE00022012100988D
:106F500000F0BCFF060005D033A10320009A02F028
:106F600001F82EE0D8F8301000202144C8F8301085
:106F700001F034FD0098A344204400903F1BC3D18E
:106F800000222946DAF80800FEF70EFFD8F828207C
:106F900007464446BA4208D130A1032001F0DEFF83
:106FA0000120A561C4E9077004E0034631490320CC
:106FB00001F0DFFF0448243001F0B6F9002001F0B1
:106FC0000DFD3046BDE8F88F1C360020456E746517
:106FD00072206E72665F6466755F6170705F636F6A
:106FE0006E74696E75650D0A00000000496E766169
:106FF0006C6964206461746120647572696E6720D5
:10700000636F6D706172653A207461726765743A7E
:10701000203078253038782C207372633A2030780D
:10702000253038780D0A0000417070207570646159
:1070300074653A204661696C75726520657261738A
:10704000696E672070616765206174206164647295
:107050003A203078253038780D0A00005365747472
:10706000696E67206170702061732076616C69645D
:107070000D0A000054AE070010B511A1032001F065
:107080006DFF174C206A012801D016A10CE0E069C1
:1070900078B14FF44050A16980680022FEF784FE69
:1070A000E169814205D018A1032001F057FF0020BB
:1070B00010BD1BA1032001F051FF012010BD0000F5
:1070C000456E746572206E72665F6466755F61708E
:1070D000705F69735F76616C69640D0A000000007F
:1070E0001C36002052657475726E2066616C736583
:1070F00020696E2076616C6964206170702063681D
:1071000065636B0D0A00000052657475726E20662F
:10711000616C736520696E204352430D0A000000C4
:1071200052657475726E20747275652E2041707090
:10713000207761732076616C69640D0A000000009D
:10714000F8B50F46014619483A68406B4618151ABB
:107150004FF4405000958268334615A1032001F09A
:1071600010FF2A463146204801F0EAF8040011D009
:107170002B4632461DA1032001F0FBFE2946304676
:1071800001F0ECF8040003D028A1032001F0E6FE92
:107190002046F8BD2CA1032001F0E0FE384601F0A6
:1071A000C3F8002001F01AFCF2E700001C360020B2
:1071B000566572696679696E6720424C3A2041646F
:1071C00064723A203078253038782C205372633A34
:1071D000203078253038782C204C656E3A20307875
:1071E000253038780D0A000000300700426F6F74B8
:1071F0006C6F61646572206E6F742076657269666B
:107200006965642C20636F7079696E673A205372E8
:10721000633A203078253038782C204C656E3A203F
:107220003078253038780D0A0000000052657175FD
:1072300065737420746F20636F707920424C2066F0
:1072400061696C65640D0A00426F6F746C6F6164F4
:107250006572207761732076657269666965640D71
:107260000A0000002DE9F0470E4609785C4C012722
:10727000DFF8709115464FF4807A04F15C08072915
:1072800076D2DFE801F0A504264C21A59B0056A18B
:10729000032001F063FEB06820B1504504D90420FA
:1072A000BDE8F0870320FBE756A1032001F056FE5E
:1072B0004B48002589F8025020213830FCF7FEF8B1
:1072C0002563B068A06388E054A1032001F046FE66
:1072D00020E057A1032001F041FEB268E06BA36BF0
:1072E0001118994207D96860206CA86057A1032043
:1072F00001F034FED6E740447168FCF7C6F8E06B55
:10730000B168374A0844E063D6E901014032FEF72C
:107310004BFD2064E06B6860206CA8605DE057A1C5
:10732000032001F01BFED4E90E01814205D05AA1D1
:10733000032001F013FE0820B2E75FA1032001F053
:107340000DFE99F802004D4608B10120A8E7208FF4
:10735000424683B22AA1032001F0E6FD28A10320C2
:1073600001F0FCFDFEF744FE012802D0052097E75E
:107370002EE0574890F8741061B156A1032001F037
:10738000EDFD5B49A1F21450FEF7F8FF0746012816
:107390000DD022E0007828B156A1032001F0DEFDD7
:1073A0000A271AE05AA1032001F0D8FDDEE763A105
:1073B000032001F0D3FD0120A8700EE068A1032096
:1073C00001F0CCFD206CA860E06BC5E900A004E0F2
:1073D0006EA1032001F0C2FD0227384660E70000DD
:1073E0001C360020002C00204265666F7265204F1D
:1073F000502063726561746520636F6D6D616E64AA
:107400000D0A000056616C696420436F6D6D616EFA
:1074100064204372656174650D0A000056616C69F1
:107420006420436F6D6D616E64204352430D0A000A
:107430004265666F7265204F5020777269746520CF
:10744000636F6D6D616E640D0A0000004572726FAE
:10745000722E20496E697420636F6D6D616E6420B9
:107460006C6172676572207468616E206578706502
:10747000637465642E200D0A000000004265666F8B
:107480007265204F50206578656375746520636F61
:107490006D6D616E640D0A004578656375746520D5
:1074A00077697468206661756C7479206F6666739D
:1074B00065740D0A0000000056616C696420636FFA
:1074C0006D6D616E6420657865637574650D0A0085
:1074D000AC2C002048616E646C696E67207369672C
:1074E0006E656420636F6D6D616E640D0A0000004F
:1074F0003832002048616E646C696E6720756E7367
:1075000069676E656420636F6D6D616E640D0A005E
:107510004465636F64656420636F6D6D616E6420A4
:1075200062757420697420686173206E6F20636FC8
:107530006E74656E7421210D0A0000005365747429
:10754000696E672044465520666C616720746F2021
:10755000696E697469616C697A65640D0A0000007E
:1075600056616C696420436F6D6D616E643A204EA4
:1075700052465F4446555F4F424A4543545F4F5021
:107580005F53454C4543540D0A000000496E766137
:107590006C696420436F6D6D616E64204F7065721D
:1075A0006174696F6E0D0A0070B505464FF4405066
:1075B0000CA18468032001F0D1FC114901F11800ED
:1075C0000A69012A08D04A6932B189690C3001F68A
:1075D000FF716FF30B010C442A462146BDE8704051
:1075E00000F010B8456E746572206E72665F646656
:1075F000755F636F6E74696E75650D0A000000003B
:107600001C3600202DE9F04107468068002415460D
:10761000884601280DD00126A52817D0AA282CD0ED
:10762000AC2833D01EA1032001F098FC2046BDE811
:10763000F08121A1032001F091FC2248406901283A
:10764000F4D14046FFF74AFC0446EFE71EA10320B1
:1076500001F084FC4046394601F038F8040004D0BB
:107660001CA1032001F07AFC05E0384600F05CFE26
:10767000002001F0B3F92E60D8E71EA1032001F02D
:107680006DFC39464046FFF75BFDDDE71CA103209A
:1076900001F064FC3946404600F0D4FF0446EAE7B6
:1076A00053696E676C653A20496E76616C69642037
:1076B00062616E6B0D0A000056616C696420417056
:1076C000700D0A001C36002056616C69642053441A
:1076D0000D0A000053442075706461746520636F67
:1076E0006E74696E756174696F6E206661696C6530
:1076F000640D0A0056616C696420424C0D0A00005A
:1077000053696E676C653A2056616C696420534416
:10771000202B20424C0D0A002DE9F84F15460C0095
:107720004FF0010B1ED02078C54FC64E4FF4805944
:107730004FF0000807286ED2DFE800F06D0461FE0C
:10774000FD6DFC00C0A1032001F008FCA2684AB155
:1077500010050AD0786D31691044884205D0BF49C0
:10776000012064E00320BDE8F88F4A4504D9BCA19C
:10777000032001F0F3FB4CE0B07850B17B6D306931
:10778000991881420AD90090BF49032001F0F9FB02
:1077900042E0BEA1032001F0E1FB3DE0CAA10320CD
:1077A00001F0DCFBF86CB864A0687864786D38652B
:1077B00038637178491C01F003017170A6F80480E8
:1077C000B168491CB160A168F26801F6FF7110440C
:1077D000090BC24A00F07AFB40B1B068C0A1401E5C
:1077E000B060032001F0BAFB0520BCE7B86C009044
:1077F000C2A103203B6D7A6C01F0C3FB18E1386D28
:107800006860B86CA860B07830B1A168B1F5807FCD
:1078100004D90420A7E70DE10820A4E7386D7A6DAC
:107820000844801A7A6C904204D9C4A1032001F064
:1078300095FB97E7824A60684832FEF7B5FAB8646C
:10784000386DA268DFF810A3104438656860B86C22
:10785000A860B088A268B9461118FF2905D87778C2
:1078600061680AEB0723184445E0C0F5807173781E
:107870008FB20AEB032210443A466168FBF705FE1B
:10788000B088964B384480B2B080A168C01CC91B38
:10789000A160616839446160D9F83010F2684F46E0
:1078A00011440091B1688208491CB1607178009858
:1078B0000AEB012100F0ECFB00285BD0B068A7A127
:1078C000401EB060B2880320009B01F052FBF86CB0
:1078D000B864786D38656860F86CA8607078401C92
:1078E00000F003007070A6F80480A268002A85D01A
:1078F0000AEB00206168FBF7C8FD2089B1880844C5
:10790000B0800004000CF2D0D9F85420D9F830101F
:10791000D9F844308A1A02444C469A4229D3F26874
:107920008F18B168491CB1607178C01C82080AEBDD
:10793000012102E073E033E03BE0684B384600F0A1
:10794000A7FB10B3B0683B46401EB060B28883A16D
:10795000032001F00EFBE06CA064606D20656860A0
:10796000E06CA8607078401C00F003007070A6F80E
:1079700004805DE0B28885A10320009B01F0F9FA44
:10798000B188386B08443863A8E73B46B2887FA1CA
:10799000032001F0EEFAB188206B08442063E1E790
:1079A00081A1032001F0DAFA386D6860B86CA86034
:1079B0003EE081A1032001F0D1FAD7E914017A6CED
:1079C000431A934204D081A1032001F0D2FA23E7A5
:1079D00088A1032001F0C2FAC7F84480386D7865A9
:1079E000B86CF864002000F0F9FF386D3169884206
:1079F0001ED186490320B26801F0B4FA02E000BF4C
:107A000001F040F9B0680028FAD181A1032001F00B
:107A1000A5FA5148B03800F0CBFC834608E082A1BB
:107A2000032001F09BFAB86CA860386DC5E900909E
:107A3000584698E682A1032001F090FA0220ECE774
:107A40001C360020002C00204265666F7265204FB6
:107A500050206372656174650D0A0000DCAC07009C
:107A6000496E76616C69642073697A6520666F720D
:107A7000206F626A6563742028746F6F206C617276
:107A80006765290D0A00000024AD0700547279696A
:107A90006E6720746F206372656174652064617421
:107AA00061206F626A65637420776974686F7574AA
:107AB0002076616C696420696E697420636F6D6DF6
:107AC000616E640D0A00000056616C6964204461B7
:107AD0007461204372656174650D0A00E15F0700FF
:107AE0004572617365206F7065726174696F6E2095
:107AF0006661696C65640D0A00000000437265618F
:107B000074696E67206F626A656374207769746850
:107B10002073697A653A2025642E204F6666736566
:107B2000743A203078253038782C204352433A205C
:107B30003078253038780D0A0000000057726974DB
:107B400065207265717565737420746F6F206C6F3A
:107B50006E670D0A00000000D82D00202121212091
:107B60004661696C65642073746F72696E67202565
:107B700064204220617420616464726573733A20EA
:107B80003078253038780D0A0000000053746F7289
:107B9000696E6720256420422061743A2030782580
:107BA0003038780D0A0000004265666F7265204F1C
:107BB00050206372630D0A004265666F7265204F44
:107BC0005020657865637574650D0A00496E7661AD
:107BD0006C6964206461746120686572653A20652F
:107BE00078703A2025642C20676F743A2025640D44
:107BF0000A00000056616C6964204461746120458C
:107C00007865637574650D0A0000000094AC070088
:107C1000446F696E6720706F737476616C6964611C
:107C200074650D0A0000000056616C6964204461AF
:107C30007461205265616420696E666F0D0A0000F0
:107C4000496E76616C69642044617461204F70658F
:107C5000726174696F6E0D0A00000000064810B56D
:107C6000816D012901D0002010BD002181650846E9
:107C700000F0B4FE012010BD1C3600202DE9F047B5
:107C800006464FF010208A464FF440594169D9F812
:107C9000080090460F1A36A10320A7F5405701F0BF
:107CA0005DF9B74201D239A13EE043A1032001F0C2
:107CB00055F9454C45A10320226901F053F947A12C
:107CC0000320A369226A01F054F94CA10320636ADE
:107CD000E26A01F04EF9D9F80810C8F80010206ADD
:107CE00004F118054FF00009012805D0C4F81090E0
:107CF0004AA1C4F8149020E03A464FA1032001F0B5
:107D000031F92868334600F6FF706FF30B003F1A15
:107D10003A4652A1032001F02CF90120BE4216D9A7
:107D2000BAF1000F06D055A1032001F017F9042085
:107D3000BDE8F087C4E9040959A1032001F00EF958
:107D4000C5F80490C5F8089000202E60F0E7C4E95B
:107D50000490A069D8F8001000F6FF706FF30B00D4
:107D6000194D01442435C8F8001053A10320E5E75C
:107D7000456E746572206E72665F6466755F6669D3
:107D80006E645F63616368650D0A00004E6F207763
:107D9000617920746F2066697420746865206E654F
:107DA00077206669726D77617265206F6E206465F9
:107DB000766963650D0A000042616E6B20636F6E29
:107DC00074656E740D0A00001C36002042616E6BF3
:107DD00020747970653A2025640D0A0042616E6B4B
:107DE000203020636F64653A203078253032783A4D
:107DF0002053697A653A2025640D0A0042616E6B52
:107E0000203120636F64653A203078253032783A2B
:107E10002053697A653A2025640D0A004E6F207060
:107E2000726576696F75732C207573696E67206251
:107E3000616E6B20300D0A00667265655F73697A4A
:107E400065206265666F72652062616E6B20736586
:107E50006C6563743A2025640D0A000066726565DE
:107E60005F73697A653A2025642C2073697A655FAF
:107E70007265713A2025640D0A0000004661696C44
:107E80007572653A206475616C2062616E6B207258
:107E900065737472696374696F6E0D0A0000000087
:107EA000456E666F7263696E672073696E676C6595
:107EB0002062616E6B0D0A005573696E67207365F1
:107EC000636F6E642062616E6B0D0A002DE9FF41E5
:107ED000054617460E460B464FF000082A4628A1D5
:107EE000032001F046F82D4C2068410723D5810777
:107EF00007D52BA1032001F031F80A2004B0BDE81A
:107F0000F08140F001002060B2B23B4629462B4888
:107F1000FEF70EFB5FEA000808D0024628A1032006
:107F200001F020F8206820F0010002E0206840F015
:107F30000100206021E0280505D026A1032001F0E2
:107F40000DF80620DAE7C5F30F34284601F048F8AB
:107F500005F58055761EF8D17FB123480168D0E938
:107F60000220CDE90220CDE90017280BADF808402A
:107F7000ADF80A0000216846B8474046BEE7000059
:107F800045726173696E673A203078253038782CF5
:107F9000206E756D3A2025640D0A0000442C0020E7
:107FA00045726173653A204661696C75726520732C
:107FB000696E6365206C6173740D0A009C2C00204F
:107FC0004572617365206661696C65643A20256459
:107FD0000D0A0000496E76616C6964206164647208
:107FE0006573730D0A00000020AB070010B5010097
:107FF0000C4C4FF0000013D00BA1032000F0AEFF9B
:10800000FEF7FCFA08B111A104E0184802F012FBD7
:1080100028B117A1032000F0A1FF082010BD042102
:10802000216010BD442C00202D2D2D2D2D2D2D2017
:108030006E72665F6466755F666C6173685F696EB9
:1080400069742D2D2D2D2D2D2D0D0A004E6F7420B0
:10805000696E697469616C697A696E6720746865B4
:10806000207468696E670D0A0000000091660700C1
:108070004E6F7420696E697469616C697A696E67A4
:1080800020746865207468696E6720320D0A0000EC
:108090002DE9FF411746264A06461D461068002472
:1080A000430723D5830707D522A1032000F056FFFD
:1080B0000A2004B0BDE8F08140F001001060904655
:1080C0000A46BBB2314622480095FEF7A1FA0400E9
:1080D00005D002461FA1032000F044FF20E0D8F89D
:1080E000001041F00101C8F8001019E031B12EB1C3
:1080F00041EA0600800703D00620DAE70320D8E72C
:1081000087B13A46304600F083FF4DB10020CDE9FB
:108110000260CDE900050146ADF80C706846A8473D
:108120002046C6E710A1032000F018FF0420C0E796
:10813000442C0020466C6173683A204661696C7576
:1081400072652073696E6365206C6173740D0A003B
:108150009C2C0020466C6173683A206661696C65EE
:10816000642025640D0A0000466C6173683A20495A
:108170006E76616C6C6964206C656E67746820282B
:108180004E564D43290D0A0038B5002000902BA112
:10819000032000F0E3FE00F0C5FB6846FFF704FA99
:1081A000012420B12BA1032000F0D8FE0094FFF79A
:1081B00055FD28B132A1032000F0D0FE009417E055
:1081C0000098A8B9FEF758FF90B1FEF755FF48B1E7
:1081D0004FF4405434A10320A26800F0C3FEA0680D
:1081E000FEF7AAFC36A1032000F0B8FE002038BD3F
:1081F0003A4B3B4A05210020FDF71CFA08B1FDF778
:108200004DF9374A142178320820FDF7D1F908B129
:10821000FDF744F900F0E4FC040005D031A103208F
:1082200000F09CFE204638BD00F0B4F938A10320D0
:1082300000F094FEFDF79CF9FCE70000496E207207
:1082400065616C206E72665F6466755F696E6974E5
:108250000D0A0000436F756C64206E6F7420636FAD
:108260006E74696E756520444655206F7065726145
:1082700074696F6E3A203078253038780D0A000026
:108280004170706C69636174696F6E2073656E74A0
:1082900020626F6F746C6F616465722072657175B6
:1082A0006573740A000000004A756D70696E67207E
:1082B000746F3A203078253038780D0A00000000BD
:1082C0004166746572207265616C206E72665F64CF
:1082D00066755F696E69740D0A0000001D5607001F
:1082E000F8320020436F756C64206E6F7420696EE5
:1082F0006974616C697A6520444655207472616EB8
:1083000073706F72743A203078253038780D0A0017
:1083100057616974696E6720666F72206576656E55
:1083200074730D0A0000000000210160416081604B
:108330000248016341630161416170471C360020BE
:108340001FB5054B01AC92081B6A009384E8070037
:10835000684618DF04B010BD30AB07001FB58908B0
:10836000002201AB009283E80700684618DF04B0E2
:1083700010BD00001FB59208930502D0092004B07B
:1083800010BD044B1B6800930392CDE901106846B1
:1083900018DFF4E730AB07001FB5044B0FCB8DE8B7
:1083A0000F00684618DF04B010BD000040AB0700A6
:1083B0002DE9F047054690F83D000126DFF82091B1
:1083C00003280CD00A26474F786920B3012829D00A
:1083D00045A1032000F0C2FD0A20BDE8F087404C13
:1083E0004B481C342346206020206060D9E90312EA
:1083F0000520FEF763FC00B10A26202205F13F01AB
:108400002068FBF76DF80028DDD042A1032000F0C2
:10841000A5FD0526D7E743A1032000F09FFD314CC1
:10842000183405E046A1032000F098FD2D4C2434BB
:108430004FF00008012E05D0C4F808804046C4F86B
:10844000048031E045A1032000F088FD95F8250067
:1084500068B101280DD002280DD003280ED00A26BD
:1084600095F85F0078B195F8600060B118E00120E0
:1084700002E0A52003E0AA20A060F1E7AC20A06004
:10848000A86A7863ECE795F8250020B1022805D0AA
:10849000032805D102E06868B86001E06868F86008
:1084A000B86C6060D9F8100020600E482021383088
:1084B000FBF704F80B48FF22B2215C30FAF7F7FF14
:1084C000324CC7F8308004E02046FEF735FC00F05F
:1084D000D9FB2F4800F082FA1128F5D030467CE70E
:1084E000002C00201C360020496E7465726E616C91
:1084F000206572726F722C20696E76616C696420DF
:1085000063757272656E742062616E6B0D0A000095
:10851000D831002048617368206661696C757265A6
:108520000D0A000043757272656E742062616E6B95
:108530002069732062616E6B20300D0A000000001C
:1085400043757272656E742062616E6B2069732070
:1085500062616E6B20310D0A000000005375636389
:1085600065737366756C6C792072756E20746865BE
:1085700020706F737476616C69646174696F6E20CA
:10858000636865636B210D0A00000000A08601008E
:108590004D93070070B50120FFF728FD00281BD17F
:1085A0000E4D0F4CA860A06BA8B1FDF721FD90B156
:1085B000206A50B9A06940B1084A00210C322861F4
:1085C000FFF75CFB0120A87005E0E06A18B9A0691C
:1085D00008B1606AF0E7002070BD0000002C0020A8
:1085E0001C36002010B50C780F4B012C01D0062C46
:1085F00007D10C79012C03D0022C01D0072010BD2B
:108600001C701B78012B07D0022B09D007A1032077
:1086100000F0A4FC052010BDBDE81040FEF722BE0E
:10862000BDE81040FFF778B8002C0020496E766155
:108630006C696420726571756573742074797065F6
:108640000D0A000070B50D4606460CA1032000F08F
:1086500085FC2946304600F039F8040001D00FA10E
:1086600006E029463046FEF76BFD040004D011A158
:10867000032000F073FC204670BD0000456E746559
:1086800072206E72665F6466755F73645F626C5FB2
:10869000636F6E74696E75650D0A000053442B425A
:1086A0004C3A20534420636F7079206661696C6591
:1086B000640D0A0053442B424C3A20424C20636F15
:1086C0007079206661696C65640D0A002DE9FE4FC2
:1086D000DFF8FCB080465F46DBF83000DBF8341092
:1086E00000F58054081A00F6FF70060B360340F6BA
:1086F000FF7000EB9600050B2D0336A1032000F060
:108700002DFC386B796B00EB080A41B1884206D129
:108710003AA1032000F022FC0020BDE8FE8F4FF4B8
:1087200040503BA18289032000F01CFC04EB0509AA
:10873000CDE900490AEB0503984652463DA10320C6
:10874000029500F027FC2A4651462046FFF712FE0C
:10875000070004D05346224645A1009513E0CDE919
:1087600000494346524652490320029500F012FC4C
:108770002A4651462046FFF7E3FD070007D04D4942
:10878000534622460095032000F0FBFB1DE0CDE997
:1087900000494346524648A10320029500F0FAFBE7
:1087A0004C46C246B54201D9002600E0761B51A1D5
:1087B000032000F0D3FBDBF834100020891BCBF83A
:1087C000301000F00BF9002EB0D13846A5E70000BC
:1087D0001C360020456E746572206E72665F626F93
:1087E0006F746C6F616465725F6466755F73645FFC
:1087F000636F6E74696E75650D0A000053442061E5
:108800006C726561647920636F706965640D0A003C
:108810005570646174696E672053442E204F6C64F8
:10882000205344207665723A203078253034780D14
:108830000A000000436F7079696E67205B3078250D
:108840003038782D3078253038785D20746F205B93
:108850003078253038782D3078253038785D3A20DA
:108860004C656E3A203078253038780D0A000000CB
:108870004661696C656420746F20636F7079205362
:10888000443A207461726765743A20307825303834
:10889000782C207372633A203078253038782C2079
:1088A0006C656E3A203078253038780D0A0000006B
:1088B000CCAD070010AE070056616C696461746549
:1088C00064203078253038782D307825303878207D
:1088D000746F203078253038782D3078253038780E
:1088E0003A2053697A653A203078253038780D0A75
:1088F0000000000046696E697368656420776974DA
:108900006820746865205344207570646174652E16
:108910000D0A0000002258210148FDF745BA000069
:108920002036002070B513A1032000F017FB194971
:1089300000204FF4AE7508702A4617491748FAF719
:10894000A4FD164C2068401C04D0FFF7E3FF21680B
:1089500081420ED012A1032000F000FB29460F48EF
:10896000FAF7ACFD01206060BDE87040002000F027
:1089700035B870BD72756E6E696E67206E72665F17
:108980006466755F73657474696E67735F696E6939
:10899000740D0A00482C002000F007001C3600204F
:1089A00021212121212121212121212121212120B8
:1089B000526573657474696E6720626F6F746C6F53
:1089C000616465722073657474696E677320212118
:1089D0002121212121212121210D0A0070B50546E7
:1089E0001D4A1EA1032000F0BDFA254C207808B1D5
:1089F00024A125E001202070014600221648656070
:108A0000FFF764FA002510B1257029A118E0FFF7DF
:108A100081FF31495722086030A1032000F0A2FAFB
:108A20002D494FF4AE72A1F5AE70FAF72EFD314B21
:108A3000572231490848FFF72BFB30B125702FA191
:108A4000032000F08BFA112070BD36A1032000F046
:108A500085FA002070BD000000F0070045726173C8
:108A6000696E67206F6C642073657474696E6773D8
:108A70002061743A203078253038780D0A000000E3
:108A8000482C0020436F756C64206E6F74207175E4
:108A90006575652077726974696E67206F6620441A
:108AA00046552053657474696E67730D0A000000A3
:108AB0004661696C656420746F206572617365201E
:108AC000626F6F746C6F6164657220736574746932
:108AD0006E67730D0A0000001C360020577269741F
:108AE000696E672030782530387820776F7264732C
:108AF0000D0A00008D640700C03400204661696CD7
:108B0000656420746F20777269746520626F6F747A
:108B10006C6F616465722073657474696E67730D40
:108B20000A00000057726974696E67207365747477
:108B3000696E67732E2E2E0D0A0000002DE9F0419C
:108B40000F48104F0025C01BC6080FA1032000F0DE
:108B500005FA324614A1032000F004FA002406E0CE
:108B600007EBC40040688047050002D1641CB44292
:108B7000F6D313A1032000F0F1F92846BDE8F081F7
:108B8000BCAF0700B4AF0700496E206E72665F6429
:108B900066755F7472616E73706F7274735F636C0D
:108BA0006F73650D0A0000006E756D207472616E42
:108BB00073706F7274733A2025640D0A0000000010
:108BC0004166746572206E72665F6466755F74726A
:108BD000616E73706F7274735F696E69740D0A00F1
:108BE0002DE9F0410F48104F0025C01BC6080FA10A
:108BF000032000F0B3F9324614A1032000F0B2F9CB
:108C0000002405E057F834008047050002D1641CB9
:108C1000B442F7D313A1032000F0A0F92846BDE821
:108C2000F0810000BCAF0700B4AF0700496E206EB2
:108C300072665F6466755F7472616E73706F727472
:108C4000735F696E69740D0A000000006E756D2017
:108C50007472616E73706F7274733A2025640D0ABA
:108C6000000000004166746572206E72665F646683
:108C7000755F7472616E73706F7274735F696E6921
:108C8000740D0A00FCF774BC30B541EA4201DDE91D
:108C9000034541EA8301800041EA042100F1A0403C
:108CA00041EA0541C0F8001730BD0F21800000F1F6
:108CB000A040C0F8001770470121814001480160C1
:108CC000704700000805005000487047118D0700EC
:108CD000F8B50B4C0546207820B16078854201D16B
:108CE0000020F8BD01263302064A07A100200096A5
:108CF000FBF7F8FD08B10820F8BD26706570EFE7B6
:108D0000822C0020EC3700204E6F726D616C0000E9
:108D10002DE9F04FC1B008009046DDF82CB14D9917
:108D20004FF000021C460BEB0109409201D00A25CE
:108D300000E000256F46ACB9394640AA01F04EFD6F
:108D4000002866D04046FAF7C4FBC22800D9C220EA
:108D500006464098324638444146FAF796FB40981A
:108D6000304440904FF0200A4098421931320DEBC8
:108D700002016844002202E000F801AB521CAA4242
:108D8000FAD300274C4508D300F801AB00F801AB3B
:108D900000F801AB01F801AB26E05C4502D24A9A2B
:108DA000125D03E04C9AA4EB0B03D25C84460126CF
:108DB000B30022FA03F808F00F03092B01D9373367
