:020000040001F9
:10F0000018A9002015F201001DF201001FF20100F5
:10F0100021F2010023F2010025F2010000000000AE
:10F0200000000000000000000000000027F20100C6
:10F0300029F20100000000002BF201002DF2010076
:10F04000890F02002FF20100D51602000D120200F6
:10F050002FF201002FF20100C1FC01000D1002008F
:10F060002FF201002FF201002FF201002FF2010018
:10F070002FF201002FF201002FF201002FF2010008
:10F080002FF20100D90F02002FF201002FF2010030
:10F090008D1302002FF20100951302002FF20100E0
:10F0A0002FF201002FF201002FF201002FF20100D8
:10F0B0002FF201002FF2010000000000000000000C
:10F0C0002FF201002FF201002FF201002FF20100B8
:10F0D0002FF201002FF20100A5FC0100000000004A
:10F0E0000000000000000000000000000000000020
:10F0F0000000000000000000000000000000000010
:10F1000000000000000000000000000000000000FF
:10F1100000000000000000000000000000000000EF
:10F1200000000000000000000000000000000000DF
:10F1300000000000000000000000000000000000CF
:10F1400000000000000000000000000000000000BF
:10F1500000000000000000000000000000000000AF
:10F16000000000000000000000000000000000009F
:10F17000000000000000000000000000000000008F
:10F18000000000000000000000000000000000007F
:10F19000000000000000000000000000000000006F
:10F1A000000000000000000000000000000000005F
:10F1B000000000000000000000000000000000004F
:10F1C000000000000000000000000000000000003F
:10F1D000000000000000000000000000000000002F
:10F1E000000000000000000000000000000000001F
:10F1F000000000000000000000000000000000000F
:10F20000DFF80CD000F05EFA00480047694E0200BB
:10F2100018A900200648804706480047FEE7FEE799
:10F22000FEE7FEE7FEE7FEE7FEE7FEE7FEE7FEE7B6
:10F230004114020001F201002DE9F05F05460020B3
:10F2400092469B4688460646814640241BE0284657
:10F2500041464746224600F02FF853465A46C01A08
:10F26000914110D311461846224600F016F82D1A87
:10F2700067EB01084F4622460120002100F00DF8FF
:10F2800017EB00094E41201EA4F10104DFDC4846C3
:10F2900031462A464346BDE8F09F202A04DB203A47
:10F2A00000FA02F1002070479140C2F1200320FAD9
:10F2B00003F3194390407047202A04DB203A21FAD7
:10F2C00002F00021704721FA02F3D040C2F120027F
:10F2D00091400843194670470649074A0868504359
:10F2E00043F2390210440860400870470149086041
:10F2F00070470000247600206D4EC64140EA0103AD
:10F300009B0703D009E008C9121F08C0042AFAD2DB
:10F3100003E011F8013B00F8013B521EF9D270479F
:10F32000D2B201E000F8012B491EFBD27047002247
:10F33000F6E710B513460A4604461946FFF7F0FFF4
:10F34000204610BD421C10F8011B0029FBD1801A79
:10F35000704730B504460020034600E05B1C934232
:10F3600003D2E05CCD5C401BF8D030BD2DE9FE4FF0
:10F3700081EA030404F0004421F0004100944FF0BE
:10F38000000B23F0004350EA01045ED052EA03046C
:10F390005BD0C3F30A54C1F30A552C44A4F2F334EE
:10F3A0000194A0FB0254C1F3130141F48011C3F393
:10F3B000130343F4801301FB024400FB034E840A51
:10F3C000970A44EA815447EA8357A4FB07680295E9
:10F3D0008D0A05FB07854FEA932C04FB0C54270587
:10F3E000029D4FEA065847EA1637B5EB08056EEB63
:10F3F000070C870E920E47EA811742EA8312A7FB99
:10F400000201B6EB0B0164EB00042B0D43EA0C3355
:10F410005E1844EB1C50DA465146E7FB0201C5F387
:10F4200013044FEA0B3343EA14534FEA0432019CAE
:10F4300043EA0603A4F10C040294009CCDE900B455
:10F4400000F0A1F803B0BDE8F08F00200146F9E715
:10F450000EB540F2334102910021CDE900110A4678
:10F460000B4600F090F803B000BDC1F30A5210B58E
:10F47000C1F3130140F2FF3341F480119A4201DAE3
:10F48000002010BD40F233439A42A2F2334203DC23
:10F490005242FFF711FF10BD904010BD00F0004236
:10F4A00030F000400AD0C10D01F56071C0F31600C4
:10F4B00042EA0151C208400711437047002001464B
:10F4C000704701F0004330B421F0004150EA0102DE
:10F4D00006D00A0DA2F56072C1F31301002A02DC06
:10F4E00030BC00207047440F44EAC104C100E0185A
:10F4F00030BC00EBC250AFF300800029A8BF7047BA
:10F50000401C490008BF20F00100704710B4B0FA59
:10F5100080FC00FA0CF050EA010404BF10BC7047F4
:10F5200049B1CCF1200421FA04F411FA0CF118BF0E
:10F53000012121430843A3EB0C01CB1D4FEA0061DD
:10F540004FEA102042BF002010BC704700EBC350B0
:10F5500010440029A4BF10BC7047401C490008BFDC
:10F5600020F0010010BC704710B5141E73F10004A8
:10F5700008DA401C41F1000192185B411A4301D1A5
:10F5800020F0010010BD2DE9F04D92469B4611B1CF
:10F59000B1FA81F202E0B0FA80F220329046FFF731
:10F5A0007CFE04460F4640EA0A0041EA0B0153463E
:10F5B0005A46084313D0114653EA010019D0C8F146
:10F5C00040025046FFF778FE05460E465046594623
:10F5D0004246FFF762FE084305D0012004E02046C2
:10F5E0003946BDE8F08D0020054346EAE0762C431D
:10F5F00037430A986305E40AA0EB08000022FD0ADD
:10F6000044EA47540A3002D500200146E9E70105E3
:10F6100010196941DDE9084500196941BDE8F04D5F
:10F62000A2E72DE9F04D00231A461B1A8A4103DB9D
:10F6300000200146BDE8F08DC1F30A52C1F3130169
:10F6400041F480154FF0000BD10702D100186D4135
:10F65000521E0027044640F2FF11384601EB620AB1
:10F660003E468046024600204FF48011FFF724FEFC
:10F67000C2197141BB1846EB0100B4EB030C75EBEA
:10F68000000C04D3E41A65EB000517460E46241956
:10F6900008F101006D4180463428E3DDF91946EB9D
:10F6A0000600091BA84103D24FF0FF32134601E0C8
:10F6B000002213461BEB070046EB0A51BDE8F04D54
:10F6C000FFF752BF064C074D06E0E06840F001032B
:10F6D00094E8070098471034AC42F6D3FFF794FD46
:10F6E00094990200B499020070B58D1810F8014B7E
:10F6F00014F0030201D110F8012B231106D110F8E8
:10F70000013B03E010F8016B01F8016B521EF9D1C7
:10F71000ABB110F8012B04F00C048A1A0C2C03D0A6
:10F72000A2EB84129B1C08E010F8014BA2EB042210
:10F73000F8E712F8014B01F8014B5B1EF9D5A9421D
:10F74000D4D3002070BD00002DE9F0412DED048BD5
:10F750000025002400270026A04600BF1FE000244B
:10F7600017E07E4830F814100246601C32F8100092
:10F7700081420CDD1146601C31F81070084630F8EB
:10F780001410601C22F81010104620F81470601C31
:10F79000C4B2C5F10900A042E3D8681CC5B20A2D65
:10F7A000DDD3012505E06D4830F815000644681CDE
:10F7B000C5B2092DF7D3C6F3CF084046FFF748FE80
:10F7C00041EC190B9FED660B53EC102BFFF7CEFDB0
:10F7D00041EC180BFFF749FE634948800B20634951
:10F7E0000968C14001F00101002916D05E48408837
:10F7F000B0F5C87F1ADD5C480078C0F342000428E9
:10F800000CDA59484088B0F5CB7F75DB5648007854
:10F8100020F00E000830544908706DE0524800781E
:10F8200020F00E0008305049087065E04E484088CE
:10F83000B0F5BE7F1ADD4C480078C0F342000328C3
:10F840000CDA49484088B0F5C17F55DB464800785E
:10F8500020F00E00801D444908704DE042480078B9
:10F8600020F00E00801D4049087045E03E48408869
:10F87000B0F5B47F1ADD3C480078C0F3420002289E
:10F880000CDA39484088B0F5B77F35DB3648007868
:10F8900020F00E00001D344908702DE03248007839
:10F8A00020F00E00001D3049087025E02E484088E9
:10F8B000B0F5AF7F1ADD2C480078C0F34200012874
:10F8C0000CDA29484088B0F5B27F15DB264800786D
:10F8D00020F00E00801C244908700DE022480078BA
:10F8E00020F00E00801C2049087005E01E480078BA
:10F8F00020F00E001C4908701B484088B0F5AA7F14
:10F9000007DA1948007820F0100010301649087006
:10F910000FE015480078C0F3001050B1124840883D
:10F92000B0F5AD7F05DB1048007820F010000E49DF
:10F93000087014210948FFF7FAFC00200C490870F0
:10F9400008F098FA0B48007820F002000949087086
:10F9500009F03AFABDEC048BBDE8F081487D002047
:10F960007B14AE47E17AC43F70230020100500509D
:10F97000B42C0020B52C002010B504460548407872
:10F98000022805D003484078032801D008F074FF0E
:10F9900010BD0000D172002070B586B004460D463F
:10F9A0002078FF2806D100200590012105A800F04D
:10F9B0002DF925E120780028FBD16078072824D292
:10F9C000DFE800F004243862A2DAF300002005909A
:10F9D000A078D0B900208DF814008DF815008DF8AE
:10F9E0001600032105A800F011F94FF47A7631468C
:10F9F00016FB01F005F000FC00BF00BF012600BFB0
:10FA0000012002F047FC00BF00BFF8E00020059095
:10FA1000A07870B900208DF8140001208DF8150031
:10FA20008DF8160002208DF81700042105A800F0BB
:10FA3000EDF8E4E0002004900590A07818BB02A83F
:10FA40006DDF00208DF8100002208DF811009DF868
:10FA50000E008DF812009DF80D008DF813009DF832
:10FA60000C008DF814009DF80B008DF815009DF822
:10FA70000A008DF816009DF809008DF8170008217E
:10FA800004A800F0C3F8BAE000200590092D2DD19C
:10FA9000A0788DF80900E0788DF80800BDF808001E
:10FAA000ADF80C002079401EC0B28DF80E006079D0
:10FAB000401EC0B28DF80F00A0798DF81100E079DA
:10FAC0008DF81200207A8DF8130003A801F0A6FC2F
:10FAD00000208DF8140003208DF8150000208DF80B
:10FAE0001600032105A800F091F80CE000208DF825
:10FAF000140003208DF8150001208DF81600032155
:10FB000005A800F083F87AE00020039004900590A7
:10FB1000A07880BB01A800F0F5F9BDF804000090C2
:10FB20009DF801008DF80E009DF800008DF80F0083
:10FB30009DF80600401CC0B28DF810009DF807002B
:10FB4000401CC0B28DF811009DF809008DF812001C
:10FB50009DF80A008DF813009DF80B008DF8140035
:10FB600000208DF80C0004208DF80D00092103A859
:10FB700000F04CF800BF42E000200590052D05D1B3
:10FB80002279E178A07801F01DFC0CE000208DF8CE
:10FB9000140005208DF8150002208DF816000321B1
:10FBA00005A800F033F82AE0FFE7A07830BB15483D
:10FBB000007820F0FC0028301249087002204870BC
:10FBC0000846007820F0020008706FF002000E492D
:10FBD00008800020488088800B46B3F90420B3F9E0
:10FBE0000210B3F9000000F01FFC00F078FE054899
:10FBF000007820F00100401C0249087000BF00BFDF
:10FC000006B070BDD1720020D47200202DE9F04101
:10FC100005460E460D48007800F0010098B13246C6
:10FC200029460B4803F067FA0446082C0AD0112C29
:10FC300008D000BF274627B100BF384602F02AFB94
:10FC400000BF00BF00BFBDE8F081000070230020AE
:10FC5000847B002010B50948007801280DD10848A0
:10FC6000006802F0E5FB00200449087000224FF410
:10FC700000410448006802F0B1FB10BD3C75002053
:10FC8000209902002499020010B5044602F0E8FB16
:10FC9000112001218140024A116000BF10BD000007
:10FCA0000C0500500549096801F1400000BFF1EE64
:10FCB000101A016821F09F010160704738EF00E0E1
:10FCC0002DE9F04F87B00027BA464FF480700690B8
:10FCD0000125002412E0069806F054FB40B100BF55
:10FCE00061480068284018B1069806F03DFB2F4394
:10FCF0006D000698001D80B20690641C082CEAD3A3
:10FD00004FF4BE7006F03EFB48B14FF4BE7006F0F3
:10FD10002BFB47F0004700BF544800688246F8B20A
:10FD200000B3012500241BE005EA0700B0B100BFC5
:10FD30004F4850F82400C0F30420804600BF4C48D0
:10FD400050F82400C0F301408146204603F034FB04
:10FD5000064616B149464046B04700BF6D00641CD8
:10FD6000082CE1D307F00040002879D04FF0000BB9
:10FD700000200590401E049000BF4FF0000B0024AF
:10FD800057E03C48005D0390039820F0C0063948D6
:10FD90000057401C00284BD00120B0400499084077
:10FDA000002845D003984FEA9019304603F04CFBE9
:10FDB000804603F001FB0290029810B9B9F1030FDD
:10FDC00035D1012000FA06F5B9F1030F02D10598EB
:10FDD0002843059000BF284850F82600C0F301488A
:10FDE00000BF05EA0A0010B1B8F1020F05D005EA1C
:10FDF0000A00D8B9B8F1030F18D1B9F1030F0FD128
:10FE0000B8F1020F01D1032000E00220019030463A
:10FE1000019906F057FA0BF1010000F0FF0B00BF4B
:10FE2000029818B149463046029A904700BF00BF79
:10FE3000641C042CA5D3BBF1000F0DD000BF0B49EF
:10FE400009680846504503D14FF0000B03E007E076
:10FE500082460599049100BFBBF1000F8DD100BF10
:10FE600007B0BDE8F08F00000463004010050050AB
:10FE700010650040B4820020000700507CB51120BE
:10FE800006F0EFF9112006F02FFA0B2503260020CB
:10FE900000903346024601460190284606F04CF990
:10FEA00000BF084A0021084802F034FA044600BFA7
:10FEB000254625B100BF284602F0ECF900BF00BF7F
:10FEC0007CBD0000F9010200B898020070B506463A
:10FED0000B48007800F0010080B974DF02F0C0F830
:10FEE000032002F0EDFD044600BF254625B100BF0A
:10FEF000284602F0CFF900BF00BF00BF70BD000070
:10FF00007023002010B5044602480168204608F01E
:10FF100053F910BDB82C002070B50F4A01210F48CD
:10FF200002F0F8F9044600BF254625B100BF284677
:10FF300002F0B0F900BF00BF094A0021094802F0F1
:10FF4000E9F9044600BF254625B100BF284602F066
:10FF5000A1F900BF00BF70BD858302002099020097
:10FF600089FC010024990200F8B504466D466E1C18
:10FF70002946282000F053F808B90020F8BD314682
:10FF8000292000F04CF808B90020F7E7BDF900007F
:10FF9000208029462A2000F042F808B90020EDE729
:10FFA00031462B2000F03BF808B90020E6E7BDF908
:10FFB0000000608029462C2000F031F808B90020AC
:10FFC000DCE731462D2000F02AF808B90020D5E7FB
:10FFD000BDF90000A0800120D0E710B504462146FD
:10FFE0000F2000F01CF808B9002010BD0120FCE72C
:10FFF00008B56846FFF7F1FF00B908BD042000F01E
:020000040002F8
:10000000BDF850B1012000F04FF830B1002000F0F1
:100010002DF810B1072000F00BF800BFEDE770B528
:1000200004460D462946204601F022F9012070BD04
:1000300038B5044669462020FFF7F1FF08B90020D3
:1000400038BD9DF8000000F0F800009004F00700B3
:100050009DF80010084300909DF80010202000F04B
:10006000ABF808B90020EBE70120E9E738B5044612
:1000700069462320FFF7D3FF08B9002038BD9DF85B
:10008000000000F0CF0000909DF8000040EA04104E
:10009000C0B200909DF80010232000F08DF808B940
:1000A0000020EBE70120E9E71CB5044601A9202068
:1000B000FFF7B5FF08B900201CBD69462320FFF7F4
:1000C000AEFF08B90020F7E79DF8040000F0F0004B
:1000D00038B92948007800F0F0009DF80410084372
:1000E000019024B1012C1FD0022C30D109E09DF8E1
:1000F0000400214908709DF8040000F00F000190F1
:1001000027E09DF8040000F0F70001909DF804003E
:1001100001909DF8000000F0F70000909DF80000AD
:1001200040F00800009014E09DF8040000F0F70093
:1001300001909DF8040040F0080001909DF8000037
:1001400000F0F70000909DF80000009001E0002012
:10015000B2E700BF9DF80410202000F02DF808B988
:100160000020A9E79DF80010232000F025F808B929
:100170000020A1E701209FE74175002038B5044623
:1001800069462020FFF74BFF08B9002038BD9DF8D5
:10019000000000F00F0000909DF8000040EA0410FD
:1001A000C0B200909DF80010202000F005F808B9BA
:1001B0000020EBE70120E9E770B504460D4629462B
:1001C000204601F0A9F8012070BD000010B50D20F7
:1001D00006F047F80D2001218140054A116000BF5B
:1001E000002242F266610348006802F0F7F810BD91
:1001F00008050050B89802007CB505460D2006F0B1
:1002000073F80D240020009003460122014601905E
:10021000204605F091FF00BF7CBD000000F01F02EA
:1002200001219140024A430942F82310704700001F
:1002300080E200E000F01F0201219140024A4309E0
:1002400042F823107047000080E100E000F01F0238
:10025000012191404209920002F1E022C2F800110E
:10026000704700F01F02012191404209920002F103
:10027000E022C2F80011704700F01F0201219140F6
:10028000024A430942F823107047000000E200E0F0
:1002900010B5002807DA4A07140E054A00F00F03CC
:1002A0001B1FD45403E04A07130E024A135410BD17
:1002B00018ED00E000E400E070B586B004460E469C
:1002C0001546002003900490059000F0E1FA012EFD
:1002D0000BD101201421454A0A23CDE900210290C7
:1002E0002A220146212000F00AFB052D45D2DFE835
:1002F00005F003101D2A3700012028213C4A0A235B
:10030000CDE900210290402201462C2000F0F7FAAE
:1003100033E001202821374A0A23CDE90021029049
:10032000402201462C2000F0EAFA26E00120282194
:10033000314A0A23CDE900210290402201462C20B7
:1003400000F0DDFA19E0012028212C4A0A23CDE92A
:1003500000210290402201462C2000F0D0FA0CE04F
:1003600001202821264A0A23CDE9002102904022BB
:1003700001462C2000F0C3FA00BF00BF002003900C
:1003800004900590E07900EBD0714910A0EB410199
:1003900031B9A37962791BA103A801F051FA05E0F4
:1003A000A37962791AA103A801F04AFA0120202357
:1003B00003AA10210090062000F042FD00200390C7
:1003C00004900590E078431CA078421C13A103A878
:1003D00001F036FA01200C2303AA0221009000202C
:1003E00000F02EFD00F066FB06B070BD944F0020BB
:1003F0006C4F0020444F00201C4F0020F44E002082
:10040000CC4E0020253032643A25303264000000A2
:1004100025303264202530326400000025303264FB
:100420002D2530326400000070B586B004460D46BC
:100430001646002003900490059000F029FA002C45
:1004400019DA01204E21B74A1B23CDE90021029081
:1004500040220621122000F052FA102062420123AD
:100460001E2100901B2000F0A1FC601C002801D17F
:1004700000F0C2FF52E154BBAB48007800F001002D
:1004800090B901202421A94A1A23CDE90021029024
:1004900040220C21162000F032FAA348007840F0E8
:1004A0000100A149087039E101204E219D4A212314
:1004B000CDE90021029040220C21122000F01FFA09
:1004C0009948007820F001009749087026E1984883
:1004D0000078401C96490870FF2C01D1002000E0F4
:1004E00020460446FF2D01D1002000E028460546A5
:1004F000FF2E01D1002000E0304606468D480078EE
:10050000C0F3401000287AD08B48007820F0020019
:10051000801C894908708448007800F00100E8BB1D
:1005200001204E217F4A1B23CDE900210290402269
:100530000621122000F0E3F901200C237FA21E21E6
:1005400000902D2000F07CFC642C08DB102003239D
:1005500022461E210090142000F028FC12E00A2CF4
:1005600008DB1020022322461E210090192000F0F3
:100570001DFC07E00120102371A21E21009019200C
:1005800000F05EFC6A48007802288CDB6648007840
:1005900040F0010064490870002000E002E0644976
:1005A0000870BBE001205A21664A1823CDE90021DA
:1005B0000290402200210A2000F0A1F901200C2322
:1005C00061A2082100902D2000F03AFC01200C23AC
:1005D0005EA2122100902D2000F032FC0A2D0FDDCA
:1005E0002B4632465AA103A801F02AF90120102314
:1005F00003AA1E210090022000F022FC0CE019E06A
:1006000055A103A801F01CF90120102303AA1E2103
:1006100000900E2000F014FC4548007802287DDB95
:100620004148007820F001003F490870002040490F
:10063000087073E03C48007800F00100B8BB01206E
:100640004E21384A1B23CDE9002102904022062189
:10065000122000F054F9642C08DB102003232246FA
:100660001E210090142000F0A1FB12E00A2C08DBF0
:100670001020022322461E210090192000F096FB34
:1006800007E0012010232EA21E210090192000F067
:10069000D7FB27480078022840DB2348007840F049
:1006A00001002149087000202149087036E0FFE769
:1006B00001205A21234A1823CDE90021029040222B
:1006C0000021122000F01BF90A2D0EDD2B463246C8
:1006D0001FA103A801F0B4F80120102303AA1E21D2
:1006E0000090022000F0ACFB0BE01BA103A801F07E
:1006F000A7F80120102303AA1E2100900E2000F06D
:100700009FFB0B480078022808DB0748007820F0A0
:1007100001000549087000200549087000F0CAF979
:1007200006B070BD48500020D072002096500020C6
:10073000E072002070230020D172002062706D00F2
:1007400078780000BA5000206D6D00004867000006
:100750002533642F2533640078782F7878000000E3
:1007600000B589B0142104A8FEF7E1FD00F090F86F
:1007700002A86DDF142104A8FEF7D9FD9DF80C0036
:1007800000909DF80D309DF80E2016A104A801F0F0
:1007900057F89DF8090000909DF80A309DF80B204D
:1007A00010A10DF1190001F04BF80120102311A246
:1007B00002210090142000F043FB01200C2304AA26
:1007C000122100900A2000F03BFB01200C230DF1C8
:1007D00019021C2100900A2000F032FB00F06AF997
:1007E00009B000BD253032583A253032583A25300C
:1007F000325800004D4143003EB5044600F048F831
:100800000120A021214A1B23CDE900210290402292
:1008100001460D2000F073F842F21070844208D3B4
:100820001020052322461E2100900E2000F0BEFA63
:1008300029E0B4F57A7F08D31020042322461E2134
:100840000090122000F0B2FA1DE0642C08D31020B2
:10085000032322461E210090162000F0A7FA12E082
:100860000A2C08D31020022322461E2100901A20B1
:1008700000F09CFA07E01020012322461E21009080
:10088000084600F093FA00F015F93EBDA84F00208D
:1008900010B54FF4C0710248FEF749FD10BD0000CD
:1008A0005C7D002010B500218D2000F0FBFA0021B6
:1008B000102000F0F7FA0021AE2000F0F3FA172024
:1008C00005F094FC162005F091FC1A2005F08EFC32
:1008D000182005F08BFC1E2005F088FC10BD10B51B
:1008E00000F04DF800218D2000F0DCFA00211420EA
:1008F00000F0D8FA0021AF2000F0D4FA10BD2DE9A5
:10090000F84F06460C461F46DDF828B0DDF830806B
:10091000009400252EE01BF805904FF0000A23E01C
:1009200009F0800028B142462146304600F004FA22
:100930000AE0B8F1000F01D1012000E000200246DA
:100940002146304600F0F8F94FEA49604FEA106955
:10095000601CC4B2BC4203D1009C701CC6B206E04D
:100960000AF1010000F0FF0ABAF1080FD8DB00BF5E
:10097000681CC5B20B988542CDDBBDE8F88F10B579
:10098000172005F07AFC162005F077FC1A2005F0F8
:1009900074FC182005F071FC1E2005F06EFC1A2076
:1009A00005F0C4FC642004F085FB1A2005F0A4FCCB
:1009B000642004F07FFB1A2005F0B8FC0021AE2073
:1009C00000F070FA0021084600F06CFA00211220B5
:1009D00000F068FA0021402000F064FA0021812034
:1009E00000F060FA0021CF2000F05CFA0021A12085
:1009F00000F058FA0021C82000F054FA0021A62087
:100A000000F050FA0021A82000F04CFA00213F200D
:100A100000F048FA0021D32000F044FA00210846F3
:100A200000F040FA0021D52000F03CFA002180209F
:100A300000F038FA0021D92000F034FA0021F1202A
:100A400000F030FA0021DA2000F02CFA0021122008
:100A500000F028FA0021DB2000F024FA00214020D9
:100A600000F020FA0021202000F01CFA00210220D2
:100A700000F018FA00218D2000F014FA0021142053
:100A800000F010FA0021A42000F00CFA0021A620AA
:100A900000F008FA0021AF2000F004FA0021AF2096
:100AA00000F000FAFFF7F4FE0021084600F0C0F85D
:100AB00010BD000070B500F027F800241EE004F11E
:100AC000B201C8B2002100F0EDF90021084600F0A3
:100AD000E9F90021122000F0E5F900250AE005EB14
:100AE0004501084A02EB4101085D012100F0DAF9F5
:100AF000681CC5B2402DF2DB601CC4B2062CDEDBE4
:100B000070BD00005C7D002010B5E2B00020002127
:100B100000BF09E000EB400202AB03EB42020023FE
:100B200013609380421CD0B24028F3DB002064E0C5
:100B300000215EE0C1F13F0202EB42023B4B03EBBE
:100B40004203C0F105029A5C01EB410302AC04EBE5
:100B500043031A5401EB410202AB03EB4202125C65
:100B600001929DF80420D3099DF8002063F3000250
:100B700000929DF8042093099DF8002063F3410240
:100B800000929DF8042053099DF8002063F382022F
:100B900000929DF8042013099DF8002063F3C3021E
:100BA00000929DF80420D3089DF8002063F30412FE
:100BB00000929DF8042093089DF8002063F34512ED
:100BC00000929DF8042053089DF8002063F38612DC
:100BD00000929DF804209DF8003062F3C713009343
:100BE0009DF8002001EB410304EB43031A544A1C17
:100BF000D1B240299EDB421CD0B2062898DB0020EF
:100C00000FE000EB4002094B03EB420200EB400314
:100C100002AC04EB43031C6814609B889380421C65
:100C2000D0B24028EDDB62B010BD00005C7D00203A
:100C300070B504460D4605F1B201C8B2002100F0BE
:100C400031F904F12001C1F3031141F0100000213A
:100C500000F028F904F00F0141F00100002100F03C
:100C600021F970BD2DE9F05F80460F4614461D4600
:100C7000BB46A4F12000C4B2002650E00C2D07D1E1
:100C800004EB4400284901EB800010F8069016E0C0
:100C9000182D07D104EB4400244901EBC00010F8E3
:100CA00006900CE0202D05D1214800EB441010F8EF
:100CB000069004E01F4800EB041010F806904FF077
:100CC000000A26E009F0800028B1394640460A9A19
:100CD00000F032F809E00A9808B9012000E000208D
:100CE00002463946404600F027F84FEA49604FEA8D
:100CF0001069781CC7B2A7EB0B00A84205D15F466C
:100D000008F1010000F0FF0806E00AF1010000F020
:100D1000FF0ABAF1080FD5DB00BF701CC6B2AE42A5
:100D2000ACDBBDE8F09F0000BC2C00202037002089
:100D30000840002030310020F0B5144600253F283F
:100D400001DC2F2900DDF0BD0B46CF1701EB5777F3
:100D5000C7F3C702CF1701EB5777FF10A1EBC70707
:100D6000FEB20123B340DDB274B100EB40030E4F7D
:100D700007EB43039B5C2B4300EB4007DFF828C0E5
:100D80000CEB4707BB540DE000EB4003064F07EBAD
:100D900043039B5CAB4300EB4007DFF80CC00CEB5C
:100DA0004707BB5400BFCEE75C7D00202DE9FF4F15
:100DB00081B0074691461E460E9D4FF0000A002462
:100DC00039E0301B401EC1B20A2005F0EAFBB9FB36
:100DD000F0F00A21B0FBF1F201FB1208BAF1000FAA
:100DE00016D1701EA04213DDB8F1000F0ED1012004
:100DF000AB4605EBDB71491001FB04710090C8B2F2
:100E00002B4620220299FFF72DFF12E04FF0010A36
:100E10000120AB4605EBDB71491001FB047100902A
:100E2000C8B208F13001CAB22B460299FFF71AFF87
:100E300000BF601CC4B2B442C3DB05B0BDE8F08F94
:100E40002DE9F84304460E4615461F46DDF820807E
:100E500023E0402C03DD002406F11000C6B2302E42
:100E600004DD002004460646FFF712FDCDF80080A1
:100E70002A783B4631462046FFF7F4FE0C2F02D17C
:100E8000A01DC4B208E0202F03D104F10A00C4B2AF
:100E900002E004F10800C4B26D1C28780028D8D103
:100EA000BDE8F88370B504460E461EB1182005F063
:100EB0003DFA02E0182005F01FFA1E2005F01CFA8A
:100EC000002513E0172005F017FA04F0800018B190
:100ED000162005F02BFA02E0162005F00DFA172077
:100EE00005F024FA6006040E681CC5B2082DE9DB83
:100EF0001E2005F01BFA1E2005F0FEF970BD000053
:100F00002DE9F05F81460C461C48007898BB112003
:100F1000012181401A4A116000BF4FF4FA7569003F
:100F200015FB01F004F01CF900BF00F04DFC601C43
:100F3000690000FB01FA0AEBDA7040104FF400423E
:100F4000A9FB0223871843EBE07804F1010000FBC2
:100F500001F04FEAE07305462A4638464146FEF75F
:100F60006BF98346002259460648006801F036FABC
:100F7000012002490870BDE8F09F00003C75002088
:100F8000080500502099020010B54FF4807004F05D
:100F900078F860B14FF4807004F07CF8012004F020
:100FA00083F801200B494870002002F0C1FA4FF489
:100FB000827004F066F858B14FF4827004F06AF859
:100FC000022004F071F801200249887002F0B0FAA2
:100FD00010BD00005082002010B5002009490860B3
:100FE00000210948C0F84411C0F84811C0F84C115C
:100FF00000200549C1F8000102493C39086007F0AA
:1010000019FE10BD4011014000100140FEB54FF423
:10101000827005F015FA002835D04FF4827005F083
:1010200019FA794890F82B0018B1774890F82C00FD
:1010300048B300208DF80000734840680190724862
:101040000189ADF80810C06820B900206E4981F808
:1010500029000FE06C48C0686B4948600846808AE8
:1010600008810020C860084690F82B0010B90020C5
:1010700005F012FA64480168684688470020624912
:1010800081F82C0000BF604890F82B0000286CD03D
:101090004FF4807005F0D4F9002866D04FF48070CA
:1010A00005F0D8F95848C08AB0B957480089564960
:1010B00091F82A10401A5449C8820A4612890B46F0
:1010C000DB8AD21A0B465B6803EB42000A4692F8B1
:1010D0002A1005F069F941E04B48C08A4A4991F865
:1010E0002A10884216DD4848C08A474991F82A10DC
:1010F000401A4549C8820A4612890B46DB8AD21A31
:101100000B465B6803EB42000A4692F82A1005F092
:101110004BF923E03C48C08A3B4991F82A108842A9
:101120000FD13948C06860B10120374981F82C00DF
:101130000020C8820A4692F82A10D06805F034F9D7
:101140000CE03148C08A304991F82A10884205D114
:1011500001202D4981F82C000020C8824FF48270B4
:1011600005F078F9042005F097F94FF4887005F040
:1011700067F978B14FF4887005F06CF900202249C6
:1011800081F8290002208DF80000084601686846B1
:10119000884700BF4FF48A7005F052F940B14FF410
:1011A0008A7005F057F90020174981F829002AE0D4
:1011B0001548056924E0B5FA85F64FF00040F04087
:1011C0008543B00000F58C74204605F039F9B8B1BC
:1011D000204605F03FF901208DF80000A4F58C7041
:1011E000C0F3C7008DF80400A4F58C70012121EA3A
:1011F00090018DF80510044801686846884700BFD3
:10120000002DD8D100BFFEBDFC82002010B5034CDC
:101210002146034803F0FAFC10BD0000DC820020E8
:10122000003000401FB50F4B0FCB8DE80F001D2085
:101230008DF803001C208DF8020004208DF80100B9
:1012400003208DF8000000BF074A6946074804F0F4
:10125000CBFB044624B100BF204601F01BF800BFC1
:1012600000BF1FBD30990200658702002899020067
:10127000F8B504460D461848002101604160002081
:101280001649087044F080001549087056204870CF
:101290000220144908701449087000BF08460078FD
:1012A0000D4B00900F4802780D49104804F03AFCAD
:1012B000064626B100BF304600F0ECFF00BF00BF7D
:1012C00000E020BF054800780028FAD002484078A6
:1012D000287001484078F8BD4B7500204275002009
:1012E0004375002054750020537500202899020092
:1012F00010B5084804F02CFC1D2004F083FF1C20CE
:1013000004F080FF042004F07DFF032004F07AFF46
:1013100010BD000028990200F8B504460D46154896
:1013200000210160416000201349087013480470D7
:10133000457002201249087000201249087000BF51
:10134000084600780B4B00900D4802780B490E4878
:1013500004F0E8FB064626B100BF304600F09AFFD5
:1013600000BF00BF00E020BF034800780028FAD08B
:101370000120F8BD4B750020427500204375002008
:1013800054750020537500202899020010B507F00D
:1013900005FB10BD70B50A48006868B108480068D0
:1013A0008047044600BF254625B100BF284600F00F
:1013B00071FF00BF00BF01E003F086FB70BD0000BD
:1013C0000876002070B506460C461546074846705C
:1013D0008470C57000200649087006490870012114
:1013E0004FF4FA60FFF78CFD70BD000029750020F6
:1013F0003B7500203D75002010B50120054908709F
:1014000000200549487001214FF47A70FFF778FDFC
:1014100010BD00003B7500203D75002010B504464E
:10142000204600F069F90149086010BDB82C002081
:1014300001480249086070470090D00320760020E0
:1014400010B502F06DFC28B18D480088C0F304206F
:101450008C49086002F0B8FC10B18B488B49486792
:1014600002F0DAFC30B18648E0380068C0F3423060
:101470008749086002F0FAFC28B18648006820F02D
:1014800080708449086002F009FD48B1002082495B
:1014900008604FF08041C1F810017D49091F0860C4
:1014A00002F026FD18B1032079496431086002F08A
:1014B00037FD68B105207949086001207749783106
:1014C000086000207549083108603F20091F086046
:1014D00002F03EFD002855D06948E03000687049B0
:1014E00008606748E4300068091D08606448E83017
:1014F0000068091D08606248EC300068091D08603A
:101500005F48F0300068091D08605D48F4300068ED
:10151000091D08605A48F8300068614920310860A8
:101520005748FC300068091D08605E480068091DC6
:1015300008605C48001D0068091D086059480830B3
:101540000068091D086057480C300068091D0860D4
:1015500054481030006852494031086051481430F6
:101560000068091D08604F4818300068091D0860B0
:101570004C481C300068091D08604A48203000684B
:10158000091D086002F0A2FB30B13D48CC3800686C
:1015900000F04F004449086002F0ECFB40B14348C2
:1015A000006800F0010018B16FF001003F490860C9
:1015B00002F022FC28B13E48006840F480603C49BB
:1015C000086034487438006840F470003149743958
:1015D000086000BF00BF00BFBFF34F8F00BF00BF58
:1015E00000BF00BF00BF00BFBFF36F8F00BF00BFD1
:1015F00000BF3048006800F00100E0B301202E4930
:10160000086000BF2D4800680028FBD0294800680A
:1016100020F001004FF01021C1F80C0200BF274854
:1016200000680028FBD000202349086000BF234841
:1016300000680028FBD000BF00BF00BF00BF00BF94
:10164000BFF34F8F00BF00BF00BF1248F0380068E3
:1016500000F4E0601A490843001D0E49F0390860A3
:1016600000BF00BF00BFBFF34F8F00BF00BF00BF70
:1016700000BF00BFFDE7FFE7FFF7DAFE10BD000087
:1016800024030010403501400DF0ADBA00C0074002
:101690003C050040FCED00E00C010040105600400D
:1016A00020C5004024040010E40E00400004004067
:1016B0003C1700400C12001004E5014000E401401A
:1016C0000000FA0502480068401C014908607047A4
:1016D000B82C002010B50648007F20B10449054809
:1016E00007F0F3FE03E00249024807F04DFE10BD8B
:1016F000BC820020002000402DE9F0470446A0797C
:101700006179C1EB011100EB8100C0EB0010E179C0
:1017100001EB8008E778A0784FFA80F920E0208874
:101720004FF4C87190FBF1F201FB120070B12088F8
:10173000642190FBF1F201FB120048B12688F017FA
:1017400006EB90708010A6EB800008B9012000E045
:101750000020824609F0FF0103F021FC384487B2E3
:10176000A9F1010040B2B0F10009D8DA25881BE0E8
:101770004FF4C87195FBF1F201FB125169B164217C
:1017800095FBF1F201FB125151B12846E91705EB27
:1017900091718910A5EB810111B94FF4B77101E086
:1017A00040F26D1139448FB2681E80B2054640F296
:1017B000B2718842DCDA40F2A320784308EBC0180B
:1017C0004046BDE8F087000030B58BB018221149C3
:1017D00005A8FDF793FD00BF0F4801904FF48070FE
:1017E00002900E4803904FF48070049007230C4A37
:1017F00001A905A800F066FE044600BF00BF25460B
:1018000025B100BF284600F045FD00BF00BF0BB06A
:1018100030BD0000BC98020075770020757800206C
:10182000618F020070B505460E46002404E0285D75
:1018300000F0BCFE601C84B2B442F8DB70BD000056
:101840000FB4084B10B504A902AA039800F080F861
:10185000044602A9002000F0ACFA204610BC5DF856
:1018600014FB0000B31D020000B52DED048BB0EE9B
:10187000409AF0EE609A83B051EC190BFDF7D1FE5F
:1018800041EC180B18EE100A18EE901A8DED008B33
:10189000002818BF0120084320F00040C0F17F60FD
:1018A00000F1E040C00F14D019EE101A19EE900AA2
:1018B0008DED009B002918BF0121084320F0004056
:1018C000C0F17F6000F1E040C00F04BF012000F0D4
:1018D00039F8B0EE480A03B0F0EE680ABDEC048BAC
:1018E00000BD02E008C8121F08C1002AFAD17047E3
:1018F0007047002001E001C1121F002AFBD1704790
:101900000146202908DA012088400A4A104008B11F
:10191000012070470020FCE7402909DAA1F12000EE
:10192000012202FA00F008B10120F2E70020F0E7FE
:101930000120EEE7FC06FFBC00BFEFF31081084674
:1019400072B6704701490860704700002876002091
:101950002DE9FF4F8DB00F460546002606E02528ED
:101960000BD0DDE90F1290476D1C761C28780028FB
:10197000F5D111B03046BDE8F08F0024A246A14653
:101980000122EC4900E0044315F8013F203B02FA34
:1019900003F00842F7D128782A2810D06FF02F02E0
:1019A0002878A0F13001092914D80AEB8A0102EB4A
:1019B000410144F0020400EB010A6D1CF0E701CF85
:1019C0005FEA000A03D544F40054CAF1000A44F067
:1019D00002046D1C28782E2817D115F8010F44F049
:1019E00004042A280ED06FF02F022878A0F13001CD
:1019F00009290AD809EB890102EB410100EB010931
:101A00006D1CF2E757F8049B6D1C28786C280FD0EA
:101A100006DC4C2817D068280DD06A2814D104E0C1
:101A2000742810D07A280FD10DE044F400140AE095
:101A300044F4801401E044F440146978814202D1F6
:101A400004F580146D1C6D1C2A786E2A1FD00CDCE6
:101A5000632A31D004DC002A8BD0582A11D1A3E0AC
:101A6000642A68D0692A0CD165E0732A2ED004DC80
:101A70006F2A73D0702A04D19BE0752A6FD0782A20
:101A80006ED01046DDE90F129047761C50E1C4F38A
:101A90000250022806D0032809D0042801CF09D01B
:101AA000066045E101CFF117C0E9006140E101CFD7
:101AB00006803DE106703BE117F8040B8DF800004D
:101AC00000208DF80100EB46012003E057F804BB2D
:101AD0004FF0FF3061074FF0000102D40DE008F134
:101AE0000101884649450FDA8045F8DB1BF80810EC
:101AF0000029F4D108E008F1010188468142FADBAF
:101B00001BF808100029F6D1DDE90F23AAEB080025
:101B10008146214600F036F9304400EB080604E027
:101B2000DDE90F121BF8010B9047B8F10108F7D25D
:101B300021464846F7E00A21C4F302534FF0000B58
:101B40000891022B04D001CFC117032B09D00AE062
:101B5000FF1D27F00707F7E8020108E032E01FE069
:101B600020E000B2C117042B01D140B2C117031EFF
:101B700071F1000307DA4FF0000CD0EB0C006CEBB6
:101B800001012D2302E0230504D52B238DF82430F9
:101B9000012303E0E30701D02023F7E7984658E04C
:101BA0000A2110E010210EE010204FF0000B0890E9
:101BB0000CE010214FF0000B44F004044FF0080932
:101BC000089103E008214FF0000B0891C4F3025381
:101BD000022B04D001CF0021032B06D006E0FF1D0D
:101BE00027F00707F7E8020103E080B2042B00D1D9
:101BF000C0B24FF0000823072BD5702A07D0DDF8BC
:101C000020C08CF0100C5CEA0B0C05D00EE04023D9
:101C10008DF82430012308E050EA010306D0302378
:101C20008DF824308DF8252002239846DDF820C059
:101C30008CF0080C5CEA0B0C0BD150EA010301D1CB
:101C4000630706D530238DF824304FF00108A9F141
:101C50000109582A04D038A20B9208AA0A920BE074
:101C60003AA2F9E75B46089AFDF7E6FA0B9B9B5C04
:101C70000A9A521E0A92137050EA0102F2D10A988F
:101C8000ADEB000000F1200B600702D524F4803496
:101C900001E04FF00109D94502DDA9EB0B0000E09E
:101CA000002000EB0B0141440890AAEB010AE0037D
:101CB00006D4DDE90F232146504600F063F80644C0
:101CC0004FF0000908E009A911F80900DDE90F1239
:101CD000904709F10109761CC145F4DBE0030CD5FE
:101CE000DDE90F232146504600F04CF8064404E09D
:101CF000DDE90F1230209047761C0899481E0890A5
:101D00000029F5DC08E00A980A990078491C0A9134
:101D1000DDE90F129047761CBBF10001ABF1010B1E
:101D2000F1DC21465046DDE90F2300F019F80644A6
:101D30006D1C1BE60928010030313233343536374B
:101D40003839616263646566000000003031323307
:101D500034353637383941424344454600000000A7
:101D60002DE9F041044600251E461746880404D498
:101D700005E039462020B0476D1C641EF9D5284681
:101D8000BDE8F0812DE9F041044600251E4690464D
:101D9000C80301D5302700E02027880404D505E0DA
:101DA00041463846B0476D1C641EF9D52846BDE84B
:101DB000F0810A68531C0B601070704702460021C6
:101DC00004E0505C08B101207047491C0629F8D393
:101DD0000020F9E710B504466CB108480068A0423D
:101DE00009D806484068A04205D3204602F073FF98
:101DF00008B1012010BD0020FCE700003C76002067
:101E00002DE9FC4104468846164600253788002007
:101E1000308094F82D0058B13A463146404601F0E2
:101E200053F8054600BF15B12846BDE8FC8100BF48
:101E3000A07850B13A463146404600F001FC0546D4
:101E400000BF0DB12846F0E700BFE07860B1E1784F
:101E500048B23B463246414602F0ECF9054600BF27
:101E60000DB12846E1E700BF606868B1616891F98B
:101E700000003B463246414607F056F8054600BF93
:101E80000DB12846D1E700BF208900280EDD43466A
:101E90000622022104F10800CDE9006707F014FCD6
:101EA000054600BF0DB12846BFE700BF208A0028C5
:101EB0000EDD43460722032104F11000CDE900673F
:101EC00007F002FC054600BF0DB12846ADE700BF94
:101ED000208B00280EDD43461522142104F1180042
:101EE000CDE9006707F0F0FB054600BF0DB12846BD
:101EF0009BE700BF206A58B13B4632464146206A04
:101F000001F0A3FB054600BF0DB128468DE700BFD9
:101F1000207858B13B4632464146204603F050F8FF
:101F2000054600BF0DB128467FE700BF606A58B183
:101F30003B4632464146606A02F0F6FF054600BF66
:101F40000DB1284671E700BF94F82C0000280BDD86
:101F50003B4632464146204606F072FA054600BF2F
:101F60000DB1284661E700BF28465EE770B504461C
:101F70001448FFF723FF0546012C06D0022C0BD096
:101F8000032C10D0042C1AD113E00F48407810B164
:101F90000DB1012070BD00BF0B48807810B10DB1AC
:101FA0000220F7E700BF0848C07808B10320F1E736
:101FB00000BF0548007908B10420EBE700BF00200E
:101FC000E8E700005D750020387F00200146481CCE
:101FD000052290FBF2F302FB1300C0B27047F0B58C
:101FE00005460B4600211C680EE0665C481C275C19
:101FF000AF4206D1881C20441060701E90800020E3
:10200000F0BD701C014400BF98888842EDD80520BF
:10201000F6E738B5684602F083F9044600BF254666
:1020200025B100BF284600F035F900BF00BF009879
:1020300060B9032000F044FD044600BF254625B1E9
:1020400000BF284600F026F900BF00BF38BD01469A
:10205000C87800F0040008B9072070470020FCE7AA
:1020600030B5AFB00020089009900A903E48006853
:1020700001909DF807008DF820009DF806008DF86E
:1020800021009DF805008DF822009DF804008DF8D0
:10209000230036484088C0B28DF824003348808839
:1020A000C0B28DF8250031480088C0B28DF82600F6
:1020B00041F61E50ADF8140008A907910B20ADF8A9
:1020C0001800382121A8FDF732F902208DF884008C
:1020D00000208DF8860006208DF8870005A82A903C
:1020E000234802F0D5FB41F61E50ADF80800204908
:1020F00004910620ADF80C00382113A8FDF717F95C
:1021000002208DF84C0000208DF84E0002A81C9093
:10211000382113A8FDF70BF90120ADF85C00154933
:10212000189120210BA8FDF702F901208DF82F004E
:102130004FF448700F904FF4F050109000200E4B69
:102140000BAA13A9009021A800F0C0FB044600BF11
:10215000254625B100BF284600F09CF800BF00BF0F
:10216000002077DF2FB030BD784E0020DA720020DB
:10217000102800200C280020B965020010B50024AA
:1021800007E00749096811F83400012103F052F90A
:10219000641C044800788442F3D3002010BD000082
:1021A000A0750020A47500202DE9F84306460C46D2
:1021B0001746052F02D20720BDE8F88303F03EFA48
:1021C00038B903F00DFA054600BF0DB12846F3E714
:1021D00000BF1648066016480470164807600020C5
:1021E000154908601549086015E006EBC408144855
:1021F0000068009098F802008DF8010098F800003F
:10220000104A694603F072F9054600BF0DB1284631
:10221000D2E700BF00BF201EA4F10101CCB2E4D17F
:10222000094A0021094800F075F8C5E7A0750020AB
:10223000A4750020A8750020AC750020B0750020A2
:102240005C990200194902002139020058990200E4
:1022500000BF00BF00BF00BF00BFBFF34F8F00BF74
:1022600000BF00BF0948006800F4E0600849084367
:10227000001D0649086000BF00BF00BFBFF34F8FBD
:1022800000BF00BF00BF00BF00BFFDE70CED00E0D6
:102290000000FA053EB5044600200090019002902F
:1022A00002946A46002144F20100FFF7D1FF3EBDCF
:1022B00070B504460D46204601F0EAFE28B12946D5
:1022C000204601F0D9FE002070BD0520FCE7034642
:1022D00009B90E20704712B1501E104008B10920F4
:1022E000F8E71960501E988000209860D86000BF01
:1022F000F0E770B504460D46204601F0C9FEA188FE
:10230000884205D82946204601F0D5FE002070BD40
:102310000420FCE710B503460C4600BF0B4840689C
:1023200008B9082010BD00BF0AB90720FAE70BB9A9
:102330000720F7E71868007C08B10820F2E7196861
:10234000002008744C744A6100BFEBE7B4750020AC
:102350002DE9F04107460D4614461E46204600F082
:10236000030109B9012100E0002111B90720BDE8EE
:10237000F0810CB90720FAE705F040FC114806602F
:10238000002011490870487008468570446000209C
:102390000E4908600E4908700E4908701420FDF7B8
:1023A0003DFF06211420FDF773FF1420FDF74EFFBB
:1023B000384605F0F9FB05F0F1FB074908600020FD
:1023C000D5E70000D0750020B4750020BC75002052
:1023D000CC750020CD750020C07500202DE9F0419E
:1023E00004460E461746254600BF1048406810B9FF
:1023F0000820BDE8F08100BF0CB90820F9E7052EE0
:1024000001D20720F5E7686908B90820F1E7687C80
:10241000012801D1304600E0002080463B4642467C
:102420003146284606F054FBE3E70000B47500206F
:1024300070B50446254600BF0848406808B9082022
:1024400070BD00BF0CB1686908B90820F8E700202A
:1024500028740221284606F06AFBF1E7B4750020D3
:1024600010B5024803F022FE002010BDF8750020D0
:102470002DE9F04104460F48077821460E48FFF742
:1024800017FF804697B100200A49087001220B49C6
:102490000B4803F007FC054600BF2E4626B100BFDF
:1024A0003046FFF7F7FE00BF00BF00BF4046BDE863
:1024B000F081000006760020F888002005760020D4
:1024C000F87500202DE9F04188B004460D46174606
:1024D00098462E4807601DB9072008B0BDE8F08176
:1024E000A88882B22A482968FFF7F1FE064600BF95
:1024F0000EB13046F1E700BFA88982B22548A9682D
:10250000FFF7E5FE064600BF0EB13046E5E700BF27
:10251000202221496846FCF7F1FE60690690207C84
:1025200008B1012000E000208DF814008DF81C8017
:10253000607C08B10E2000E000208DF81500E068F6
:102540000290A06803902068019060680090134A90
:102550006946134803F068FB064600BF0EB13046DB
:10256000BBE700BF00200F4908702068401C58B12D
:102570009DF81D0010B90A4803F0FCFB01220A492E
:10258000074803F08FFBA8E70020A6E700760020AD
:10259000F88800200889002074990200AD9202009A
:1025A000F8750020067600200576002070B50446F8
:1025B00021460B48FFF79DFE054675B9094803F013
:1025C00067FD50B908490648FFF772FE28B9012295
:1025D0000549044803F0A8FC0546284670BD0000E4
:1025E00008890020F87500200476002010B5044604
:1025F000204605F001FD10BD70B5044625460E4885
:102600008068B0B1ADB9FFF797F906460A4800688F
:102610000A490860084840684FF0E021C1F8040109
:102620000020054988601EB900BF62B600BF00BF28
:1026300000BF00BF70BD00004C83002000E100E03F
:10264000F8B505460C4617462088001DB84201D94A
:102650000C20F8BD684679DF064600BF0EB1304653
:10266000F7E700BF0320218868542088401C2080A1
:102670001920218868542088401C20802088411916
:10268000BDF8000006F0ADFF21880844208000203E
:10269000DFE7000070B505460C46206803F04EFEEB
:1026A000206803F0F6FD0021606803F0CDFD287975
:1026B000274901EB4010007F20B32868A169C0F8CA
:1026C000241500BF617D227D286841EA0203C0F81D
:1026D0006C3500BFD4E90012286803F052FF207D5A
:1026E000012833D10021A06803F0AEFDE06803F0BB
:1026F00025FEE06803F0CDFDD4E90221286803F04F
:102700002CFF23E02868A169C0F8241500BF617D73
:10271000227D286841EA0203C0F86C3500BFD4E985
:102720000012286803F000FF207D01280ED100214F
:10273000A06803F089FDE06803F000FEE06803F0A4
:10274000A8FDD4E90221286803F0D7FE70BD00007F
:10275000BC8200200246DFED320AB0EE600A0020A3
:1027600008E002EB8003D3ED000A70EE800AB0EEC1
:10277000600A401C8842F4DB2A48D0ED000AF8EEDB
:10278000E00A80EE201AB0EE410AF2EE000AB4EE42
:10279000E00AF1EE10FA04DBDFED230AB0EE600A86
:1027A0003CE0F1EE0C0AB4EEE00AF1EE10FA0BDBBD
:1027B000F2EE000AB4EEE00AF1EE10FA04D2DFED18
:1027C0001B0AB0EE600A29E0F1EE000AB4EEE00A5E
:1027D000F1EE10FA0BDBF1EE0C0AB4EEE00AF1EECA
:1027E00010FA04D2DFED120AB0EE600A16E0F0EE45
:1027F000080AB4EEE00AF1EE10FA0BDBF1EE000A83
:10280000B4EEE00AF1EE10FA04D2F0EE000AB0EEF7
:10281000600A03E0DFED070AB0EE600A70470000CF
:1028200000000000804E00209A99894033335340C5
:10283000333313406666A63F2DE9F04192B08046DF
:102840000D461F2011901090B8F1000F17D0404690
:10285000FFF7FDFB044600BF1CB1204612B0BDE8E7
:10286000F08100BF11AA08A94046FFF7C9FA044643
:1028700000BF0CB12046F1E700BF08AE02E0002621
:1028800000201190ADB1284605F0EFFF044600BFCF
:102890000CB12046E2E700BF10AA69462846FFF7C0
:1028A000AFFA044600BF0CB12046D7E700BF6F4621
:1028B00002E0002700201090BDF84000C3B2BDF830
:1028C0004400C1B23A46304672DFC7E72DE9F0470F
:1028D00004460F4615461E46DDF8208004B115B9A2
:1028E0000E20BDE8F08701204849087000204849C3
:1028F0000870202229464748FCF700FD464806603C
:102900004648C0F800804FF6FF70454908804548AA
:10291000002101608180817138214348FCF707FD67
:10292000207841490870A0788870E078C870607895
:102930004870D4E90402C1E904020846D4E902124D
:10294000C0E90212D4E90612C0E90612606AD8B1E1
:1029500036483549486236498160606A00883249A4
:10296000496A0880606A80882F49496A8880002007
:1029700005E0616A8968095C2D4A1154401C2A49A6
:10298000496A89888142F4D8A06A20B329492A4833
:1029900081602549886227492348806A8160A06A4E
:1029A00080882149896A8880A06A00881E49896ACE
:1029B0000880002005E0A16A8968095C1D4A11545D
:1029C000401C1949896A89888142F4D894F82C00FE
:1029D000154981F82C00206A58B11848124908623C
:1029E000206A4088096A4880206A00880E49096A7E
:1029F0000880606810B10C496068486039460A4830
:102A0000FFF71AFF814648466BE700005875002023
:102A10005B750020387F00206C75002070750020E9
:102A2000687500205C750020587F0020907F002092
:102A30009C7F0020C87F0020BC7F002064750020A0
:102A400010B504462088102804D0112806D01B2871
:102A50000CD107E0204604F055F808E0204604F0C9
:102A6000EFF804E0204604F00DFA00E000BF00BFDC
:102A700010BD000070B50546022D02D0032D15D102
:102A800000E000BF0B48007878B1002009490870C9
:102A90000948007800F014F8044634B1074800688B
:102AA00018B1204605490968884700E000BF00BF0B
:102AB00070BD0000597500205B7500207075002006
:102AC0007FB505464D48007810B9082004B070BDA8
:102AD0004B48057001F0C9FB20B10120494908703D
:102AE0000020F3E748480021016081808171474858
:102AF000407818B14248007801280DD043488078CA
:102B000018B13F480078012806D04048807888B145
:102B10003B48007802280DD13D48006838B10120BB
:102B20003C49087008203A490968884702E00020BB
:102B3000384908702846FFF719FA314908703448B7
:102B40000068C0B108460078032803D00846007822
:102B5000042810D12D48007868B12F48007850B96A
:102B600000202E49087001202D49087007202849AF
:102B70000968884702E00020294908700020009079
:102B80000190029003908DF800008DF808001C4819
:102B9000007805281CD2DFE800F01703080D1200AA
:102BA000684605F0B9FC044613E0684605F0C4FC2D
:102BB00004460EE0684605F0D5FC044609E0684688
:102BC00005F000FD044604E000201649087000E00E
:102BD00000BF00BF0A48007828B1684673DF04468A
:102BE0000CB1204672E70A48006820B10D48007811
:102BF000074909688847002068E7000058750020E9
:102C00005B750020597500205C750020387F00201E
:102C10006C750020637500207475002076750020A7
:102C2000757500205A75002070B505461C2229468E
:102C30001248FCF763FB002011490870286850B166
:102C4000104829680A680260496841607ADF0446D2
:102C50003CB1204670BD0B487BDF04460CB12046DA
:102C6000F8E74FF6FF700849088000200749087010
:102C7000074A00210748FFF74DFBEBE7E87F0020FC
:102C80008C750020787500208275002080750020EA
:102C9000F19502004099020010B5044620881028E2
:102CA00006D0112808D012280ED0502810D107E0E5
:102CB000204603F007FF0CE0204603F09DFF08E0EC
:102CC000204604F0FBF804E0204603F0EFFE00E0AD
:102CD00000BF00BF10BD000010B50449897D034A44
:102CE000527D01EA020005F049FA10BD248000205F
:102CF00070B504462088102804D011281DD01A2849
:102D000040D11EE004F0CEFEA08804F05FFD20B9A3
:102D100000BF0420FFF7BEFA0EE0E07B022801D1DD
:102D2000012000E000200546A2882B461649A1F1AB
:102D3000120005F033FA00BF24E0A08804F0D4FEAE
:102D400020E0207A0121B1EB101F01DA012000E020
:102D500000200346A2880C49491CA1F1130005F08C
:102D60001DFA207A0221B1EB101F01DA012000E0E8
:102D700000200346A2880449891CA1F1140005F033
:102D80000DFA00BF00BF70BD3A80002070B5044648
:102D900000250B48017D2246001D05F0B7F960B102
:102DA0000748817D2246001D05F0B0F906460EB1A8
:102DB000022000E00120054600BF284670BD00004B
:102DC0002480002070B505460C4600BF05B970BDD3
:102DD00000BF00BF04B9FAE700BF00BF1348007886
:102DE000012800D0F3E700BF2088112815D0302833
:102DF00004D0322807D0332814D109E0211D2846F9
:102E000003F0B2FF0FE0211D284603F0A5FD0AE004
:102E1000211D284603F080FE05E0211D284603F011
:102E20002DFF00E000BF00BF00BFD0E79C75002071
:102E30002DE9F04104460D4600BF14B90E20BDE84F
:102E4000F08100BF00BF1C480078012801D0082095
:102E5000F5E700BF1948006808B90820EFE794F8C3
:102E6000A70108B11120EAE7A4F8AA5100201449EB
:102E7000086084F8A80184F8A60194F8A601C0EBC4
:102E8000C00000EB800004EB400794F8A6010D4958
:102E900001EB8000006838603A460121284694DF43
:102EA000064600BF0EB13046C9E700BF012084F8D6
:102EB000A7010020C3E700009C7500209875002042
:102EC00094750020588000202DE9FC4105460C46F1
:102ED000174620880930B84202D90C20BDE8FC8191
:102EE00068466DDF064600BF0EB13046F6E700BF0C
:102EF0000820218868542088401C20801B202188BD
:102F000068542088401C208020882844DDF8011067
:102F10000160BDF8051081802088801D20809DF80B
:102F20000000400818B900202188685402E0012000
:102F3000218868542088401C20800020CEE70000B3
:102F400070B504462046FFF7D3FEA5882846FFF754
:102F50001DFF0646012E0DD1204603F00DFC204634
:102F6000FFF76EFD2046FFF797FE2146114800F05F
:102F7000A1F81EE0022E02D020881D2819D1208839
:102F8000112802D0204603F02FFB012D07DA6B2118
:102F90006943094A02EB81002146FFF713FF2146EE
:102FA000064800F00DF82088112802D1204603F0D1
:102FB0001BFB70BD847B0020D8790020C8790020DD
:102FC0007FB504460D4604B105B97FBD60884FF654
:102FD000FF71884204D06088A988884200D0F4E755
:102FE0002888112806D0392816D12946204603F012
:102FF0004EFE11E0A888618888420CD1E06850B18B
:1030000003208DF800004FF6FF706080694620466F
:10301000E268904700BF00BF00BF00BFD5E70000D7
:1030200070B586B004460E46214B0FCB01AD0FC5DF
:1030300000BF14B90E2006B070BD00BF00BF0EB9AE
:103040000E20F8E700BF4FF6FF70A0823068A06145
:103050000020A075214601A863DF054600BF0DB121
:103060002846E8E700BF20788DF816000120ADF86B
:103070001400A21C05A9A0DF054600BF0DB128461B
:10308000D9E700BF3146204604F003FE054600BFE5
:103090000DB12846CFE700BF3146204605F0BDFE02
:1030A000054600BF0DB12846C5E700BF0020C2E7B6
:1030B0004499020070B505460C4605B104B970BDCF
:1030C0002088102804D0112807D050280FD109E0FB
:1030D0002146284603F012FD0AE02146284603F067
:1030E000ABFD05E02146284603F00EFF00E000BFDF
:1030F00000BF00BFE3E737B584B004460D4600BF0C
:1031000014B90E2007B030BD00BFA08A4FF6FF7182
:10311000884201D0A07D08B90820F3E7BDF8180067
:10312000142801DD0720EDE70020009001900290B7
:103130000390A089ADF80000039506A80290012035
:103140008DF80200A08A6946A6DFDBE770B5044669
:10315000204606F040FA054605F0010070BD00006B
:1031600070B588B027480068079000BF0023502240
:10317000254907A805F096FA054600BF2E4626B158
:1031800000BF3046FFF786F800BF00BF00BF6A46A9
:103190000121002005F066FA044600BF254625B14E
:1031A00000BF2846FFF776F800BF00BF1720ADF834
:1031B0001000684605F042FA044600BF254625B1D6
:1031C00000BF2846FFF766F800BF00BF0F4805F0B4
:1031D00029FA044600BF254625B100BF2846FFF75F
:1031E00059F800BF00BF0A4805F0B0FA044600BF16
:1031F000254625B100BF2846FFF74CF800BF00BFA9
:1032000008B070BDD498020078790020412F0200E8
:10321000478902007CB504460D466846FCF772FEFD
:103220000C2C74D1002D73D14F48007800F00100B0
:1032300000286FD04C48407830B1012818D00228BF
:1032400035D0042862D146E04748007820F0FC00E1
:10325000283045490870012048700846007820F061
:103260000200801C087041480068FDF7C5FA4DE077
:103270003D48007820F0FC0050303B4908700220A7
:1032800048700846007820F0020008706FF00200D5
:10329000374908800020488088800B46B3F9042015
:1032A000B3F90210B3F90000FDF7BEF82EE0FCF709
:1032B000D1FC2D48007820F0FC0028302A49087005
:1032C000042048700846007820F00200801C087036
:1032D000FDF746FA1AE02448007820F0FC00283078
:1032E00021490870002048700846007820F002004C
:1032F000801C08701F480078C0F342021D48007807
:1033000000F001016846FCF7D7FF00BF29E02AE082
:1033100028E0FFE717480078C0F3001008BBFDF76E
:10332000DEFA14480078C0F342021248007800F038
:1033300001016846FCF7C0FF0B48007820F002004E
:10334000801C094908700846007820F00100401CE4
:1033500008700846007820F0FC0028300870002033
:10336000487000BF00BF7CBDD1720020784E0020A5
:10337000D47200207023002010B500244FF4A472F2
:1033800001210448FEF710FF044614B9FEF7F6FECB
:10339000044610BD189902004FF0FF31054A42F86B
:1033A0002010082804DBFF23A0F1080150325354F9
:1033B00070470000648200200146024850F8210056
:1033C00070470000648200202DE9F04F03460C4650
:1033D0004FF0FF390AB1002000E0082084460AB10E
:1033E000082000E00C208046614624E0154850F893
:1033F0002100401CF0B91D460846274616464FFAE4
:1034000080FBDFF840A00AF1300A0AF805B0DFF8C7
:1034100034A04AF820704EB94FFA85FBA0F1080A93
:10342000DFF820E00EF1500E0EF80AB000BF4FFAA0
:1034300081F902E0491C4145D8D300BF4846BDE8A8
:10344000F08F00006482002001460148405670471A
:1034500094820020F8B504460E4694F8A601C0EB0D
:10346000C00000EB800004EB400594F8A501B8B162
:1034700094F8A521521ED1B294F8A621C2EBC20243
:1034800002EB820204EB420501EB410305F10A0263
:1034900002EB83000289521C92B2ADF8002002E0D8
:1034A000E888ADF800002889ADF80200694630468A
:1034B00096DFF8BD014639B10448884204D8044873
:1034C000884201D9012070470020FCE72C760020BB
:1034D0004C7600200A49496A81B10949096A084ABB
:1034E00002EBC1010160114691F82010491C01F066
:1034F000030111621146496A491E5162704700007A
:10350000208500200178022902D0017803290BD1FF
:1035100006490A6A817D1144044A116211464A6AC9
:10352000817D511A014A51627047000020850020B8
:1035300070B505460DB9094C01E0084C083409E0A6
:10354000204601F0D0FB064606B904E02846716823
:10355000884700BFF4E700BF70BD0000588200201C
:103560002DE9F04782461F480068002836D01D48E4
:103570000068056804F012FB07461B4804682146F2
:10358000384605F0E9F9C61C1848007808B904F077
:1035900017FBAE4201D2284600E03046044424F036
:1035A0007F44204604F0F4FA04F0F8FA80463946E5
:1035B000404605F0D1F900F103093946204605F0EF
:1035C000CBF9814509D904F0E9FA814604F0E0FA23
:1035D0002F2001F05DFE05F079FB01E004F00EFB09
:1035E000BDE8F087BC750020C0750020D4750020B0
:1035F00001460888062808DB0888B0F5486F06DD14
:1036000008884FF6FF72904201D007207047488823
:10361000062808DB4888B0F5486F06DD48884FF675
:10362000FF72904201D00720F0E708884FF6FF7242
:10363000904208D04888904205D008884A88904235
:1036400001DD0720E2E70020E0E72DE9F041064632
:103650000D46144698462088801D404502D90C200E
:10366000BDE8F0813046FFF7C3FF074600BF0FB14A
:103670003846F5E700BF0520218868542088401CA3
:1036800020801220218868542088401C20802288B5
:103690005119308805F0A5FF218808442080228830
:1036A0005119708805F09DFF218808442080002072
:1036B000D6E710B5044600BF2046FEF7EBFD00BF7D
:1036C00010BD000030B587B01C216846FBF72FFE07
:1036D000002000904FF4203001904FF470200290B1
:1036E00003208DF80C004FF6FF70ADF80E0001209E
:1036F0008DF8100000200590084806906846FFF7F6
:1037000093FA044600BF254625B100BF2846FEF7C0
:10371000C1FD00BF00BF07B030BD0000B3360200DE
:1037200038B51B4801F096FA20BB1A48007848B11A
:1037300019484069E8B1002000901748416968467F
:10374000884716E01548007810B91348456801E02D
:10375000114885680022294611480068FEF73EFEA0
:10376000044634B10C48806918B10B488169204681
:10377000884709E00848406930B1012000900648B8
:1037800041696846884700BF00200249087038BD7B
:10379000847500208C750020E87F00208075002053
:1037A00040990200194800681949086019480068E2
:1037B000164908600846006815490968401AB0F5BE
:1037C000967F1FDC14480068092805DA1248006853
:1037D000401C1149086018E00F48006809280BD107
:1037E0000D480068401C0C4908600C4800680968D6
:1037F00008440A49086008E008480068401C074976
:10380000086002E00120044908607047C84E0020AB
:10381000C44E00207C4E0020C04E0020784E002078
:1038200070B506460D460EB1012070BD287920B155
:10383000012809D0022813D10FE0284604F030F8FF
:103840000446022028710DE0284600F03DFC0446A5
:103850000A2C01D141F61D5404E041F61D5401E04B
:103860000F2400BF00BF2046DFE72DE9F84F0446D4
:103870000F4690464FF0000B94F8A601C0EBC00035
:1038800000EB800004EB400594F8A50100EB40013B
:1038900005F10A0000EB810A94F8A501401C297982
:1038A000884207D16B4600225146204601F0E4F9D8
:1038B000834627E094F8A5611FE02879401EB042B6
:1038C00002D14FF0000906E0701C00EB400105F149
:1038D0000A0000EB81096B464A465146204601F03A
:1038E000CBF910B14FF0010B0AE0CA4694F8A501DC
:1038F000401C84F8A501701CC6B22879B042DCDCFB
:1039000000BF00BFBBF1000F04D1012038700020C0
:10391000BDE8F88F002038706946404697DFF7E72A
:103920002DE9F0478146002532E01C48006800EB95
:10393000C5042178012000FA01F6194800683040DA
:1039400020B317480068B04315490860207801F09B
:1039500039FE07462178012088401249096808404D
:10396000217807FA01F188420FD16078012800D14F
:1039700000E00020784080F00108606820B108F085
:10398000FF0120786268904700BF00BF681CC5B285
:10399000054800788542C8DBBDE8F087A0750020A7
:1039A000B0750020AC750020A475002010B52DED79
:1039B000028BB0EE408A364890ED000AB5EEC00AA0
:1039C000F1EE10FA02D180ED008A5BE03048D0EDD4
:1039D000000AB0EE480A00F06FF8002852D02D48D7
:1039E00000682D4908602D4800682D490860084688
:1039F000006829490968401A2A490968884215DB84
:103A0000294890ED000A2948D0ED000A30EE600AFE
:103A10002748D0ED000AB4EEE00AF1EE10FA05DB1B
:103A20001F4800681B490860FFF7BCFE1C4800687F
:103A300019490968401A1B490968884222DB1A485B
:103A400090ED000A1948D0ED000A30EE600A1948DE
:103A5000D0ED000AB4EEE00AF1EE10FA12DB1048E5
:103A600000680C4908601048D0ED000A0F4890ED3E
:103A7000001A70EEC10AB0EE600A03F0B5FA0C4805
:103A800080ED000A024880ED008ABDEC028B10BD7B
:103A9000B04E0020A04E0020A44E00207C4E0020FE
:103AA000A84E0020BC4E0020984E00209C4E0020C6
:103AB000B84E0020B44E00202248007822490870F9
:103AC000B4EEE00AF1EE10FA08DB01201D4908709F
:103AD0001E480068401C1D49086008E01B4800683B
:103AE0001B490860002019490860164908701548EC
:103AF0000078C8B914480078B0B1154800680228A9
:103B000012DB9FED141AF4EEC10AF1EE10FA0BDB92
:103B10009FED111AF4EEC10AF1EE10FA04D20F482B
:103B2000C0ED000A012070470748007838B9054801
:103B3000007820B10A48C0ED000A0020F3E7002019
:103B4000F1E70000884E0020944E00208C4E0020AB
:103B5000904E0020F6283C41CDCC9C41984E002050
:103B60009C4E00202DE9F04104460D46164694F87F
:103B7000A601C0EBC00000EB800004EB400840460B
:103B800003F0E6FF0746002F40D0214800680628D2
:103B90003CD21F48006800EB80001E4901EB00107A
:103BA00046801B49096801EB81011A4A02EB0111A9
:103BB000081D46224146FBF7A1FB4DB100201449E8
:103BC000096801EB8101134A02EB0111087008E05A
:103BD00002200F49096801EB81010E4A02EB011135
:103BE00008700B48006800EB80000A4901EB0010E8
:103BF000C76407480068401C05490860084600681B
:103C000005490968884201D103F03AFABDE8F0811C
:103C10009475002070800020987500202DE9F041F7
:103C200094B004460D46164694F8A601C0EBC000B9
:103C300000EB800004EB4008404603F089FF074694
:103C400047B1ADF8066001208DF80400029501A887
:103C5000B84700BF14B0BDE8F08100000146144829
:103C60000078144A127890421DD011480078401C08
:103C70000F4A107010460078022801D10020107001
:103C80000D480B4A127850F8220008600B4A086869
:103C900012681044094A10601046006820F07F4006
:103CA0001060012070470020086000BFFAE70000A4
:103CB000CC750020CD750020C4750020C075002093
:103CC00010B50446A08928DF10BD00001348007815
:103CD000062820D11148001D007800F00F00D0B94F
:103CE0000E480830007800F0F000302801D10120A3
:103CF00070470A480830007800F0F000402801D1F1
:103D00000120F5E705480830007800F0F000502861
:103D100001D10120ECE70020EAE70000E00F00F00D
:103D200013480078062820D11148001D007800F0C3
:103D30000F00D0B90E480830007800F0F0003028AD
:103D400001D1012070470A480830007800F0F000E7
:103D5000402801D10120F5E705480830007800F03F
:103D6000F000502801D10120ECE70020EAE7000034
:103D7000E00F00F013480078062820D11148001DFC
:103D8000007800F00F00D0B90E480830007800F03D
:103D9000F000302801D1012070470A48083000782F
:103DA00000F0F000402801D10120F5E70548083077
:103DB000007800F0F000502801D10120ECE700204D
:103DC000EAE70000E00F00F00A48007806280ED16C
:103DD0000848001D007800F00F0040B90548083081
:103DE000007800F0F000302801D101207047002059
:103DF000FCE70000E00F00F006480068062806D146
:103E00000448001D0068062801D1012070470020E9
:103E1000FCE700003001001013480078062820D18C
:103E20001148001D007800F00F00D0B90E4808308E
:103E3000007800F0F000302801D1012070470A48D6
:103E40000830007800F0F000402801D10120F5E7AB
:103E500005480830007800F0F000502801D101201A
:103E6000ECE70020EAE70000E00F00F00A480078E5
:103E700006280ED10848001D007800F00F0040B958
:103E800005480830007800F0F000302801D101200A
:103E900070470020FCE70000E00F00F013480078B6
:103EA000062820D11148001D007800F00F00D0B97D
:103EB0000E480830007800F0F000302801D10120D1
:103EC00070470A480830007800F0F000402801D11F
:103ED0000120F5E705480830007800F0F000502890
:103EE00001D10120ECE70020EAE70000E00F00F03C
:103EF0000A48007806280ED10848001D007800F016
:103F00000F0040B905480830007800F0F000302874
:103F100001D1012070470020FCE70000E00F00F015
:103F20000A48007806280ED10848001D007800F0E5
:103F30000F0040B905480830007800F0F000302844
:103F400001D1012070470020FCE70000E00F00F0E5
:103F50000A48007806280ED10848001D007800F0B5
:103F60000F0040B905480830007800F0F0005028F4
:103F700001D1012070470020FCE70000E00F00F0B5
:103F80000278072A34D2DFE802F033040710202930
:103F9000300000220A702CE001220A7003898B8114
:103FA0008388CB81C2688A6023E002220A70038979
:103FB0008B818388CB81C2688A60027C062A01D10A
:103FC000012300E000230B7413E003220A70C3886E
:103FD0008B810389CB81C2688A600AE004220A705F
:103FE000C3888B810023CB8103E005220A7000E0A7
:103FF00000BF00BF7047000070B50546002409E00F
:10400000064850F8240020B1044850F824102846EF
:104010008847641C002CF3D070BD0000DC750020C4
:10402000F0B5034600241FE0124E306806689E4239
:1040300003D90668F61A06601AE006689B1B066834
:104040003444002606600B4E35680A4FC6693E6050
:10405000C66846B10E1926F07F464660C66886607F
:104060001668C661156000BF024800680028DBD1F1
:1040700000BFF0BDBC75002070B504460D462A4651
:104080000021204600F00EF8A068401CA06070BD22
:1040900001468A68C868801A704701468A68C868FD
:1040A000801A704710B583680B44848823400468E5
:1040B000E35C137010BDC26883881A40036899548A
:1040C000C268521CC26070473EB504460C4B6A463B
:1040D0000021A01D03F0A0FB05465DB9019803F087
:1040E00071FC0546012006498988064A02EB011148
:1040F000887303E0024800210160416028463EBD0C
:10410000EC750020488500207FB504460D4604F17B
:1041100010000290E07BC008ADF80C006A4602A9CE
:104120000920FDF75CFF06464EB9BDF8042028467D
:104130000099FBF70EF9A0B9012004B070BD6A46E2
:1041400002A90820FDF74BFF06460EB10020F4E758
:10415000BDF8042004480099FBF7FBF808B90120DA
:10416000EBE70020E9E70000D89802007FB504469D
:104170000D4604F110000290E07BC008ADF80C0081
:104180006A4602A90620FDF72AFF06464EB16A4696
:1041900002A90720FDF723FF064616B1002004B050
:1041A00070BD002112E000BF009800EB4100427892
:1041B0004FF6FF7000EA0222009810F81100024347
:1041C00000BFAA4201D10120E9E7491CBDF8040063
:1041D00000EBD072B1EB620FE5D30020DFE710B542
:1041E0000446A07EFF2802D0A07E02F0AFF8002097
:1041F00060762071201D2168884710BD024909782A
:104200008143014A11707047D87500200146044867
:104210000078084008B1012070470020FCE700004A
:10422000D8750020024909780143014A117070478E
:10423000D875002030B504461088C01C984201D9BA
:104240000C2030BD0220158848551088401C108075
:104250000120158848551088401C108015884C5541
:104260001088401C10800020EBE708B5684600F07D
:1042700057F8009808B1012008BD0020FCE70000B5
:10428000F8B505460C4616461F461C48007800F057
:10429000010008B90120F8BD2846FFF70BF908B95D
:1042A0000220F8E70CB90320F5E7C4F30B0008B1CE
:1042B0000620F0E72868A04204D804EB06306968BD
:1042C000884201D90520E6E70EB90420E3E76846F5
:1042D00003F0A0F908B90720DDE7009847600098CF
:1042E0000560022000990872C4F30F30009988819C
:1042F0000098068203F054FA0020CCE7F475002001
:1043000070B505460C46204603F0C0F970BD0000AC
:1043100011B90022014B1A7070470000742300206D
:10432000014609B9032070470248D0F884010860AB
:104330000020F8E7708700202DE9F84305460C4679
:1043400016461F46DDF820801F48007800F0010067
:1043500010B90120BDE8F8832846FFF7ABF808B98B
:104360000220F7E706B10CB90320F3E706F00300DB
:1043700010B904F0030008B10620EBE72868A0425A
:1043800004D804EB87016868884201D20520E1E780
:104390000FB90420DEE7684603F03CF908B90720AE
:1043A000D8E70098C0F804800098056001200099C3
:1043B00008720098C660009804610098878203F034
:1043C000EFF90020C6E70000F475002070B5044640
:1043D0001848D0F8800100EB4000164901EBC005F9
:1043E0001548007800F0020068B1022C02D0032CBE
:1043F00008D103E0284602F07BFC03E0284602F0E7
:1044000061FC00BF13E00C48007800F0040070B1BC
:104410000948007820F00400074908700548D0F8E2
:10442000840120B10846007840F00200087003F0D3
:104430007FF970BD70870020F47500203EB500BF85
:104440009DF8000020F00F00401C00909DF8000037
:1044500020F0F0001030009000BF0B2214A168463D
:104460007CDF044600BF254625B100BF2846FDF786
:1044700011FF00BF00BF0020019002900620ADF8A0
:1044800004001820ADF806000020ADF808004FF435
:10449000C870ADF80A0001A87ADF044600BF2546BF
:1044A00025B100BF2846FDF7F5FE00BF00BF3EBDA9
:1044B00063712D42726163656C65740070B5054669
:1044C0000DB1012070BD194890F8290020B10020DD
:1044D000164981F8290001E000F0D6F81348007869
:1044E00008281DD2DFE800F01C04080C101C14186A
:1044F00000F03EF8044615E000F0B4F8044611E080
:1045000000F090F804460DE000F046F8044609E09B
:1045100000F01EF9044605E000F02AF9044601E027
:104520000F2400BF00BF2046CCE7000038870020E2
:104530000D480089401C0C4908810020488081F802
:10454000290000BF0CE0094901EB0011097809B905
:10455000012200E0002204490A310A54411C88B2B9
:104560001F28F0DB704700003887002048850020B6
:1045700010B5084800F032F840B900200549891EFE
:1045800008704880486041F61D5010BD00F06AF880
:10459000FBE700003A87002070B50D4845880D48BC
:1045A00000EB0510808968B90A4800EB051000236C
:1045B000012241680848FFF763FE044604200449CD
:1045C000087002E000F08CF80446204670BD000040
:1045D00038870020488500203C76002010B5014631
:1045E0000022002015E00D4B1B5C83B100240B4B17
:1045F0001C540B4B03EB00139B8943B9084B03EB93
:1046000000139B7B012B02D10880012203E0431C95
:1046100098B21F28E7DB00BF104610BD428700207C
:1046200048850020F8B50C4844680C4800680B49E0
:10463000898800EB81056088C01C86B2032006498A
:104640000870002000900846334629464268044816
:10465000FFF772FEF8BD000038870020E4750020E7
:104660003C76002010B507494888091D03F07AF907
:1046700018B1FFF7D7FF044602E0FFF78DFF0446AD
:10468000204610BD3887002010B51448007808284F
:1046900020D2DFE800F0041F1F0A1016171BFFF7D7
:1046A00047FF01200D49087015E000F06DF8022069
:1046B0000A4908700FE000F029F806200749087041
:1046C00009E000BF07200549087004E00120034904
:1046D000087000E000BF00BF10BD00003887002058
:1046E00010B5052006490870022006498880084652
:1046F0000023012201680448FFF7C2FD10BD00003D
:1047000038870020E47500203C7600200D490868B9
:104710000D4949880D4A02EB01114968094A1160A7
:1047200009494988094A02EB01114860054989880D
:10473000054A5288054B03EB021211810221014AFE
:1047400091807047E475002038870020488500205C
:1047500010B50620044908704988044A02EB01118B
:10476000486802F01FFC10BD3887002048850020F3
:1047700010B50720034908700020486002F022FCB1
:1047800010BD000038870020054A50684288D21CBE
:1047900091B2044A92880A44024B9A807047000002
:1047A00038870020E475002000B52DED048B83B020
:1047B00001A8FBF7D9FB01285ED1BDF9040000EE8A
:1047C000100AB8EEC00ADFED2E0A80EE201A9FED27
:1047D0002D0A21EE000A2C4880ED000ABDF90600E2
:1047E00000EE100AB8EEC00A9FED251AC0EE010ACD
:1047F0009FED240A20EE800A234880ED010ABDF9CE
:10480000080000EE100AB8EEC00A9FED1D1AC0EEB7
:10481000010A9FED1C0A20EE800A1B4880ED020A67
:1048200090ED000A20EE000AD0ED010A90ED011A89
:1048300000EE810AD0ED020A90ED021A00EE810A24
:1048400010EE101A0846FAF729FE41EC190BB0EEEB
:10485000490AF0EE690AFDF707F8B0EE408AF0EE7B
:10486000608A51EC180BFAF72CFE084908600846DC
:1048700090ED000AFFF79AF803B0BDEC048B00BD81
:10488000000080460AE81C41DC7E0020AC4E00207F
:104890002DE9FE4F814600210C460D460026B9F158
:1048A000000F01D1BDE8FE8F68466DDF98B9002684
:1048B0000EE00DF1010010F806804FF0000AF20042
:1048C00040465146FAF7E9FC04430D43701C46B2DA
:1048D000062EEEDB0AE00F48006880B200220D4988
:1048E000091F096842EA010440EA020506270CE0B4
:1048F000781EC7B2FA00A346584629460295FAF731
:10490000DBFCC7F1050109F80100002FF0DC00BF56
:10491000C8E70000A80000102DE9F04105460F4649
:10492000012000FA05F418480068FDF781FD0646ED
:104930000EB1BDE8F081154800682040E0B9284676
:1049400000F040FE28B1124800682043104908607A
:1049500004E00F480068A0430D4908600B48006858
:1049600020430A49086000220A4801680648006896
:10497000FDF734FD064604E004480068A0430349FF
:10498000086000BFD5E7000058990200B07500200C
:10499000AC750020A8750020014688884FF6FF728C
:1049A000904203D0088808B1012070470020FCE73E
:1049B0002DE9F04106460C460F272EB10120FFF7E6
:1049C0001DFC0120BDE8F081207930B101280AD01A
:1049D000022833D0032864D13EE002F0F3FA074600
:1049E000012020715EE04FF00008002516E03248FB
:1049F00000EB0510007802280ED12F4901EB0511BC
:104A0000486802F0CFFA074600202B4901EB051158
:104A100008704FF0010803E0681C85B21F2DE6DB2B
:104A200000BFB8F1000F08D10220FFF7FBFB012007
:104A3000FFF7E4FB41F61D50C4E733E01F480023B5
:104A4000012201681E48FFF71BFC074602201B4994
:104A500088800020207125E01849086802F0A2FA39
:104A60000746184845881548D0F80080124800EBE2
:104A700005104068114908600F4800EB0510C0F8A8
:104A80000480084680880C4901EB0511088102204A
:104A90000A4988800020084901EB0511087020713F
:104AA00000E000BF00BF27B10120FFF7A7FB0E20E9
:104AB00088E7002086E7000048850020E475002094
:104AC0003C76002038870020F8B52748007800B9E8
